:107800000C943E3C0C945C3C0C945C3C0C945C3CB6
:107810000C945C3C0C945C3C0C945C3C0C945C3C88
:107820000C945C3C0C945C3C0C945C3C0C945C3C78
:107830000C945C3C0C945C3C0C945C3C0C945C3C68
:107840000C945C3C0C945C3C0C945C3C0C945C3C58
:107850000C945C3C0C945C3C0C945C3C0C945C3C48
:107860000C945C3C0C945C3C0C945C3C0C945C3C38
:107870000C945C3C0C945C3C0C945C3C11241FBE4E
:10788000CFEFD8E0DEBFCDBF84B78093070214BE30
:1078900088E10FB6F89480936000109260000FBEEC
:1078A00012E0A0E0B1E001C01D92A730B107E1F7FE
:1078B0000E94E63D0C943C3E0C94003C1092C500A6
:1078C0008DE18093C40086E08093C200E1ECF0E09B
:1078D0008081806180838081886080830895809129
:1078E000C00087FFFCCF8091C6000895982F80913B
:1078F000C00085FFFCCF9093C6000895EF92FF92E1
:107900001F93CF93DF93F999FECFC0910301D091DC
:10791000040183E0FE0180935700E89507B600FC60
:10792000FDCF5091020160E070E011E0852F90E002
:10793000FC01E95FFE4F40818F5FE82FF0E0319658
:10794000DF01B07031975A2F9B012C0F3D1FE95F6B
:10795000FE4FF080EE24C701840F911DF9010C0148
:1079600010935700E89511246E5F7F4F60387105C2
:10797000E9F6A093020185E0FE0180935700E895A7
:10798000C058DF4FD0930401C093030180910101DF
:1079900080588093010107B600FCFDCF81E1809300
:1079A0005700E895DF91CF911F91FF90EF900895D8
:1079B000813410F08753089580530895BF92CF9279
:1079C000DF92EF92FF920F931F9382E50E94763C25
:1079D0000E946F3C8A3309F0D9C00E946F3C813409
:1079E00008F0A7C0182F10530E946F3C813408F094
:1079F000A7C08053E12EE294E0EFEE22E82A0E9435
:107A00006F3C813408F0A0C070EDB72EB80E0E9414
:107A10006F3C813408F0A0C050EDC52EC80E0E9406
:107A20006F3C813408F0A0C0082F00530E946F3CC7
:107A3000813408F0A0C0182F10530E946F3C81348D
:107A400008F0A0C030EDF32EF80E0E946F3C813498
:107A500008F078C08053DF2CD29490EFD922D82A36
:107A6000FB2CF29480EFF8220295007FFC28FE0C9C
:107A7000102BF10EFD0CEE2061F110E01EC0082F5E
:107A800000530E946F3C813410F58053202F2295C3
:107A9000207F282B8091000190E0FC01E95FFE4FE0
:107AA0002083019680930001809101018F5F809374
:107AB0000101F20E1F5F1E1560F40E946F3C8134BD
:107AC000F0F2082F07530E946F3C8134F0F2875385
:107AD000DDCF0E946F3C813448F5082F00530E948F
:107AE0006F3C813400F5182F10530295007F0E94DF
:107AF0006F3C0E946F3C102B1F0D09F04AC081E0C3
:107B0000D81609F449C080910101813808F45DCF8D
:107B100020E030E0C9011F910F91FF90EF90DF90BE
:107B2000CF90BF900895182F1753DFCF082F07531A
:107B3000D6CF182F17530E946F3C813408F459CFC9
:107B4000875358CF875387CF69ECB62EB80E0E9463
:107B50006F3C813408F460CF49ECC42EC80E0E94FB
:107B60006F3C813408F460CF082F07530E946F3CAC
:107B7000813408F460CF182F17530E946F3C813472
:107B800008F460CF29ECF22EF80E5FCF22E030E04F
:107B9000C1CF23E030E0BECF2091010127FD13C00B
:107BA000309100014FEF832F90E0FC01E95FFE4F21
:107BB000408301969070382F2F5F27FFF4CF2093DA
:107BC00001018093000121E030E0A4CFCF93DF9347
:107BD000F8940E945E3CF999FECF8BEF93E00E94EF
:107BE000263E8F3FF1F07894E0910501F091060177
:107BF000099580E090E0DF91CF9108950E94DE3CEE
:107C0000EC01823091053CF40E947E3C2097B1F358
:107C1000C130D10599F085E40E94763C8C2F0E94FA
:107C2000763C82E40E94763C8CE40E94763C0E9482
:107C30006F3C8135C1F28035A1F7E0CFF999FECFD5
:107C40008BEF93E060E00E942E3ECDCFF999FECFFE
:107C500092BD81BDF89A992780B50895262FF9998C
:107C6000FECF1FBA92BD81BD20BD0FB6F894FA9A1F
:0C7C7000F99A0FBE01960895F894FFCF1A
:040000030000780081
:00000001FF
