:100000000C947D000C94AC000C94AC000C94AC00EF
:100010000C94B51B0C94AC000C94AC000C94AC008C
:100020000C94AC000C94AC000C94AC000C94AC00A0
:100030000C94AC000C9496240C94AC000C94AC0082
:100040000C94AC000C94AC000C94AC000C94AC0080
:100050000C9416080C94AC000C94AC000C94AC00FE
:100060000C94AC000C94AC000C94AC000C94AC0060
:100070000C9458140C94AC000C94AC002424240070
:100080002D2D2D0D002424240053552C0053432CDA
:10009000313130310D0053532C53657269616C500E
:1000A0006F72740D0053492C303033300D00534AB9
:1000B0002C303033300D00534E2C50494E506F6968
:1000C0006E7434002D2D2D0D0024504D544B3331C2
:1000D000342C302C302C302C352C302C302C302C37
:1000E000302C302C302C302C302C302C302C302C30
:1000F000302C302A32440D0A000011241FBECFEFED
:10010000D8E0DEBFCDBF84E590E0FC018081809324
:100110007D0384E590E0FC01108288E10FB6F8943D
:1001200080936000109260000FBE12E0A0E0B1E08A
:10013000EEECFFE702C005900D92AC34B107D9F7A1
:1001400013E0ACE4B2E001C01D92AD37B107E1F7B6
:100150000E94C4180C94E53F0C940000DF93CF93E9
:1001600000D0CDB7DEB789836A8380E00E94950115
:100170008981882F90E081309105C1F0823091050E
:1001800041F10097C9F58CE790E02CE730E0F901E8
:1001900020812064FC0120838CE790E02CE730E094
:1001A000F90120812F77FC01208326C08CE790E0A5
:1001B0002CE730E0F90120812F7BFC0120838CE7C4
:1001C00090E02CE730E0F90120812068FC012083D9
:1001D00013C08CE790E02CE730E0F9012081206427
:1001E000FC0120838CE790E02CE730E0F9012081CE
:1001F0002068FC01208300008CE790E02CE730E0D1
:10020000F90120812062FC0120838AE790E02AE73F
:1002100030E0F90120812160FC0120838AE790E031
:100220002AE730E0F90120812260FC0120838AE77F
:1002300090E02AE730E0F90120812460FC0120836E
:100240008A8180934C0281E00E9495010F900F906B
:10025000CF91DF910895DF93CF9300D000D00F921C
:10026000CDB7DEB78D838CE790E02CE730E0F90165
:100270002081207EFC0120838CE790E02CE730E099
:10028000F90130812D81232BFC0120838AE790E046
:100290002AE730E0F90120812064FC01208300007E
:1002A0008AE790E0FC018081882F90E08074907054
:1002B000082E892F000C881F990B000C881F991F8E
:1002C000009771F788E790E0FC018081882F90E02B
:1002D0009A83898389E790E0FC018081882F90E0F0
:1002E0009C838B8380914C02882319F48B819C81A1
:1002F00014C08B819C819C01220F331F220F331F5E
:1003000089819A810024880F991F001C880F991FEA
:10031000001C892F902D820F931F0F900F900F902C
:100320000F900F90CF91DF910895DF93CF930F92AD
:10033000CDB7DEB789838981813051F48AE790E0B7
:100340002AE730E0F90120812068FC01208309C000
:100350008AE790E02AE730E0F90120812F77FC015D
:1003600020830F90CF91DF910895DF93CF9300D03A
:1003700000D000D0CDB7DEB78AE289831A8286EA40
:100380009E012F5F3F4FB90142E050E00E94A72736
:100390008CE289838EE08A8386EA9E012F5F3F4F3D
:1003A000B90142E050E00E94A7278DE2898388E0EE
:1003B0008A8386EA9E012F5F3F4FB90142E050E0F9
:1003C0000E94A7278EE289831A8286EA9E012F5F08
:1003D0003F4FB90142E050E00E94A72781E38983A3
:1003E00082E08A8386EA9E012F5F3F4FB90142E097
:1003F00050E00E94A72788E389838FE08A8386EAFA
:100400009E012F5F3F4FB90142E050E00E94A727B5
:100410008FE189831A821B821C8286EA9E012F5FEC
:100420003F4FB90144E050E00E94A72788E190E0E7
:100430000E94DC0F8D8387E190E00E94DC0F8E83A9
:10044000CE010596FC018081918190934E028093AC
:100450004D028AE190E00E94DC0F8D8389E190E0FB
:100460000E94DC0F8E83CE010596FC018081918174
:100470009093500280934F028CE190E00E94DC0F39
:100480008D838BE190E00E94DC0F8E83CE01059678
:10049000FC018081918190935202809351022696B3
:1004A0000FB6F894DEBF0FBECDBFCF91DF91089598
:1004B000DF93CF93CDB7DEB72F970FB6F894DEBF9B
:1004C0000FBECDBF1C821B821E821D8218861F821A
:1004D00082E38F871A8219823AC09E01215F3F4FC3
:1004E00086EAB90141E050E00E94A7279E01275FFC
:1004F0003F4F86EAB90146E050E00E940728CE014E
:100500000996FC01808191812B813C81820F931F90
:100510009C838B83CE0109960296FC018081918198
:100520002D813E81820F931F9E838D83CE0109967C
:100530000496FC01808191812F813885820F931F61
:1005400098878F8389819A8101969A83898389818B
:100550009A818A3091050CF28B819C812AE030E0EF
:10056000B9010E94223F9B01C901909581959F4F3F
:1005700090934E0280934D028D819E812AE030E05F
:10058000B9010E94223F9B01C901909581959F4F1F
:100590009093500280934F028F8198852AE030E03B
:1005A000B9010E94223F9B01C90120E430E0A9016A
:1005B000481B590BCA0190935202809351028DE45B
:1005C00092E0FC01208188E190E0622F0E94B60F4A
:1005D0008DE492E00196FC01208187E190E0622F9A
:1005E0000E94B60F8FE492E0FC0120818AE190E046
:1005F000622F0E94B60F8FE492E00196FC012081E9
:1006000089E190E0622F0E94B60F81E592E0FC0143
:1006100020818CE190E0622F0E94B60F81E592E08C
:100620000196FC0120818BE190E0622F0E94B60FC1
:100630002F960FB6F894DEBF0FBECDBFCF91DF91DE
:100640000895DF93CF93CDB7DEB72D970FB6F8940B
:10065000DEBF0FBECDBF998788877B876A875D879E
:100660004C8782E3898386EA9E012F5F3F4FB90161
:1006700041E050E00E94A7279E012E5F3F4F86EA8F
:10068000B90146E050E00E9407288A81282F30E017
:100690008B81882F90E0982F8827280F391F809111
:1006A0004D0290914E02280F391F88859985FC01D3
:1006B000318320838C81282F30E08D81882F90E03A
:1006C000982F8827280F391F80914F029091500250
:1006D000280F391F8A859B85FC01318320838E81F9
:1006E000282F30E08F81882F90E0982F8827280FBF
:1006F000391F8091510290915202280F391F8C8529
:100700009D85FC01318320832D960FB6F894DEBFC2
:100710000FBECDBFCF91DF910895DF93CF930F929E
:10072000CDB7DEB78AEA89838EEE9E012F5F3F4FF9
:10073000B90141E050E00E94A72723E532E08EEEA8
:10074000B90142E050E00E94072890915302809145
:10075000540289278093530290915402809153024E
:1007600089278093540290915302809154028927E3
:100770008093530225E532E08EEEB90142E050E06D
:100780000E940728909155028091560289278093F4
:100790005502909156028091550289278093560206
:1007A000909155028091560289278093550227E542
:1007B00032E08EEEB90142E050E00E9407289091AD
:1007C00057028091580289278093570290915802CE
:1007D0008091570289278093580290915702809107
:1007E000580289278093570229E532E08EEEB9013D
:1007F00042E050E00E9407289091590280915A02ED
:1008000089278093590290915A0280915902892731
:1008100080935A029091590280915A0289278093BD
:1008200059022BE532E08EEEB90142E050E00E9421
:10083000072890915B0280915C02892780935B027C
:1008400090915C0280915B02892780935C02909179
:100850005B0280915C02892780935B022DE532E088
:100860008EEEB90142E050E00E94072890915D02AF
:1008700080915E02892780935D0290915E02809153
:100880005D02892780935E0290915D0280915E02F5
:10089000892780935D022FE532E08EEEB90142E0B8
:1008A00050E00E94072890915F02809160028927A2
:1008B00080935F029091600280915F02892780930C
:1008C000600290915F0280916002892780935F02AD
:1008D00021E632E08EEEB90142E050E00E940728A6
:1008E00090916102809162028927809361029091C8
:1008F0006202809161028927809362029091610275
:100900008091620289278093610223E632E08EEEB5
:10091000B90142E050E00E94072890916302809163
:10092000640289278093630290916402809163023C
:1009300089278093640290916302809164028927E1
:100940008093630225E632E08EEEB90142E050E08A
:100950000E94072890916502809166028927809302
:1009600065029091660280916502892780936602F4
:10097000909165028091660289278093650227E63F
:1009800032E08EEEB90142E050E00E9407289091DB
:1009900067028091680289278093670290916802BC
:1009A0008091670289278093680290916702809105
:1009B00068028927809367020F90CF91DF91089595
:1009C000DF93CF9300D0CDB7DEB784EF89838EE27B
:1009D0008A838EEE9E012F5F3F4FB90142E050E0C7
:1009E0000E94A7270F900F90CF91DF910895DF937A
:1009F000CF9300D0CDB7DEB784EF898384E38A83B9
:100A00008EEE9E012F5F3F4FB90142E050E00E9401
:100A1000A7270F900F90CF91DF910895EF92FF924B
:100A20000F931F93DF93CF93CDB7DEB72F970FB6FA
:100A3000F894DEBF0FBECDBF86EF8F879E01215F8A
:100A40003F4F8EEEB90141E050E00E94A7279E0182
:100A5000235F3F4F8EEEB90142E050E00E9407282D
:100A60008D85882F90E0A0E0B0E02227382F492F15
:100A70005A2F8E85882F90E0A0E0B0E0820F931F60
:100A8000A41FB51F89839A83AB83BC838DE592E055
:100A9000FC0180819181CC01A0E0B0E029813A8104
:100AA0004B815C8179018A01E81AF90A0A0B1B0B58
:100AB000D801C7012BE532E0F9012081318199018C
:100AC00040E050E0BC01CD010E94E33EDC01CB01DF
:100AD00020E030E840E050E0BC01CD010E94573FEB
:100AE0002D833E834F83588785E692E0FC01808109
:100AF0009181AA2797FDA095BA2F072E7BE0880F3A
:100B0000991FAA1FBB1F7A95D1F7702D27E632E0F7
:100B1000F9012081318179010027F7FC0095102F20
:100B20002D813E814F8158852E0D3F1D401F511F45
:100B3000BC01CD010E94573F29873A874B875C87CC
:100B40002D813E814F81588589859A85AB85BC85ED
:100B5000820F931FA41FB51F8093690290936A02AE
:100B6000A0936B02B0936C028091690290916A022B
:100B7000A0916B02B0916C020896A11DB11D20E1FD
:100B800030E040E050E0BC01CD010E94573FDA0167
:100B9000C9012F960FB6F894DEBF0FBECDBFCF911F
:100BA000DF911F910F91FF90EF900895EF92FF92C8
:100BB0000F931F93DF93CF93CDB7DEB7A7970FB6F1
:100BC000F894DEBF0FBECDBF86EF8FA39E01295DD7
:100BD0003F4F8EEEB90141E050E00E94A7279E01F1
:100BE0002B5D3F4F8EEEB90142E050E00E94072896
:100BF0008DA1882F90E0A0E0B0E02227382F492F68
:100C00005A2F8EA1882F90E0A0E0B0E0820F931FB2
:100C1000A41FB51F89839A83AB83BC83809169022B
:100C200090916A02A0916B02B0916C02805A9F4031
:100C3000A040B0408D839E83AF83B88781E692E069
:100C4000FC01808191817C010027F7FC0095102F29
:100C50008D819E81AF81B8852D813E814F815885E0
:100C6000BC01CD010E94E33EDC01CB0120E030E17C
:100C700040E050E0BC01CD010E94573FC801B701E0
:100C80000E94E33EDC01CB0120E038E040E050E090
:100C9000BC01CD010E94573F29873A874B875C876B
:100CA00085E592E0FC0180819181AA2797FDA095BE
:100CB000BA2F2D813E814F815885BC01CD010E9404
:100CC000E33EDC01CB0120E038E040E050E0BC0135
:100CD000CD010E94573F2D873E874F87588B29852E
:100CE0003A854B855C858D859E85AF85B889820F59
:100CF000931FA41FB51F898B9A8BAB8BBC8B83E58D
:100D000092E0FC0180819181AA2797FDA095BA2FDE
:100D10009C01AD01220F331F441F551F220F331FAB
:100D2000441F551F89899A89AB89BC89820F931FFB
:100D3000A41FB51F0296A11DB11D24E030E040E0C4
:100D400050E0BC01CD010E94573F2D8B3E8B4F8B55
:100D5000588F87E592E0FC0180819181AA2797FD59
:100D6000A095BA2F2D813E814F815885BC01CD01C0
:100D70000E94E33EDC01CB0120E030E240E050E0A5
:100D8000BC01CD010E94573F29873A874B875C877A
:100D90008FE592E0FC01808191817C010027F7FCC6
:100DA0000095102F8D819E81AF81B8852D813E8168
:100DB0004F815885BC01CD010E94E33EDC01CB018F
:100DC00020E030E140E050E0BC01CD010E94573FFF
:100DD000C801B7010E94E33EDC01CB0120E030E016
:100DE00041E050E0BC01CD010E94573F2D873E8776
:100DF0004F87588B29853A854B855C858D859E85E7
:100E0000AF85B889820F931FA41FB51F0296A11D3D
:100E1000B11D24E030E040E050E0BC01CD010E9473
:100E2000573F298B3A8B4B8B5C8B89E592E0FC0119
:100E300080819181CC01A0E0B0E029893A894B8979
:100E40005C89205030484F4F5F4FBC01CD010E945C
:100E5000E33EDC01CB01072E7FE0B695A795979581
:100E600087957A95D1F7702D898F9A8FAB8FBC8F2C
:100E700029813A814B815C818D899E89AF89B88DAA
:100E800079018A01E81AF90A0A0B1B0BD801C7017C
:100E900020E533EC40E050E0BC01CD010E94E33E90
:100EA000DC01CB018D8F9E8FAF8FB8A38D8D9E8D72
:100EB000AF8DB8A1BB239CF08D8D9E8DAF8DB8A159
:100EC000880F991FAA1FBB1F298D3A8D4B8D5C8DF2
:100ED000BC01CD010E94353FDA01C90112C08D8DE0
:100EE0009E8DAF8DB8A1298D3A8D4B8D5C8DBC0147
:100EF000CD010E94353FDA01C901880F991FAA1F51
:100F0000BB1F89A39AA3ABA3BCA389A19AA1ABA140
:100F1000BCA120E031E040E050E0BC01CD010E94E6
:100F2000573F79018A0189A19AA1ABA1BCA120E018
:100F300031E040E050E0BC01CD010E94573FC801C4
:100F4000B7010E94E33EDC01CB0189879A87AB871A
:100F5000BC8789859A85AB85BC852EED3BE040E05A
:100F600050E0BC01CD010E94E33EDC01CB0120E05A
:100F700030E041E050E0BC01CD010E94573F29879D
:100F80003A874B875C8789A19AA1ABA1BCA123E4D6
:100F900033EE4FEF5FEFBC01CD010E94E33EDC0179
:100FA000CB0120E030E041E050E0BC01CD010E94E7
:100FB000573F2D873E874F87588B29853A854B852C
:100FC0005C858D859E85AF85B889820F931FA41F90
:100FD000B51F8153914FAF4FBF4F20E130E040E04C
:100FE00050E0BC01CD010E94573FDA01C90129A19F
:100FF0003AA14BA15CA1820F931FA41FB51F89A327
:101000009AA3ABA3BCA389A19AA1ABA1BCA1BC012B
:10101000CD01A7960FB6F894DEBF0FBECDBFCF911E
:10102000DF911F910F91FF90EF9008951F920F9203
:101030000FB60F9211242F933F934F935F936F93AB
:101040007F938F939F93AF93BF93EF93FF93DF9320
:10105000CF93CDB7DEB78091810290918202843127
:1010600091059CF4809181029091820226EC30E0FF
:10107000F90140819C0123593D4FF90140830196BC
:10108000909382028093810206C086EC90E0FC017E
:101090008081809380020E94CD25CF91DF91FF91C6
:1010A000EF91BF91AF919F918F917F916F915F91E0
:1010B0004F913F912F910F900FBE0F901F90189559
:1010C000DF93CF9300D0CDB7DEB78EE190E00E94E2
:1010D000DC0F8F3F39F48EE190E060E00E94B60FA4
:1010E0000E949D080E94FB09982F81E08927882390
:1010F00039F081E044E050E060E070E00E94822836
:101100001A8219820CC089819A8183599D4F23EAE2
:10111000FC01208389819A8101969A838983898140
:101120009A81843191057CF381E061E00E94F22B89
:101130000F900F90CF91DF9108958F929F92AF9271
:10114000BF92CF92DF92EF92FF920F931F93DF93A4
:10115000CF93CDB7DEB728970FB6F894DEBF0FBE9A
:10116000CDBF8DE190E00E94DC0F882F90E08E30A3
:101170009105D9F08F3091053CF48430910559F0F8
:101180008930910569F020C08D31910599F08B333C
:101190009105A9F019C081E38F8381E388871EC080
:1011A00085E38F8387E3888719C083E38F8388E390
:1011B000888714C081E38F8389E388870FC089E320
:1011C0008F8386E388870AC081E38F8381E38887E2
:1011D0008DE190E064E00E94B60F00001B821C824B
:1011E0001D821E828CEF93E00E94DC0F882F90E01E
:1011F000A0E0B0E0B82FAA27992788272B813C814F
:101200004D815E81820F931FA41FB51F8B839C832A
:10121000AD83BE838DEF93E00E94DC0F882F90E0BA
:10122000A0E0B0E0DC01992788272B813C814D812B
:101230005E81820F931FA41FB51F8B839C83AD8398
:10124000BE838EEF93E00E94DC0F882F90E0A0E039
:10125000B0E0BA2FA92F982F88272B813C814D8190
:101260005E81820F931FA41FB51F8B839C83AD8368
:10127000BE838FEF93E00E94DC0F882F90E0A0E008
:10128000B0E02B813C814D815E81820F931FA41FB2
:10129000B51F8B839C83AD83BE8388EE93E00E9451
:1012A00002261A8219828EC089819A8180509F4FAE
:1012B000FC018081282F30E040E050E081E0BA015D
:1012C000A9010E94822888EE93E00E94022625E868
:1012D00030E081E0B9010E94592984E690E00E9443
:1012E000022629E830E081E0B9010E9459299F8156
:1012F00081E0692F0E94F228988581E0692F0E9481
:10130000F22881E06DE00E94F22884E690E00E94DD
:1013100002262DE830E081E0B9010E94592984E6D7
:1013200090E00E94022626E930E081E0B9010E94A7
:10133000592984E690E00E94022625EA30E081E007
:10134000B9010E94592984E690E00E9402262EEA03
:1013500030E081E0B9010E94592984E690E00E94C2
:10136000022627EB30E081E0B9010E9459298B81E8
:101370009C81AD81BE814C015D01CC24DD247601D0
:1013800081E0082D192D2A2D3B2D4C2D5D2D6E2D24
:101390007F2D0E94912981E06DE00E94F22884E671
:1013A00090E00E94022624EC30E081E0B9010E9426
:1013B000592984E690E00E94022689819A8101964B
:1013C0009A83898389819A81853091050CF46CCF49
:1013D00028960FB6F894DEBF0FBECDBFCF91DF9138
:1013E0001F910F91FF90EF90DF90CF90BF90AF9043
:1013F0009F908F900895DF93CF930F92CDB7DEB774
:10140000789419828DE190E00E94DC0F282F30E063
:1014100040E050E081E0BA01A9010E94822881E009
:1014200061E00E94F22B84EF91E00E9402262CE7FB
:1014300030E081E0B9010E94592984E690E00E94E1
:10144000022680916D02833481F480916E028D3486
:1014500061F480916F02843441F420E830E081E04F
:10146000B9010E94592981E08983F89481E060E004
:101470000E94F22B109282021092810289810F90B9
:10148000CF91DF9108950F931F93DF93CF93CDB743
:10149000DEB729970FB6F894DEBF0FBECDBF8C0123
:1014A00029E0CE010196FC01322F11923A95E9F71D
:1014B000F8948091810290918202843191056CF0C0
:1014C00084E190E0909382028093810281E089839D
:1014D00084E190E00E94DE0B55C180916D02882F5F
:1014E00090E08630910509F4BDC087309105BCF4C9
:1014F0008330910509F465C0843091053CF4813056
:101500009105B9F182309105D9F125C18430910559
:1015100009F47BC08530910509F48CC01CC1893069
:10152000910509F4D1C08A3091054CF487309105BA
:1015300009F49FC08830910509F4A2C00CC18A301B
:10154000910509F4E5C0833A910509F004C1809141
:10155000810290918202009711F4198213C182E0F6
:10156000898380916D028A8381E090E00E94DE0B86
:1015700009C183E0898381E090E00E94DE0B02C113
:101580008091810290918202873091050CF4EDC028
:1015900084E0898380916E028A8380916F028B83BD
:1015A000809170028C83809171028D838091720290
:1015B0008E83809173028F8387E090E00E94DE0B20
:1015C000E1C08091810290918202883091050CF4F3
:1015D000CEC086E0898380916E028A8380916F02FB
:1015E0008B83809170028C83809171028D838091B6
:1015F00072028E83809173028F8380917402888738
:1016000088E090E00E94DE0BBDC080918102909145
:101610008202833091050CF4ACC085E0898380910F
:101620006E028A8380916F028B8383E090E00E9438
:10163000DE0BA8C0809181029091820284309105D6
:101640000CF499C087E0898380916E028A8380912F
:101650006F028B83809170028C8384E090E00E9403
:10166000DE0B90C088E0898381E090E00E94DE0B71
:1016700089C089E0898381E090E00E94DE0B82C00E
:101680008091810290918202883091050CF475C09E
:101690008AE0898380916E028A8380916F028B83B6
:1016A000809170028C83809171028D83809172028F
:1016B0008E83809173028F8380917402888788E083
:1016C00090E00E94DE0B5EC08091810290918202C8
:1016D000883091050CF453C08BE0898380916E02B1
:1016E0008A8380916F028B83809170028C838091BA
:1016F00071028D83809172028E83809173028F8339
:1017000080917402888788E090E00E94DE0B3AC0E6
:1017100080918102909182028830910594F18CE051
:10172000898380916E028A8380916F028B8380917E
:1017300070028C83809171028D83809172028E83FE
:10174000809173028F8380917402888788E090E093
:101750000E94DE0B17C082E0898380916D028A832C
:1017600081E090E00E94DE0B0DC000000BC0000085
:1017700009C0000007C0000005C0000003C0000051
:1017800001C000007894C8019E012F5F3F4F49E0DF
:10179000F90100802F5F3F4FFC010082019641500C
:1017A0004423B1F7C80129960FB6F894DEBF0FBEE7
:1017B000CDBFCF91DF911F910F910895DF93CF930C
:1017C00000D000D000D0CDB7DEB79E838D838D8151
:1017D0009E819A8389831C821B8216C089819A818B
:1017E00083599D4FFC0120818B819C8183599D4FA2
:1017F000FC01208389819A8101969A8389838B8158
:101800009C8101969C838B8389819A818431910587
:101810002CF30CC08B819C8183599D4F23EAFC01E2
:1018200020838B819C8101969C838B838B819C81FF
:10183000843191057CF320918102309182028D8167
:101840009E81A901481B590BCA0190938202809383
:10185000810226960FB6F894DEBF0FBECDBFCF91A2
:10186000DF910895DF93CF93CDB7DEB7A1970FB681
:10187000F894DEBF0FBECDBF99A388A3CE01089612
:101880000E94430A81E089838885882F90E0863012
:10189000910509F49CC08730910584F4823091054C
:1018A00009F4B3C1833091050CF4B1C184309105C2
:1018B000B9F1853091050CF0A9C01DC089309105A2
:1018C00009F4E7C08A3091054CF48730910509F49A
:1018D000B7C08830910509F4CEC09CC18B3091050A
:1018E00009F431C18B3091050CF4FAC08C309105AC
:1018F00009F456C18FC188A199A1FC01108288A169
:1019000099A1FC01118281E062E00E94F22881E04D
:1019100066E00E94F22881E065E00E94F2287AC128
:101920008985882F90E0A0E0B0E0AC013327222722
:101930008A85882F90E0A0E0B0E0BA2FA92F982FD9
:101940008827280F391F4A1F5B1F8B85882F90E03F
:10195000A0E0B0E0820F931FA41FB51F898B9A8B64
:10196000AB8BBC8B8C85882F90E0A0E0B0E0AC0105
:10197000332722278D85882F90E0A0E0B0E0BA2F92
:10198000A92F982F8827280F391F4A1F5B1F8E8584
:10199000882F90E0A0E0B0E0820F931FA41FB51F36
:1019A0008C839D83AE83BF8388A199A1FC011082A3
:1019B00088A199A1FC011182CE0141962C813D8123
:1019C0004E815F81BA01A9010E94882323C188A1A9
:1019D00099A1FC01108288A199A1FC01118289853D
:1019E0008D8B8A858E8B8B858F8B8C85888F8D8553
:1019F000898F8E858A8F8F858B8FCE0145960E9429
:101A00000D1B81E066E00E94F22804C188A199A123
:101A1000FC01108288A199A1FC0111828985882F7F
:101A200090E0382F22278A85882F90E0820F931F1D
:101A30000E94DC0F982F81E0692F0E94F228EAC0F3
:101A400088A199A1FC01108288A199A1FC011182B1
:101A50008985882F90E0382F22278A85882F90E06B
:101A6000820F931F2B85622F0E94B60F81E06AE0E0
:101A70000E94F228CFC088A199A1FC01108288A100
:101A800099A121E0FC01218381E06CE00E94F22811
:101A9000C1C00E949D10DC01CB018C8F9D8FAE8F49
:101AA000BF8FCE014C960296FC01908181E0692F98
:101AB0000E94F228CE014C960196FC01908181E0B3
:101AC000692F0E94F228CE014C96FC01908181E0A2
:101AD000692F0E94F22881E060E20E94F2289AC0F9
:101AE0001B821A821BC09E01275F3F4F8A819B8108
:101AF000820F931FFC01408120910D0130910E0156
:101B00008A819B81820F931FFC018081481709F015
:101B100019828A819B8101969B838A838A819B811A
:101B20008830910504F38981882309F472C088E123
:101B300090E02BE00FB6F894A895809360000FBE5C
:101B40002093600067C01B821A821BC09E01275F22
:101B50003F4F8A819B81820F931FFC01408120911E
:101B60000D0130910E018A819B81820F931FFC0130
:101B70008081481709F019828A819B8101969B8395
:101B80008A838A819B818830910504F38981882327
:101B900011F00E94A50F81E062E10E94F2283AC094
:101BA0001B821A821BC09E01275F3F4F8A819B8147
:101BB000820F931FFC01408120910D0130910E0195
:101BC0008A819B81820F931FFC018081481709F055
:101BD00019828A819B8101969B838A838A819B815A
:101BE0008830910504F38981882349F088A199A15F
:101BF00021E0FC01208388A199A1FC01118281E0F0
:101C000064E10E94F228000005C0000003C000004B
:101C100001C00000A1960FB6F894DEBF0FBECDBF85
:101C2000CF91DF910895DF93CF93CDB7DEB70E94B8
:101C3000C9218BEF93E060E00E94B60F0E94570E1F
:101C4000CF91DF910895DF93CF93CDB7DEB780E0DA
:101C500090E063E00E94B60F81E090E068EE0E94A1
:101C6000B60F8CE090E061E00E94B60F8FE090E04C
:101C700061E00E94B60F82E190E061E00E94B60F41
:101C800085E190E061E00E94B60F86E190E065E0BA
:101C90000E94B60F8DE190E064E00E94B60F8EE1E5
:101CA00090E060E00E94B60FCF91DF910895DF933E
:101CB000CF93CDB7DEB7AE970FB6F894DEBF0FBEA9
:101CC000CDBF1A8219820CC089819A81815E9E4F94
:101CD0002FEFFC01208389819A8101969A83898361
:101CE00089819A81803191057CF310928302109250
:101CF000840210928502109286028EEF9FEFA0E080
:101D0000B0E08B839C83AD83BE831F8218861986C7
:101D10001A8694C02B813C814D815E818F8198858C
:101D2000A985BA85820F931FA41FB51FB695A795E5
:101D300097958795880F991FAA1FBB1F880F991F1A
:101D4000AA1FBB1F880F991FAA1FBB1F880F991FAF
:101D5000AA1FBB1F880F991FAA1FBB1F8BA79CA779
:101D6000ADA7BEA7CE018B969E01255F3F4FB9015F
:101D700040E250E00E941F23CE010B962FE031E09D
:101D8000B9010E94F60F882369F12B813C814D81B6
:101D90005E818F819885A985BA85820F931FA41FC4
:101DA000B51FB695A795979587950197A109B10994
:101DB0008B839C83AD83BE832B813C814D815E816F
:101DC0008F819885A985BA85281739074A075B0747
:101DD000A8F58F819885A985BA858B839C83AD836F
:101DE000BE832CC02B813C814D815E818F81988583
:101DF000A985BA85820F931FA41FB51FB695A79515
:101E0000979587950196A11DB11D8F839887A98706
:101E1000BA872F81388549855A858B819C81AD8110
:101E2000BE8182179307A407B50740F48B819C817C
:101E3000AD81BE818F839887A987BA872B813C812A
:101E40004D815E818F819885A985BA8528173907CC
:101E50004A075B0709F05ECF8F819885A985BA850F
:101E6000880F991FAA1FBB1F880F991FAA1FBB1F8E
:101E7000880F991FAA1FBB1F880F991FAA1FBB1F7E
:101E8000880F991FAA1FBB1F80938302909384021F
:101E9000A0938502B09386028F819885A985BA8523
:101EA0008E3FFFEF9F07F0E0AF07F0E0BF0711F4B0
:101EB00080E001C081E0AE960FB6F894DEBF0FBEA1
:101EC000CDBFCF91DF910895DF93CF9300D00F92D4
:101ED000CDB7DEB79B838A83809183029091840281
:101EE000A0918502B09186028096A11DB11D80301F
:101EF00020E0920720E2A20720E0B20710F080E085
:101F00001EC083E892E02A813B81B90140E250E0A3
:101F10000E943E2289838091830290918402A09145
:101F20008502B09186028096A11DB11D8093830227
:101F300090938402A0938502B093860289810F90CA
:101F40000F900F90CF91DF910895DF93CF93CDB78E
:101F5000DEB70E944D2410928302109284021092E8
:101F6000850210928602CF91DF910895DF93CF937F
:101F700000D00F92CDB7DEB79A8389836B838FE34E
:101F800090E0FC018081882F90E082709070009733
:101F9000B1F789819A810E94DC0F982F8B81981765
:101FA00029F089819A816B810E94D73F0F900F9011
:101FB0000F90CF91DF910895DF93CF9300D0CDB7ED
:101FC000DEB79A8389838FE390E0FC018081882FBC
:101FD00090E0827090700097B1F789819A810E9499
:101FE000CF3F0F900F90CF91DF910895DF93CF9364
:101FF00000D000D000D0CDB7DEB79C838B837E832A
:102000006D838B819C81FC01228133818D819E8136
:10201000FC01828193812817390711F080E084C088
:102020008B819C81FC01208131818D819E81FC010D
:10203000808191812817390711F080E075C08B816C
:102040009C81FC01268137818D819E81FC018681E6
:1020500097812817390711F080E066C08B819C8139
:10206000FC01248135818D819E81FC0184819581D3
:102070002817390711F080E057C08B819C81FC0143
:10208000208531858D819E81FC0180859185281771
:10209000390711F080E048C08B819C81FC012285CA
:1020A0003385448555858D819E81FC01828593858C
:1020B000A485B585281739074A075B0711F080E02A
:1020C00033C08B819C81FC01268537858D819E8163
:1020D000FC01868597852817390711F080E024C018
:1020E0001A8219821BC02B813C8189819A81820FBF
:1020F000931F4096FC0140812D813E8189819A8108
:10210000820F931F4096FC018081481711F080E0F8
:102110000BC089819A8101969A83898389819A81EA
:102120008031910504F381E026960FB6F894DEBF66
:102130000FBECDBFCF91DF910895DF93CF93CDB781
:10214000DEB78091830290918402A0918502B091C4
:102150008602BC01CD01CF91DF910895DF93CF932B
:1021600000D000D0CDB7DEB789836A835C834B8310
:102170008981882F90E08130910509F4D5C08230A3
:1021800091051CF4009751F011C38230910509F4B8
:102190008DC18330910509F44BC208C38A81882F11
:1021A00090E081309105D9F1823091051CF40097BF
:1021B00051F0FCC28230910509F45DC08330910575
:1021C00009F485C0F3C281E290E021E230E0F90138
:1021D0002081622F2B81422F50E021E030E002C0AD
:1021E000220F331F4A95E2F720952623FC01208316
:1021F00082E290E022E230E0F9012081622F2B811F
:10220000422F50E021E030E0042E02C0220F331FA5
:102210000A94E2F720952623FC01208384C084E2FF
:1022200090E024E230E0F9012081622F2B81422FDF
:1022300050E021E030E002C0220F331F4A95E2F760
:1022400020952623FC01208385E290E025E230E002
:10225000F9012081622F2B81422F50E021E030E0F4
:10226000042E02C0220F331F0A94E2F72095262382
:10227000FC01208358C087E290E027E230E0F901BA
:102280002081622F2B81422F50E021E030E002C0FC
:10229000220F331F4A95E2F720952623FC01208365
:1022A00088E290E028E230E0F9012081622F2B8162
:1022B000422F50E021E030E0042E02C0220F331FF5
:1022C0000A94E2F720952623FC0120832CC08AE2A1
:1022D00090E02AE230E0F9012081622F2B81422F29
:1022E00050E021E030E002C0220F331F4A95E2F7B0
:1022F00020952623FC0120838BE290E02BE230E046
:10230000F9012081622F2B81422F50E021E030E043
:10231000042E02C0220F331F0A94E2F720952623D1
:10232000FC012083000042C28A81882F90E0813026
:102330009105D1F1823091051CF4009751F036C21D
:102340008230910509F45BC08330910509F482C0A5
:102350002DC281E290E021E230E0F9012081622F7C
:102360002B81422F50E021E030E002C0220F331FCA
:102370004A95E2F720952623FC01208382E290E033
:1023800022E230E0F9012081622F2B81422F50E0C0
:1023900021E030E0042E02C0220F331F0A94E2F73E
:1023A000262BFC01208381C084E290E024E230E00F
:1023B000F9012081622F2B81422F50E021E030E093
:1023C00002C0220F331F4A95E2F720952623FC0115
:1023D000208385E290E025E230E0F9012081622F40
:1023E0002B81422F50E021E030E0042E02C0220F6A
:1023F000331F0A94E2F7262BFC01208356C087E2A4
:1024000090E027E230E0F9012081622F2B81422FFA
:1024100050E021E030E002C0220F331F4A95E2F77E
:1024200020952623FC01208388E290E028E230E01A
:10243000F9012081622F2B81422F50E021E030E012
:10244000042E02C0220F331F0A94E2F7262BFC0150
:1024500020832BC08AE290E02AE230E0F90120815B
:10246000622F2B81422F50E021E030E002C0220F8A
:10247000331F4A95E2F720952623FC0120838BE247
:1024800090E02BE230E0F9012081622F2B81422F76
:1024900050E021E030E0042E02C0220F331F0A94E6
:1024A000E2F7262BFC012083000080C18A81882F5F
:1024B00090E081309105D1F1823091051CF40097B4
:1024C00051F074C18230910509F45BC083309105ED
:1024D00009F482C06BC181E290E021E230E0F901B1
:1024E0002081622F2B81422F50E021E030E002C09A
:1024F000220F331F4A95E2F7262BFC01208382E24C
:1025000090E022E230E0F9012081622F2B81422FFE
:1025100050E021E030E0042E02C0220F331F0A9465
:10252000E2F720952623FC01208381C084E290E01D
:1025300024E230E0F9012081622F2B81422F50E00C
:1025400021E030E002C0220F331F4A95E2F7262B2C
:10255000FC01208385E290E025E230E0F901208152
:10256000622F2B81422F50E021E030E0042E02C088
:10257000220F331F0A94E2F720952623FC012083C3
:1025800056C087E290E027E230E0F9012081622F17
:102590002B81422F50E021E030E002C0220F331F98
:1025A0004A95E2F7262BFC01208388E290E028E29E
:1025B00030E0F9012081622F2B81422F50E021E091
:1025C00030E0042E02C0220F331F0A94E2F7209558
:1025D0002623FC0120832BC08AE290E02AE230E02F
:1025E000F9012081622F2B81422F50E021E030E061
:1025F00002C0220F331F4A95E2F7262BFC012083ED
:102600008BE290E02BE230E0F9012081622F2B81F8
:10261000422F50E021E030E0042E02C0220F331F91
:102620000A94E2F720952623FC0120830000BEC017
:102630008A81882F90E081309105C9F1823091051F
:102640001CF4009751F0B2C08230910509F459C0D2
:102650008330910509F47FC0A9C081E290E021E2B6
:1026600030E0F9012081622F2B81422F50E021E0E0
:1026700030E002C0220F331F4A95E2F7262BFC01FF
:10268000208382E290E022E230E0F9012081622F93
:102690002B81422F50E021E030E0042E02C0220FB7
:1026A000331F0A94E2F7262BFC0120837EC084E2CC
:1026B00090E024E230E0F9012081622F2B81422F4B
:1026C00050E021E030E002C0220F331F4A95E2F7CC
:1026D000262BFC01208385E290E025E230E0F90121
:1026E0002081622F2B81422F50E021E030E0042E28
:1026F00002C0220F331F0A94E2F7262BFC0120832D
:1027000054C087E290E027E230E0F9012081622F97
:102710002B81422F50E021E030E002C0220F331F16
:102720004A95E2F7262BFC01208388E290E028E21C
:1027300030E0F9012081622F2B81422F50E021E00F
:1027400030E0042E02C0220F331F0A94E2F7262B3A
:10275000FC0120832AC08AE290E02AE230E0F901FD
:102760002081622F2B81422F50E021E030E002C017
:10277000220F331F4A95E2F7262BFC0120838BE2C0
:1027800090E02BE230E0F9012081622F2B81422F73
:1027900050E021E030E0042E02C0220F331F0A94E3
:1027A000E2F7262BFC012083000000000F900F9021
:1027B0000F900F90CF91DF910895DF93CF9300D0CA
:1027C0000F92CDB7DEB789837B836A838981882F97
:1027D00090E08130910521F1823091051CF4009741
:1027E00049F060C08230910589F18330910509F488
:1027F00043C058C082E290E022E230E0F90120813B
:10280000622F2A81422F50E021E030E0042E02C0E6
:10281000220F331F0A94E2F72627FC01208342C0CF
:1028200085E290E025E230E0F9012081622F2A81E3
:10283000422F50E021E030E0042E02C0220F331F6F
:102840000A94E2F72627FC0120832CC088E290E05E
:1028500028E230E0F9012081622F2A81422F50E0E6
:1028600021E030E0042E02C0220F331F0A94E2F769
:102870002627FC01208316C08BE290E02BE230E09B
:10288000F9012081622F2A81422F50E021E030E0BF
:10289000042E02C0220F331F0A94E2F72627FC0100
:1028A000208300000F900F900F90CF91DF9108953B
:1028B0001F920F920FB60F9211242F933F934F93B5
:1028C0005F936F937F938F939F93AF93BF93EF9398
:1028D000FF93DF93CF93CDB7DEB780913103909113
:1028E00032038A3591059CF4809131039091320333
:1028F0002EEC30E0F90140819C0129573D4FF90150
:102900004083019690933203809331030DC08091F0
:1029100031039091320301972EEC30E0F9012081D0
:1029200089579D4FFC0120830E94CD25CF91DF91D7
:10293000FF91EF91BF91AF919F918F917F916F9197
:102940005F914F913F912F910F900FBE0F901F906D
:102950001895DF93CF93CDB7DEB780E049E050E024
:1029600060E070E00E94822888EE93E00E940226D8
:1029700089EC90E00E94CF1484E690E00E94022649
:1029800086E190E00E94DC0F8093390380E061E0F3
:102990000E94F22B0E945615CF91DF910895DF938C
:1029A000CF9300D0CDB7DEB79A83898329813A814E
:1029B00080E0B9010E9459290F900F90CF91DF91CB
:1029C0000895DF93CF930F92CDB7DEB7F8940E94AE
:1029D0005615898378948981882329F00E94DC1513
:1029E0008093330304C0109232031092310380911C
:1029F00033038823E1F480E29EE4909330018093D6
:102A00002F01109236031092350380E29EE49093DA
:102A1000320180933101109238031092370380E61F
:102A20009AEE9093340180933301109234030F9007
:102A3000CF91DF910895DF93CF9300D0CDB7DEB76C
:102A40009A83898320912F013091300189819A8165
:102A5000FC01318320832091350330913603898135
:102A60009A81FC013383228320913101309132011C
:102A700089819A81FC013583248320913703309129
:102A8000380389819A81FC013783268320913301A1
:102A90003091340189819A81FC01318720878091AE
:102AA00033030F900F90CF91DF910895DF93CF9371
:102AB00000D000D000D0CDB7DEB71E821D8268C026
:102AC0008D819E8189579D4FFC0180818C3209F058
:102AD0005AC08D819E8101969A8389834AC08981DB
:102AE0009A8189579D4FFC0180818A30E9F589815F
:102AF0009A8184309105C4F189819A81049789571C
:102B00009D4FFC0180818A3279F51C821B8216C0A0
:102B10002B813C818D819E81820F931F0197895764
:102B20009D4FFC0120818B819C818F519D4FFC0129
:102B300020838B819C8101969C838B8389819A81E0
:102B40009C01245030408B819C812817390704F761
:102B50008B819C818F519D4FFC011082109232031A
:102B60001092310381E01FC089819A8101969A8376
:102B70008983809131039091320329813A8128170A
:102B800039070CF4ACCF8D819E8101969E838D8395
:102B900080913103909132032D813E8128173907AE
:102BA0000CF48ECF80E026960FB6F894DEBF0FBEF1
:102BB000CDBFCF91DF910895DF93CF93CDB7DEB72F
:102BC0002C970FB6F894DEBF0FBECDBF1A821982C4
:102BD0001C821B821E821D821C868091E102813430
:102BE00009F051C21A8219823BC289819A818F51A0
:102BF0009D4FFC0180818C3281F48D819E810196F4
:102C00009E838D8389819A8101969A8389838D81A0
:102C10009E818A3091050CF032C28D81882F90E020
:102C20008430910509F4C3C08530910544F48230A5
:102C3000910591F08330910509F491C0F5C1873079
:102C4000910509F45FC18930910509F4A9C1853066
:102C5000910509F42FC1E8C189819A818F519D4F57
:102C6000FC0180818C3219F410923A03DEC11C827F
:102C70001B8218C029813A818B819C81820F931F0E
:102C80008F519D4FFC0140819E01295F3F4F8B81F9
:102C90009C81820F931FFC0140838B819C81019654
:102CA0009C838B838B819C81843091051CF39E01D6
:102CB000295F3F4F8B819C81820F931FFC01108203
:102CC00029813A818B819C81820F931F9A8389830A
:102CD000CE0107960E94A93F9093300180932F0167
:102CE00089819A8101969A8389831C821B8218C0EC
:102CF00029813A818B819C81820F931F8F519D4F37
:102D0000FC0140819E01295F3F4F8B819C81820F96
:102D1000931FFC0140838B819C8101969C838B8354
:102D20008B819C81833091051CF39E01295F3F4F6D
:102D30008B819C81820F931FFC01108229813A8133
:102D40008B819C81820F931F9A838983CE01079682
:102D50000E94A93F909336038093350366C1898111
:102D60009A818F519D4FFC0180818C3219F4109211
:102D70003A035BC189819A818F519D4FFC0180810B
:102D800021E0833509F020E089819A8101969A83B8
:102D90008983222359F080912F01909130019095E1
:102DA00081959F4F9093300180932F013EC189817F
:102DB0009A818F519D4FFC0180818C3219F41092C1
:102DC0003A0333C11C821B8218C029813A818B814E
:102DD0009C81820F931F8F519D4FFC0140819E016A
:102DE000295F3F4F8B819C81820F931FFC014083A1
:102DF0008B819C8101969C838B838B819C81853008
:102E000091051CF39E01295F3F4F8B819C81820FAE
:102E1000931FFC01108229813A818B819C81820F52
:102E2000931F9A838983CE0107960E94A93F9093AE
:102E300032018093310189819A8101969A83898335
:102E40001C821B8218C029813A818B819C81820F50
:102E5000931F8F519D4FFC0140819E01295F3F4F81
:102E60008B819C81820F931FFC0140838B819C810D
:102E700001969C838B838B819C81833091051CF30D
:102E80009E01295F3F4F8B819C81820F931FFC0124
:102E9000108229813A818B819C81820F931F9A83B2
:102EA0008983CE0107960E94A93F909338038093AF
:102EB0003703BBC089819A818F519D4FFC0180816E
:102EC0008C3219F410923A03B0C089819A818F51E3
:102ED0009D4FFC01808121E0873509F020E0898148
:102EE0009A8101969A838983222359F08091310136
:102EF00090913201909581959F4F909332018093EC
:102F0000310193C089819A818F519D4FFC0180814D
:102F10008C3229F410923A031092340386C01C823A
:102F20001B8218C029813A818B819C81820F931F5B
:102F30008F519D4FFC0140819E01295F3F4F8B8146
:102F40009C81820F931FFC0140838B819C810196A1
:102F50009C838B8329813A818B819C81820F931F73
:102F60008F519D4FFC0180818C32E1F69E01295FDB
:102F70003F4F8B819C81820F931FFC011082CE01F9
:102F800007960E94A93F80933403209134039091C7
:102F9000390381E0291708F480E080933A0345C0A3
:102FA00089819A818F519D4FFC0180818C3219F467
:102FB00010923A033AC01C821B8218C029813A81C0
:102FC0008B819C81820F931F8F519D4FFC0140810B
:102FD0009E01295F3F4F8B819C81820F931FFC01D3
:102FE00040838B819C8101969C838B8329813A81CC
:102FF0008B819C81820F931F8F519D4FFC0180819B
:103000008E32E1F69E01295F3F4F8B819C81820FBA
:10301000931FFC011082CE0107960E94A93F909356
:1030200034018093330101C0000005C089819A8179
:1030300001969A83898389819A818F519D4FFC01E2
:1030400080818C3269F089819A818F519D4FFC017A
:1030500080818A3229F089819A818035910534F303
:1030600089819A818F3491055CF489819A818F518D
:103070009D4FFC0180818A3209F0B7CD01C000006C
:1030800080913A0301C080E02C960FB6F894DEBF21
:103090000FBECDBFCF91DF9108958F929F92AF92D7
:1030A000BF92CF92DF92EF92FF920F931F93DF9325
:1030B000CF9300D0CDB7DEB7F8940E94E22C88EE13
:1030C00093E00E9402260E9460088CEC90E0FC01D4
:1030D0008081882E9924AA24BB24CC24DD24760167
:1030E00081E0082D192D2A2D3B2D4C2D5D2D6E2DA7
:1030F0007F2D0E94912981E00E94D21B0E94130E15
:1031000081E00E94192D882371F11A82198215C05D
:1031100082E390E00E94022681E00E94DC2D82E0A2
:103120000E94DC2D83E00E94DC2D84E00E94DC2DD7
:1031300089819A8101969A83898389819A818233D0
:10314000910534F30E9458020E94E0190E94230E58
:1031500088E190E02BE00FB6F894A895809360008A
:103160000FBE20936000789481E00F900F90CF9174
:10317000DF911F910F91FF90EF90DF90CF90BF9064
:10318000AF909F908F9008950F931F93DF93CF93ED
:10319000CDB7DEB7AC970FB6F894DEBF0FBECDBF8C
:1031A0000E944D181C821B8228E0CE010596FC016E
:1031B000322F11923A95E9F71A821982CE010D96B3
:1031C0000E94332180E090E00E94DC0F882F90E085
:1031D000982F882798878F830F81188581E090E04A
:1031E0000E94DC0F882F90E0800F911F98878F83BB
:1031F0008F8198858A30910520F48AE090E0988745
:103200008F83CE0105960E941B2ECE0105960E944B
:10321000320CCE010D960E947E1D8C838B81082F6F
:1032200010E04F815885CE01059604969E012B5FD4
:103230003F4F2A5F3F4FBA01A90120E00E9470264C
:10324000882F90E0802B912B21E0009709F420E05B
:103250002B838C81882399F18B81882381F18D8147
:10326000882341F0CE010D960E94640F882301F55A
:103270001D821EC08E818823D9F01A82198212C045
:103280009E01235F3F4F89819A81820F931FFC012A
:10329000908181E0692F0E94F22889819A810196AC
:1032A0009A83898389819A818032910548F31E82AD
:1032B0001A8619861B82CE010D960E9433210E9428
:1032C00064259FCFDF93CF9300D0CDB7DEB781E0E9
:1032D00089831A8284EB9E012F5F3F4FB90142E040
:1032E00050E00E94A72784E690E00E94022682E038
:1032F000898383EC8A8384EB9E012F5F3F4FB90162
:1033000042E050E00E94A72784EB9E012F5F3F4FD1
:10331000B90141E050E00E94A7279E012E5F3F4F78
:1033200084EBB90141E050E00E9407280F900F9014
:10333000CF91DF910895DF93CF93CDB7DEB7279775
:103340000FB6F894DEBF0FBECDBF9D838C837F8305
:103350006E8383E0898384EB9E012F5F3F4FB90129
:1033600041E050E00E94A7279E012E5F3F4F84EB73
:10337000B90142E050E00E9407288A81282F229557
:103380002F708C819D81FC0120838A81882F90E0A1
:1033900082959295907F9827807F9827982F8B8190
:1033A0008F70292F280F8E819F81FC012083279603
:1033B0000FB6F894DEBF0FBECDBFCF91DF91089559
:1033C000DF93CF9300D000D0CDB7DEB787E08983FD
:1033D00080E88A831B821C8280ED9E012F5F3F4F15
:1033E000B90144E050E00E94A7270F900F900F9082
:1033F0000F90CF91DF910895DF93CF93CDB7DEB7D4
:103400002A970FB6F894DEBF0FBECDBF9A87898783
:1034100018869E01285F3F4F80EDB90141E050E0E2
:103420000E94A72780ED9E012F5F3F4FB90147E023
:1034300050E00E9407288981282F2F708981882FCA
:1034400090E080779070959587959595879595955F
:10345000879595958795880F982F990F990F890FC4
:10346000820F282F2F7389859A85322F3F703295CE
:10347000307FFC01438D4F70342BFC01338F22953C
:103480002F7023702370FC01348D3C7F232BFC01B3
:10349000248F8A81282F2F708A81882F90E080774F
:1034A0009070959587959595879595958795959520
:1034B0008795880F982F990F990F890F820F282FC2
:1034C0002F7389859A85220F220FFC01348D33706A
:1034D000232BFC01248F8B81282F2F708B81882F29
:1034E00090E08073907095958795959587959595C3
:1034F000879595958795880F982F990F990F890F24
:10350000820F282F2F7189859A852F71FC01358DA7
:10351000307E232BFC01258F8C818770282F27700C
:10352000277089859A852295220F207EFC01358D92
:103530003F71232BFC01258F8D81282F2F708D81CA
:10354000882F90E0807390709595879595958795D5
:103550009595879595958795880F982F990F990F31
:10356000890F820F282F2F7189859A852F71FC0171
:10357000368D307E232BFC01268F8E81282F2F70D5
:103580008E81882F90E080719070959587959595A4
:1035900087959595879595958795880F982F990F7D
:1035A000990F890F820F282F2F7089859A85322FC6
:1035B00037703295330F307EFC01468D4F71342BBE
:1035C000FC01368F26952695269521702170FC01E9
:1035D000378D3E7F232BFC01278F8F81982F9F7083
:1035E0008F8182958F70880F282F220F220F820FD4
:1035F000890F282F2F7789859A85220FFC01378D17
:103600003170232BFC01278F2A960FB6F894DEBF6A
:103610000FBECDBFCF91DF910895DF93CF93CDB78C
:10362000DEB72A970FB6F894DEBF0FBECDBF9A87DC
:103630008987198289859A85FC0180819AE0692FA2
:103640000E94023F892F282F89859A85FC0180815D
:103650009AE0692F0E94023F8295807F820F8A83C1
:1036600089859A85FC0181819AE0692F0E94023F39
:10367000892F282F89859A85FC0181819AE0692FFD
:103680000E94023F8295807F820F8B8389859A8575
:10369000FC0182819AE0692F0E94023F892F282F26
:1036A00089859A85FC0182819AE0692F0E94023FF8
:1036B0008295807F820F8C8389859A85FC01838126
:1036C0008D8389859A85FC0184819AE0692F0E9407
:1036D000023F892F282F89859A85FC0184819AE0F1
:1036E000692F0E94023F8295807F820F8E83898599
:1036F0009A85FC0185819AE0692F0E94023F892FFB
:10370000282F89859A85FC0185819AE0692F0E947E
:10371000023F8295807F820F8F8389859A85FC0185
:1037200086819AE0692F0E94023F892F282F898580
:103730009A85FC0186819AE0692F0E94023F82955A
:10374000807F820F888780ED9E012F5F3F4FB901F8
:1037500048E050E00E94A7272A960FB6F894DEBFF3
:103760000FBECDBFCF91DF9108951F920F920FB67C
:103770000F9211248F939F93DF93CF93CDB7DEB732
:103780008091640390916503019690936503809303
:103790006403CF91DF919F918F910F900FBE0F9097
:1037A0001F901895DF93CF9300D00F92CDB7DEB75F
:1037B0008B8380E061E00E94AE000E9405250E949C
:1037C00072270E948D030E94B5010E9462198B81AD
:1037D000882311F00E94A91480E090E00E94DC0F81
:1037E000882F90E0982F88279A83898381E090E042
:1037F0000E94DC0F882F90E029813A81820F931F6D
:103800009A8389838CE090E00E94DC0F80935F03B1
:103810008FE090E00E94DC0F8093600382E190E0F3
:103820000E94DC0F8093610385E190E00E94DC0F31
:103830008093620386E190E00E94DC0F982F81E084
:10384000992309F480E08093680321E089819A81BB
:103850008931910508F420E02093690389819A81D8
:103860008A30910520F48AE090E09A83898321E2EE
:1038700030E082E290E0FC011082FC018081F901DD
:10388000808382E062E045E050E00E94AE1082E07A
:1038900062E044E050E00E94AE10F89489E690E0C7
:1038A00029E630E0F90120812E7FFC01208389E6A2
:1038B00090E029E630E0F90120812D7FFC01208392
:1038C0008BE690E02BE630E0F90120812F7BFC01B4
:1038D000208388E690E0FC011082109263038091BF
:1038E0005F03882371F589E690E029E630E0F9016D
:1038F00020812160FC01208389E690E029E630E008
:10390000F90120812260FC0120838BE690E02BE608
:1039100030E0F90120812064FC01208388E690E0FA
:1039200028E630E0F90120812860FC01208383E053
:1039300062E045E050E00E94AE1081E080936303B6
:1039400089C080916003882371F589E690E029E6BB
:1039500030E0F90120812160FC01208389E690E0BC
:1039600029E630E0F90120812260FC0120838BE60A
:1039700090E02BE630E0F90120812064FC012083F7
:1039800088E690E028E630E0F90120812061FC0122
:10399000208383E062E044E050E00E94AE1082E0C9
:1039A0008093630357C080916103882341F589E6C2
:1039B00090E029E630E0F90120812160FC012083BC
:1039C00089E690E029E630E0F90120812260FC01DF
:1039D00020838BE690E02BE630E0F9012081206423
:1039E000FC01208388E690E028E630E0F9012081A0
:1039F0002062FC01208383E0809363032BC08091CD
:103A00006203882339F589E690E029E630E0F90180
:103A100020812160FC01208389E690E029E630E0E6
:103A2000F90120812260FC0120838BE690E02BE6E7
:103A300030E0F90120812064FC01208388E690E0D9
:103A400028E630E0F90120812064FC01208384E035
:103A500080936303789489819A8196958795909352
:103A60003E0380933D0389819A81969587950697B9
:103A7000909344038093430380916303813029F042
:103A800089819A819695879502C089819A819093C0
:103A90004A038093490380916303823029F089812E
:103AA0009A819695879502C089819A819093500357
:103AB00080934F0380916303833029F089819A8139
:103AC0009695879502C089819A8190935603809339
:103AD000550380916303843029F089819A819695FA
:103AE000879502C089819A8190935C0380935B03E0
:103AF0000F900F900F90CF91DF910895DF93CF93A8
:103B0000CDB7DEB72A970FB6F894DEBF0FBECDBF94
:103B10009A87898740913D0350913E038BE393E060
:103B20002FE333E0BA01A90120E00E947026882328
:103B300009F418C1AE014D5F5F4F9E012B5F3F4FEF
:103B4000CE010196BA01A9010E94210389819A81BF
:103B50009C01002436952795079436952795079460
:103B6000322F202D022E232F000C221F330B000C8E
:103B7000221F331F89859A85FC01208B232F2370F8
:103B8000FC0131893C7F232BFC01218B8B819C81A3
:103B90009C01002436952795079436952795079420
:103BA000322F202D022E232F000C221F330B000C4E
:103BB000221F331F89859A85422F4F73440F440F6C
:103BC000FC0151895370452BFC01418B422F4295DA
:103BD0004695469543704370FC0152895C7F452BA6
:103BE000FC01428B232F2370220F220FFC0132890C
:103BF000337F232BFC01228B8D819E819C0100242D
:103C0000369527950794369527950794322F202DC2
:103C1000022E232F000C221F330B000C221F331FF8
:103C200089859A85422F4F704295407FFC015289C9
:103C30005F70452BFC01428B422F42954F704F70B5
:103C4000FC015389507F452BFC01438B232F2370AC
:103C50002295207FFC0133893F7C232BFC01238BA1
:103C6000CE0107969E01285F3F4FB9010E949B1924
:103C70008F81282F2F7089859A85322F3370329546
:103C8000330F330F307CFC0143894F73342BFC011D
:103C9000338B2695269523702370FC0134893C7F55
:103CA000232BFC01248B288589859A85322F3F732D
:103CB000330F330FFC0144894370342BFC01348BE8
:103CC00022952695269523702370FC0135893C7F2B
:103CD000232BFC01258B89859A850E94FC1987E09E
:103CE0000E942B019C01337089859A85422F4F7366
:103CF000440F440FFC0155895370452BFC01458B43
:103D0000422F42954695469543704370FC01568973
:103D10005C7F452BFC01468B232F2370220F220F43
:103D2000FC013689337F232BFC01268B80916803AD
:103D3000882379F089859A850E941B15882329F0AC
:103D400085E061E00E94632D04C085E060E00E9490
:103D5000632D809166039091670381609093670360
:103D60008093660380916903882309F45DC04091C4
:103D700043035091440381E493E025E433E0BA0126
:103D8000A90120E00E947026882309F44DC080918B
:103D90004701882F90E0019623E030E0B9010E94AE
:103DA000223F8093470180914701882F90E0813026
:103DB000910589F08230910511F10097A9F50E94D3
:103DC000E00480914303909144030697909342034B
:103DD0008093410329C00E940E059C0189859A8524
:103DE000FC01378726870E94F70480914303909156
:103DF00044030697909342038093410315C00E94A9
:103E0000D605DC01CB0129853A85F90182879387A4
:103E1000A487B58780916603909167038260909331
:103E200067038093660300004091490350914A0361
:103E300087E493E02BE433E0BA01A90120E00E947B
:103E40007026882309F43CC0809163038130F1F42B
:103E50008091640390916503969587959C013370DA
:103E600089859A85FC01218F232F2370FC01328DD7
:103E70003C7F232BFC01228F809166039091670386
:103E8000846090936703809366031AC083E00E9466
:103E90002B019C01337089859A85FC01218F232F8A
:103EA0002370FC01328D3C7F232BFC01228F8091FB
:103EB0006603909167038460909367038093660321
:103EC00040914F03509150038DE493E021E533E09E
:103ED000BA01A90120E00E947026882309F468C075
:103EE000809163038230A1F5809164039091650312
:103EF000969587959C01337089859A85422F4F73DB
:103F0000440F440FFC01528D5370452BFC01428F2E
:103F1000422F42954695469543704370FC01538D60
:103F20005C7F452BFC01438F232F2370220F220F30
:103F3000FC01338D337F232BFC01238F809166039B
:103F4000909167038860909367038093660330C005
:103F500084E00E942B019C01337089859A85422F51
:103F60004F73440F440FFC01528D5370452BFC01DD
:103F7000428F422F42954695469543704370FC010F
:103F8000538D5C7F452BFC01438F232F2370220F21
:103F9000220FFC01338D337F232BFC01238F809173
:103FA000660390916703886090936703809366032C
:103FB000409155035091560383E593E027E533E0A4
:103FC000BA01A90120E00E947026882309F464C088
:103FD00080916303833091F5809164039091650330
:103FE000969587959C01337089859A85422F4F70ED
:103FF0004295407FFC0156895F70452BFC01468B42
:10400000422F42954F704F70FC015789507F452BCE
:10401000FC01478B232F23702295207FFC013789D9
:104020003F7C232BFC01278B8091660390916703D3
:10403000806190936703809366032EC085E00E94A1
:104040002B019C01337089859A85422F4F704295D0
:10405000407FFC0156895F70452BFC01468B422F47
:1040600042954F704F70FC015789507F452BFC01E2
:10407000478B232F23702295207FFC0137893F7CBB
:10408000232BFC01278B809166039091670380614D
:10409000909367038093660340915B0350915C03A8
:1040A00089E593E02DE533E0BA01A90120E00E9403
:1040B0007026882309F46AC0809163038430A9F5CF
:1040C0008091640390916503969587959C01337068
:1040D00089859A85422F43704295440F440F407C56
:1040E000FC0157895F73452BFC01478B422F469596
:1040F00046954F73FC01508D507C452BFC01408F41
:10410000232F2295220F220F207CFC01308D3F733C
:10411000232BFC01208F80916603909167038062BE
:10412000909367038093660331C086E00E942B0161
:104130009C01337089859A85422F43704295440FC4
:10414000440F407CFC0157895F73452BFC01478B72
:10415000422F469546954F73FC01508D507C452B60
:10416000FC01408F232F2295220F220F207CFC017F
:10417000308D3F73232BFC01208F8091660390913B
:10418000670380629093670380936603809168035E
:10419000882389F0409137015091380185E391E0FF
:1041A00029E331E0BA01A90120E00E9470268823AA
:1041B00011F00E94E11440913D0150913E018BE3CA
:1041C00091E02FE331E0BA01A90120E00E947026BE
:1041D0008823E9F080E00E942B01F2E08F329F07F4
:1041E00058F480E00E942B0122E08031920720F0F9
:1041F00084E00E94DC2D0BC080E00E942B01E2E0F5
:104200008F329E0720F084E061E00E94632D409190
:1042100043015091440181E491E025E431E0BA0189
:10422000A90120E00E947026882351F080E00E94BE
:104230002B01F2E080319F0718F484E00E94DC2D0E
:10424000809166039091670321E08F33910509F017
:1042500020E0822F2A960FB6F894DEBF0FBECDBFA6
:10426000CF91DF910895DF93CF9300D000D0CDB7E9
:10427000DEB79C838B830E94E1259A838983109209
:1042800067031092660310923C0310923B038981EE
:104290009A819093400380933F03109242031092BF
:1042A000410389819A81909346038093450382E07C
:1042B00080934701109248031092470389819A81A5
:1042C00090934C0380934B0310924E0310924D0336
:1042D00089819A81909352038093510310925403E1
:1042E0001092530389819A819093580380935703C6
:1042F00010925A031092590389819A8190935E0318
:1043000080935D039091690381E089278823A9F058
:104310008B819C81FC01178616868B819C81FC0118
:104320001286138614861586809166039091670322
:10433000826090936703809366039091680381E0A5
:1043400089278823F9F08B819C8120E23EE4FC01DF
:10435000318320838B819C81FC01138212828B81AB
:104360009C8120E23EE4FC01358324838B819C8187
:10437000FC01178216828B819C8120E63AEEFC01BB
:10438000318720870F900F900F900F90CF91DF9182
:104390000895DF93CF930F92CDB7DEB785E290E01B
:1043A00025E230E0F90120812061FC01208384E2D4
:1043B00090E020EBFC0120838CE490E02DE5FC01F3
:1043C00020838DE490E0FC01808189838EE490E07D
:1043D000FC01808189830E9403240F90CF91DF919B
:1043E0000895DF93CF930F92CDB7DEB789838EE424
:1043F00090E02981FC01208300008DE490E0FC0125
:1044000080818823D4F78EE490E0FC0180810F90B6
:10441000CF91DF910895DF93CF930F92CDB7DEB7A1
:1044200085E290E025E230E0F90120812F7EFC0159
:10443000208385E00E94F12182E10E94F12189839D
:1044400085E290E025E230E0F90120812061FC0165
:10445000208389810F90CF91DF910895DF93CF93CF
:10446000CDB7DEB700000E940B22882F90E081704C
:1044700090708823C1F7CF91DF910895DF93CF9398
:10448000CDB7DEB728970FB6F894DEBF0FBECDBF0D
:104490009C838B837E836D8358874F838F81988520
:1044A00081709070882311F080E0C0C08F81988562
:1044B0001816190614F080E0B9C01A82198285E234
:1044C00090E025E230E0F90120812F7EFC0120837D
:1044D00086E00E94F12185E290E025E230E0F901DA
:1044E00020812061FC01208385E290E025E230E01C
:1044F000F90120812F7EFC0120838DEA0E94F121A9
:104500008B819C810296FC0180810E94F1218B812C
:104510009C810196FC0180810E94F1218B819C810C
:10452000FC0180810E94F12189819A812D813E8147
:10453000820F931FFC01208189819A8101969A83C1
:104540008983822F0E94F12189819A812D813E8168
:10455000820F931FFC01208189819A8101969A83A1
:104560008983822F0E94F12137C085E290E025E205
:1045700030E0F90120812061FC0120830E942E227D
:1045800085E290E025E230E0F90120812F7EFC01F8
:1045900020838DEA0E94F12189819A812D813E81BB
:1045A000820F931FFC01208189819A8101969A8351
:1045B0008983822F0E94F12189819A812D813E81F8
:1045C000820F931FFC01208189819A8101969A8331
:1045D0008983822F0E94F12129813A818F819885D8
:1045E0002817390714F285E290E025E230E0F9015E
:1045F00020812061FC0120830E942E2285E290E030
:1046000025E230E0F90120812F7EFC01208384E047
:104610000E94F12185E290E025E230E0F90120815D
:104620002061FC0120830E942E2281E028960FB693
:10463000F894DEBF0FBECDBFCF91DF9108950F93E9
:104640001F93DF93CF93CDB7DEB728970FB6F894BB
:10465000DEBF0FBECDBF9C838B837E836D83588767
:104660004F838F8198851816190614F080E045C095
:104670001A82198285E290E025E230E0F90120817A
:104680002F7EFC01208383E00E94F1218B819C819D
:104690000296FC0180810E94F1218B819C81019610
:1046A000FC0180810E94F1218B819C81FC01808131
:1046B0000E94F12111C089819A812D813E81890159
:1046C000080F191F82E10E94F121F801808389817E
:1046D0009A8101969A83898329813A818F8198856D
:1046E0002817390744F385E290E025E230E0F9012C
:1046F00020812061FC01208381E028960FB6F89488
:10470000DEBF0FBECDBFCF91DF911F910F910895F6
:10471000DF93CF93CDB7DEB72C970FB6F894DEBFFB
:104720000FBECDBF98878F8349875A876B877C8759
:1047300089859A85AB85BC850097A105B10511F4E3
:1047400080E058C019821A821B821C821D8285E279
:1047500090E025E230E0F90120812F7EFC012083EA
:1047600083E00E94F1218F8198850296FC0180816F
:104770000E94F1218F8198850196FC0180810E9421
:10478000F1218F819885FC0180810E94F12117C061
:1047900082E10E94F1218E839D818E81890F8D831C
:1047A00081E06E810E94F22889819A81AB81BC816F
:1047B0000196A11DB11D89839A83AB83BC83298196
:1047C0003A814B815C8189859A85AB85BC852817A8
:1047D00039074A075B07E0F285E290E025E230E026
:1047E000F90120812061FC01208381E06D810E941C
:1047F000F22881E02C960FB6F894DEBF0FBECDBF35
:10480000CF91DF910895DF93CF93CDB7DEB785E2E7
:1048100090E025E230E0F90120812F7EFC01208329
:1048200080E50E94F12185E290E025E230E0F90187
:1048300020812061FC01208385E290E025E230E0C8
:10484000F90120812F7EFC01208381E00E94F1216B
:1048500080E00E94F12185E290E025E230E0F9015C
:1048600020812061FC01208385E290E025E230E098
:10487000F90120812F7EFC01208384E00E94F12138
:1048800085E290E025E230E0F90120812061FC0121
:10489000208381E0CF91DF910895DF93CF93CDB74F
:1048A000DEB785E290E025E230E0F90120812F7E3D
:1048B000FC01208386E00E94F12185E290E025E260
:1048C00030E0F90120812061FC01208385E290E045
:1048D00025E230E0F90120812F7EFC01208380E673
:1048E0000E94F12185E290E025E230E0F90120818B
:1048F0002061FC01208385E290E025E230E0F901AF
:1049000020812F7EFC01208384E00E94F12185E23A
:1049100090E025E230E0F90120812061FC01208354
:104920000E942E2281E0CF91DF9108951F920F9275
:104930000FB60F9211242F933F935F936F937F9342
:104940008F939F93AF93BF93EF93FF93DF93CF9397
:10495000CDB7DEB780916C0390916D030196909373
:104960006D0380936C0384E890E021E030E0FC016B
:104970003183208380916C0390916D0328EE33E0A6
:10498000B9010E940E3F9B0180916A0390916B03D5
:10499000820F931F90936B0380936A0380916C0343
:1049A00090916D0328EE33E0B9010E940E3F909381
:1049B0006D0380936C0380916E0390916F031816C2
:1049C00019068CF480916E0390916F030197909378
:1049D0006F0380936E0380916E0390916F03009735
:1049E00011F410927003CF91DF91FF91EF91BF917D
:1049F000AF919F918F917F916F915F913F912F9197
:104A00000F900FBE0F901F901895DF93CF93CDB7E7
:104A1000DEB784E690E024E630E0F9012081277FCC
:104A2000FC01208380E890E020E830E0F90120815B
:104A30002E7FFC01208380E890E020E830E0F9013F
:104A400020812D7FFC01208381E890E021E830E087
:104A5000F90120812860FC01208381E890E021E8B1
:104A600030E0F90120812F7EFC01208381E890E075
:104A700021E830E0F90120812460FC01208381E8F5
:104A800090E021E830E0F90120812D7FFC012083B6
:104A900081E890E021E830E0F90120812160FC010B
:104AA00020838FE690E02FE630E0F901208122603C
:104AB000FC01208388E890E029E030E0FC013183AC
:104AC0002083CF91DF910895DF93CF93CDB7DEB7E9
:104AD00080914801909149019C01220F331F220FC0
:104AE000331F220F331F820F931F8D9790936F03F5
:104AF00080936E0380916E0390916F038B359105C7
:104B000014F08AE590E090936F0380936E03809198
:104B10006E0390916F03992314F480E090E09093DA
:104B20006F0380936E03F89480916E0390916F03EE
:104B30001816190644F581E08093700383E590E030
:104B400023E530E0F9012081217FFC01208383E50A
:104B500090E023E530E0F90120812160FC01208311
:104B6000789404C081E00E94472688958091700364
:104B70008823C1F783E590E023E530E0F901208147
:104B80002E7FFC01208387E390E09093490180937E
:104B900048017894CF91DF910895DF93CF93CDB7FB
:104BA000DEB710927003CF91DF910895DF93CF931A
:104BB000CDB7DEB780916A0390916B03CF91DF91FF
:104BC0000895DF93CF93CDB7DEB780916C039091BA
:104BD0006D03CF91DF910895DF93CF93CDB7DEB70B
:104BE000F89484E890E0FC0111821082789410928D
:104BF0006B0310926A0310926D0310926C03CF91B5
:104C0000DF9108950F931F93DF93CF9300D000D0CF
:104C1000CDB7DEB79C838B832DC08B819C818C317B
:104C2000910560F44B815C8120E039E0429FC00136
:104C3000439F900D529F900D112402C080E09CEF85
:104C40009A83898389819A818C01C8010197F1F740
:104C50008C011A8309838B819C818D31910510F021
:104C60008CE190E02B813C81A901481B590BCA01C2
:104C70009C838B838B819C81009779F60F900F909A
:104C80000F900F90CF91DF911F910F9108951F9377
:104C9000DF93CF9300D0CDB7DEB78A8318C08A8167
:104CA0008B3428F48A81982F990F890F01C081EEE7
:104CB00089838981182F1A95F1F719838A818C3499
:104CC00008F08BE49A81292F281B822F8A838A81FE
:104CD000882329F70F900F90CF91DF911F910895AE
:104CE000DF93CF93CDB7DEB729970FB6F894DEBF29
:104CF0000FBECDBF9C838B837E836D8358874F838C
:104D0000298780916C0390916D039A8389838F81A9
:104D10009885FC012081318189819A8182179307CE
:104D2000C0F08B819C81FC01208131818F8198852D
:104D3000FC018081918149815A81BA01681B790BFC
:104D4000CB01280F391F8B819C81FC01318320838B
:104D50001AC08B819C81FC01208131818F819885D3
:104D6000FC018081918149815A81BA01681B790BCC
:104D7000CB01820F931F9C0128513C4F8B819C815A
:104D8000FC01318320838F81988529813A81FC0140
:104D90003183208380914A0190914B0129813A818E
:104DA00028173907F8F04091480150914901809146
:104DB00048019091490129813A81B901681B790B19
:104DC000CB0120914801309149012817390708F497
:104DD000C901FA01E81BF90BCF01909349018093B7
:104DE000480120C0409148015091490180914A01F9
:104DF00090914B0129813A81B901681B790BCB0154
:104E000088519C4F2091480130914901281739075A
:104E100008F4C901FA01E81BF90BCF01909349018D
:104E20008093480189819A8190934B0180934A0134
:104E30008B819C81FC01208131818D819E8128178D
:104E4000390778F18985882319F080E090E00BC05C
:104E50008B819C81FC01208131818D819E81A90102
:104E6000481B590BCA012B813C81F9019183808336
:104E70008B819C81FC01808191812D813E81A901E2
:104E8000481B590BCA01209148013091490128174C
:104E9000390708F4C901909349018093480181E0E2
:104EA00018C08B819C81FC01808191812D813E8184
:104EB000A901481B590BCA012091480130914901B1
:104EC0002817390708F4C9019093490180934801D4
:104ED00080E029960FB6F894DEBF0FBECDBFCF910C
:104EE000DF910895DF93CF93CDB7DEB789EB90E0E4
:104EF000FC01108288EB90E020E2FC01208387E235
:104F000090E027E230E0F90120812D7FFC01208331
:104F100088E290E028E230E0F90120812D7FFC0159
:104F2000208387E290E027E230E0F90120812E7FA4
:104F3000FC01208388E290E028E230E0F901208142
:104F40002E7FFC01208381E0CF91DF910895DF93D4
:104F5000CF93CDB7DEB727970FB6F894DEBF0FBE5D
:104F6000CDBF8B837D836C835F834E838CEB90E01E
:104F700024EAFC0120838CEB90E0FC0180818823F3
:104F8000D4F78BEB90E02B81FC0120838CEB90E03D
:104F900024E8FC0120838CEB90E0FC0180818823D5
:104FA000D4F71A8219821A8219821CC08BEB90E006
:104FB00029813A814C815D81240F351FF9012081BF
:104FC000FC0120838CEB90E024E8FC0120838CEB37
:104FD00090E0FC0180818823D4F789819A81019631
:104FE0009A83898329813A818E819F812817390785
:104FF000ECF28CEB90E024E9FC01208327960FB6BD
:10500000F894DEBF0FBECDBFCF91DF910895DF933F
:10501000CF93CDB7DEB727970FB6F894DEBF0FBE9C
:10502000CDBF8B837D836C835F834E838CEB90E05D
:1050300024EAFC0120838CEB90E0FC018081882332
:10504000D4F78BEB90E02B812160FC0120838CEB6B
:1050500090E024E8FC0120838CEB90E0FC0180814F
:105060008823D4F71A8219821A8219821CC08CEB09
:1050700090E024ECFC0120838CEB90E0FC0180812B
:105080008823D4F789819A812C813D81820F931FD7
:105090002BEB30E0F9012081FC01208389819A818A
:1050A00001969A8389838E819F819C012150304093
:1050B00089819A8182179307D4F28CEB90E024E8DF
:1050C000FC0120838CEB90E0FC0180818823D4F7E5
:1050D00089819A812C813D81820F931F2BEB30E0D7
:1050E000F9012081FC0120838CEB90E024E9FC0194
:1050F000208327960FB6F894DEBF0FBECDBFCF91A9
:10510000DF910895DF93CF9300D000D00F92CDB7F9
:10511000DEB789834A835B836C837D838981813099
:10512000B9F425EC30E08A819B81AC81BD81892F67
:105130009A2FAB2FBB27F901808384EC90E02A8162
:10514000FC01208382EC90E026E0FC01208316C065
:105150002DEC30E08A819B81AC81BD81892F9A2F13
:10516000AB2FBB27F90180838CEC90E02A81FC01F6
:1051700020838AEC90E026E0FC012083898161E0B5
:105180000E946A2C898161E00E94A62C0F900F90EA
:105190000F900F900F90CF91DF910895DF93CF93F1
:1051A0000F92CDB7DEB789838981813061F4000029
:1051B00080EC90E0FC0180818823D4F786EC90E0BD
:1051C000FC0180810BC0000088EC90E0FC01808134
:1051D0008823D4F78EEC90E0FC0180810F90CF9172
:1051E000DF910895DF93CF9300D0CDB7DEB78983E9
:1051F0006A8389818130D9F4000080EC90E0FC0161
:105200008081882F90E08072907095958795959514
:105210008795959587959595879595958795009709
:1052200061F386EC90E02A81FC0120831AC0000023
:1052300088EC90E0FC018081882F90E08072907073
:105240009595879595958795959587959595879546
:1052500095958795009761F38EEC90E02A81FC018B
:1052600020830F900F90CF91DF910895DF93CF931C
:1052700000D00F92CDB7DEB789837B836A830DC0E0
:105280008A819B81FC0190818981692F0E94F2288B
:105290008A819B8101969B838A838A819B81FC0101
:1052A0008081882369F70F900F900F90CF91DF9145
:1052B00008951F93DF93CF93CDB7DEB729970FB62D
:1052C000F894DEBF0FBECDBF8F837987688713C088
:1052D000888599859D838C838C819D81FC011491A7
:1052E0001E839E818F81692F0E94F228888599856F
:1052F000019699878887888599859A83898389818A
:105300009A81FC0114911B838B81882309F72996CC
:105310000FB6F894DEBF0FBECDBFCF91DF911F91C6
:1053200008952F923F924F925F926F927F928F9249
:105330009F92AF92BF92CF92DF92EF92FF920F9324
:105340001F93DF93CF93CDB7DEB769970FB6F8946D
:10535000DEBF0FBECDBF89870A871B872C873D879D
:105360004E875F87688B798B89898823CCF0898900
:10537000882309F098C08889882309F094C08F8514
:10538000882309F090C08E85882309F08CC08D8514
:10539000882309F088C08C85882309F084C083C0E5
:1053A000AA24BB24CC24DD24EE24FF2400E010E05A
:1053B0002A843B844C845D846E847F8488889988A9
:1053C0002A2D2219E1E0A21608F0E0E03B2D331966
:1053D000F1E0B31608F0F0E0A32FAE1BEA2FA1E036
:1053E0003E1708F0A0E0FA2B3E2F4C2D4419E1E0C7
:1053F000C41608F0E0E0A42FAF1BFA2FA1E04F176E
:1054000008F0A0E0EA2B4F2F5D2D5519F1E0D516DD
:1054100008F0F0E0A52FAE1BEA2FA1E05E1708F020
:10542000A0E0FA2B5E2F6E2D6619E1E0E61608F07B
:10543000E0E0A62FAF1BFA2FA1E06F1708F0A0E065
:10544000EA2B6F2F7F2D7719F1E0F71608F0F0E0C7
:10545000A72FAE1BEA2FA1E07E1708F0A0E0FA2BE1
:105460007E2F802F8819E1E0081708F0E0E0A82FD0
:10547000AF1BFA2FA1E08F1708F0A0E0EA2B8F2FC7
:10548000912F9919F92FFE1BEF2F9E2F2A873B870B
:105490004C875D876E877F87888B998B89856DE2C6
:1054A0000E94F22804C089856BE20E94F2288AE0FB
:1054B00089831A821B821C821D821E821F8218868B
:1054C00096C029813A814B815C816D817E818F817B
:1054D0009885A22EB32EC42ED52EE62EF72E082F99
:1054E000192F2A2D3B2D4C2D5D2D6E2D7F2D802FBC
:1054F000912F01E00E94C62E822E932EA42EB52E4F
:10550000C62ED72EE82EF92E282D392D4A2D5B2DAB
:105510006C2D7D2D8E2D9F2D02E00E94C62E2A8B94
:105520003B8B4C8B5D8B6E8B7F8B888F998F2A8901
:10553000280DE1E0281508F0E0E03B89390DF1E0A5
:10554000391508F0F0E0E30FA1E0E31708F0A0E060
:10555000FA2B3E2F4C894A0DE1E04A1508F0E0E0B5
:10556000F40FA1E0F41708F0A0E0EA2B4F2F5D89BB
:105570005B0DF1E05B1508F0F0E0E50FA1E0E51749
:1055800008F0A0E0FA2B5E2F6E896C0DE1E06C153F
:1055900008F0E0E0F60FA1E0F61708F0A0E0EA2B33
:1055A0006F2F7F897D0DF1E07D1508F0F0E0E70FAA
:1055B000A1E0E71708F0A0E0FA2B7E2F888D8E0D72
:1055C000E1E08E1508F0E0E0F80FA1E0F81708F030
:1055D000A0E0EA2B8F2F998D9F0DE90F9E2F298335
:1055E0003A834B835C836D837E838F8398872A8580
:1055F0003B854C855D856E857F8588899989A980E5
:10560000BA80CB80DC80ED80FE800F8118850E94FF
:10561000372FA22EB32EC42ED52EE62EF72E082F0E
:10562000192F2A2D3B2D4C2D5D2D6E2D7F2D802F7A
:10563000912FE22FE32BE42BE52BE62BE72BE82B36
:10564000E92BEE2309F03DCFA980BA80CB80DC8026
:10565000ED80FE800F8118852A2D3B2D4C2D5D2D70
:105660006E2D7F2D802F912F0F2EFAE0AF2EF02D73
:10567000BB24CC24DD24EE24FF2400E010E00E94B3
:10568000372FA22EB32EC42ED52EE62EF72E082F9E
:10569000192FA982BA82CB82DC82ED82FE820F832F
:1056A00018872A853B854C855D856E857F85888931
:1056B0009989A980BA80CB80DC80ED80FE800F8143
:1056C00018850E94372FA22EB32EC42ED52EE62E7B
:1056D000F72E082F192F2A2D3B2D4C2D5D2D6E2DC9
:1056E0007F2D802F912F822F982F905D8985692F94
:1056F0000E94F228AA84BB84CC84DD84EE84FF84DB
:10570000088919892A2D3B2D4C2D5D2D6E2D7F2D5D
:10571000802F912FA980BA80CB80DC80ED80FE8025
:105720000F8118850E940637A22EB32EC42ED52EC7
:10573000E62EF72E082F192FAA86BB86CC86DD868B
:10574000EE86FF86088B198B888518160CF47CCFA3
:105750008885882371F58F81882309F075CF8F8123
:10576000882339F58E81882309F06ECF8E818823B6
:1057700001F58D81882309F067CF8D818823C9F4D5
:105780008C81882309F060CF8C81882391F48B81F0
:10579000882309F059CF8B81882359F48A81882383
:1057A00009F052CF8A81882321F48981823008F060
:1057B0004BCF69960FB6F894DEBF0FBECDBFCF9129
:1057C000DF911F910F91FF90EF90DF90CF90BF90EE
:1057D000AF909F908F907F906F905F904F903F9091
:1057E0002F900895DF93CF9300D0CDB7DEB7898394
:1057F0006A8389818130B9F48A81813051F481ECE6
:1058000090E021EC30E0F90120812068FC01208348
:1058100020C081EC90E021EC30E0F90120812F776D
:10582000FC01208316C08A81813051F489EC90E01C
:1058300029EC30E0F90120812068FC01208309C0B7
:1058400089EC90E029EC30E0F90120812F77FC0110
:1058500020830F900F90CF91DF910895DF93CF9326
:1058600000D0CDB7DEB789836A8389818130B9F4EE
:105870008A81813051F481EC90E021EC30E0F90133
:1058800020812064FC01208320C081EC90E021EC89
:1058900030E0F90120812F7BFC01208316C08A8132
:1058A000813051F489EC90E029EC30E0F90120815D
:1058B0002064FC01208309C089EC90E029EC30E0F1
:1058C000F90120812F7BFC0120830F900F90CF9155
:1058D000DF910895DF93CF9300D0CDB7DEB78983F2
:1058E0006A8389818130B9F48A81813051F481ECF5
:1058F00090E021EC30E0F90120812061FC0120835F
:1059000020C081EC90E021EC30E0F90120812F7E75
:10591000FC01208316C08A81813051F489EC90E02B
:1059200029EC30E0F90120812061FC01208309C0CD
:1059300089EC90E029EC30E0F90120812F7EFC0118
:1059400020830F900F90CF91DF910895DF93CF9335
:1059500000D0CDB7DEB789836A8389818130B9F4FD
:105960008A81813051F481EC90E021EC30E0F90142
:1059700020812860FC01208320C081EC90E021EC94
:1059800030E0F9012081277FFC01208316C08A8145
:10599000813051F489EC90E029EC30E0F90120816C
:1059A0002860FC01208309C089EC90E029EC30E0FC
:1059B000F9012081277FFC0120830F900F90CF9168
:1059C000DF910895DF93CF93CDB7DEB782E063E038
:1059D00044E050E00E94AE1082E063E047E050E017
:1059E0000E94AE1082E062E043E050E00E94AE1000
:1059F00082E063E046E050E00E94AE1082E063E0A7
:105A000045E050E00E94AE1081E061E042E050E0ED
:105A10000E94AE1081E061E041E050E00E94AE10D3
:105A200081E061E040E050E00E94AE10CF91DF9154
:105A30000895DF93CF930F92CDB7DEB78983898125
:105A4000882F90E082309105C9F08330910539F1BB
:105A50008130910599F583E290E0FC018081882FE7
:105A600090E0847090709C01359527953595279529
:105A700081E02115310519F180E021C083E290E039
:105A8000FC018081882F90E0827090709C01359598
:105A9000279581E02115310591F080E010C083E267
:105AA00090E0FC018081882F90E09C012170307093
:105AB00081E02115310519F080E001C080E00F90F0
:105AC000CF91DF910895DF93CF9300D0CDB7DEB7AC
:105AD00089836A838981882F90E083309105A1F1C1
