:100000000C946E000C9497000C9497000C9497003D
:100010000C945A170C9497000C9497000C9497002A
:100020000C9497000C9497000C9497000C949700F4
:100030000C9497000C94F6070C9497000C9497007E
:100040000C9497000C9497000C9497000C949700D4
:100050000C94450A0C9497000C9497000C9497000C
:100060000C9497000C9497000C9497000C949700B4
:100070000C9409050C9497000C94970024504D544F
:100080004B3331342C302C302C302C352C302C3060
:100090002C302C302C302C302C302C302C302C3080
:1000A0002C302C302C302A32440D0A002D2D2D0DF1
:1000B00000532D2C50494E506F696E74340D00530F
:1000C000532C53657269616C506F72740D00534309
:1000D0002C313130310D00242424000011241FBEA6
:1000E000CFEFD8E0DEBFCDBF84B78093720314BEDC
:1000F00088E10FB6F89480936000109260000FBE04
:1001000012E0A0E0B1E0E4EBFCE502C005900D9246
:10011000A434B107D9F713E0A4E4B2E001C01D9202
:10012000A237B107E1F70E94E91B0C94582E0C94FA
:1001300000008EBD0DB407FEFDCF8EB508952C983E
:1001400085E08EBD0DB407FEFDCF8EB582E18EBD7C
:100150000DB407FEFDCF8EB52C9A08950E949F0026
:1001600080FDFCCF0895DF92EF92FF920F931F93D3
:10017000CF93DF93FC01DB017A0140FD6DC01416C3
:1001800015060CF069C02C9886E08EBD0DB407FEF4
:10019000FDCF8EB52C9A2C988DEA8EBD0DB407FE3E
:1001A000FDCF8EB582818EBD0DB407FEFDCF8EB51D
:1001B00081818EBD0DB407FEFDCF8EB580818EBDD1
:1001C0000DB407FEFDCF8EB58C918EBD0DB407FE2C
:1001D000FDCF8EB511968C9111978EBD0DB407FE93
:1001E000FDCF8EB583E0E816F10404F1ED0102E0E5
:1001F00010E08DEAD82E2C9A0E94AE002C98DEBC1E
:100200000DB407FEFDCF8EB58A818EBD0DB407FEFD
:10021000FDCF8EB58B810E5F1F4F8EBD0DB407FED7
:10022000FDCF8EB522960E151F052CF32C9A0E9439
:10023000AE002C9884E08EBD0DB407FEFDCF8EB5C8
:100240002C9A0E94AE0081E0DF91CF911F910F9117
:10025000FF90EF90DF90089580E0DF91CF911F91A4
:100260000F91FF90EF90DF900895FC011416150692
:100270006CF52C9883E08EBD0DB407FEFDCF8EB5D6
:1002800082818EBD0DB407FEFDCF8EB581818EBDFE
:100290000DB407FEFDCF8EB580818EBD0DB407FE77
:1002A000FDCF8EB520E030E092E19EBD0DB407FE9B
:1002B000FDCF8EB5FB01E20FF31F80832F5F3F4F11
:1002C0002417350794F32C9A81E0089580E008956F
:1002D0002C9880E58EBD0DB407FEFDCF8EB52C9A0F
:1002E0002C9881E08EBD0DB407FEFDCF8EB51EBCEF
:1002F0000DB407FEFDCF8EB52C9A2C9884E08EBDF0
:100300000DB407FEFDCF8EB52C9A81E008952C9A8E
:1003100080EB84B98DE58CBD8DB58EB50E946801EA
:1003200008952C9886E08EBD0DB407FEFDCF8EB5E6
:100330002C9A2C9880E68EBD0DB407FEFDCF8EB5AD
:100340002C9A2C9884E08EBD0DB407FEFDCF8EB59F
:100350002C9A0E94AE0081E008958F929F92AF92F6
:10036000BF92CF92DF92EF92FF920F931F93FC0107
:100370004A015B01411551056105710509F443C04E
:100380002C9883E08EBD0DB407FEFDCF8EB5828123
:100390008EBD0DB407FEFDCF8EB581818EBD0DB42F
:1003A00007FEFDCF8EB580818EBD0DB407FEFDCF5B
:1003B0008EB5EE24FF248701DD2492E1C92ECEBC48
:1003C0000DB407FEFDCF6EB5D60E81E00E9415027A
:1003D0000894E11CF11C011D111DE814F9040A0523
:1003E0001B0568F32C9A81E06D2D0E94150281E0B7
:1003F0001F910F91FF90EF90DF90CF90BF90AF9043
:100400009F908F90089580E0F3CF813039F08091F4
:10041000C80087FFFCCF8091CE0008958091C00076
:1004200087FFFCCF8091C6000895813039F080911C
:10043000C80085FFFCCF6093CE0008958091C00076
:1004400085FFFCCF6093C60008951F93CF93DF9381
:10045000182FEB016881662339F0812F0E94150265
:10046000219668816623C9F7DF91CF911F91089586
:100470001F93CF93DF93182FEB01FB018491882307
:1004800051F0FE016491812F0E9415022196FE0118
:1004900084918823B1F7DF91CF911F9108952F9216
:1004A0003F924F925F926F927F928F929F92AF9204
:1004B000BF92CF92DF92EF92FF920F931F93DF9341
:1004C000CF93CDB7DEB72A970FB6F894DEBF0FBE35
:1004D000CDBF89830A831B832C833D834E835F8337
:1004E0006887798777FD28C16BE20E9415022A810F
:1004F0003B814C815D816E817F8188859985BAE0E1
:10050000AB2EBB24CC24DD24EE24FF2400E010E03D
:100510000E94F11C232B242B252B262B272B282B49
:10052000292B09F4CFC1FAE03F2E44245524662438
:100530007724882499242224232D342D452D562DCB
:10054000672D782D892D922D01E00E94721C122FAB
:10055000F32EE42ED52EC62EB72EA82E992E02E00D
:100560000E94721C210FF1E0211708F0F0E03F0D0E
:10057000E1E03F1508F0E0E0BF2FB30FF1E0B31763
:1005800008F0F0E0EF2B4E0D31E04E1508F030E0B2
:10059000AE2FA40FE1E0A41708F0E0E03E2B5D0DC4
:1005A00041E05D1508F040E0F32FF50F31E0F5175D
:1005B00008F030E0432B6C0D31E06C1508F030E0B2
:1005C000E42FE60F41E0E61708F040E0342B7B0D06
:1005D00041E07B1508F040E0532F570F31E05717EB
:1005E00008F030E0432B8A0D11E08A1508F010E086
:1005F000480F31E0481708F030E0132B990D190F20
:10060000322E4B2E5A2E6F2E7E2E852E942E212E7C
:100610002A813B814C815D816E817F8188859985AE
:10062000A32CBB2ECA2EDF2EEE2EF82C092D0E94F5
:10063000F11C232B242B252B262B272B282B292B76
:1006400009F07ACF232D342D452D562D672D782D89
:10065000892D922DEAE0AE2EBB24CC24DD24EE249D
:10066000FF2400E010E00E94F11C9A87322E432EF6
:10067000542E652E762E872E982E292E2A813B8188
:100680004C815D816E817F8188859985A32CB42CF6
:10069000C52CD62CE72CF82C092D122D0E94F11C0C
:1006A000205D8981622F0E9415022A813B814C8145
:1006B0005D816E817F81888599851A850E941925C3
:1006C0002A833B834C835D836E837F8388879987EE
:1006D00011160CF4B7CF1123B1F4992009F0B2CF61
:1006E000882009F0AFCF772009F0ACCF662009F061
:1006F000A9CF552009F0A6CF442009F0A3CFF1E0FF
:10070000F31508F49FCF2A960FB6F894DEBF0FBEFC
:10071000CDBFCF91DF911F910F91FF90EF90DF90B0
:10072000CF90BF90AF909F908F907F906F905F9091
:100730004F903F902F9008950A81019591E01016F7
:1007400008F0B8C01B81119581E0111608F0AAC00D
:10075000F12EF91A91E01F1508F09BC0892B2C810E
:10076000219591E0121608F08CC0B22FB81B81E0E1
:100770002B1708F07DC0982B3D81319581E0131631
:1007800008F06EC0A32FA91B91E03A1708F05FC0D4
:10079000892B4E81419591E0141608F050C0E42E4B
:1007A000E81A81E04E1508F041C0982B5F81519501
:1007B00081E01516A0F5752F791B91E0571738F5D4
:1007C000892B6885619521E01616C8F4962F981B31
:1007D000892F91E0681788F4292BE985E1950A8330
:1007E000FB82BC83AD83EE827F838887E21BE9872F
:1007F00089816DE20E9415027ACE90E0EDCF20E073
:10080000962F981B892F91E0681730F3F6CF90E070
:10081000892B6885619521E01616C0F2F0CF80E043
:10082000752F791B91E0571758F2F1CF80E0982B84
:100830005F81519581E0151608F4BDCFF0CF90E0AF
:10084000E42EE81A81E04E1508F4AFCFEFCF90E028
:10085000892B4E81419591E0141608F4A0CFEFCF7B
:1008600080E0A32FA91B91E03A1708F491CFEFCFB6
:1008700080E0982B3D81319581E0131608F482CFFA
:10088000EFCF90E0B22FB81B81E02B1708F473CFA5
:10089000EFCF90E0892B2C81219591E0121608F47E
:1008A00064CFEFCF80E0F12EF91A91E01F1508F424
:1008B00055CFEFCF90E01B81119581E0111608F420
:1008C00047CFF0CFAAE03A2E44245524662477245B
:1008D000882499242224B6CE813041F0613071F011
:1008E0008091C9008F778093C9000895613061F0CD
:1008F0008091C1008F778093C10008958091C900D5
:1009000080688093C90008958091C10080688093B9
:10091000C1000895813041F0613071F08091C900CB
:100920008F7B8093C9000895613061F08091C10090
:100930008F7B8093C10008958091C900806480936B
:10094000C90008958091C10080648093C10008951A
:10095000813041F0613071F08091C9008F7E8093C9
:10096000C9000895613061F08091C1008F7E80934D
:10097000C10008958091C90080618093C9000895E5
:100980008091C10080618093C1000895813041F061
:10099000613071F08091C900877F8093C90008950C
:1009A000613061F08091C100877F8093C10008951C
:1009B0008091C90088608093C90008958091C1002A
:1009C00088608093C10008951F93182F8130A9F08B
:1009D000BB27A72F962F852F8093CD004093CC0067
:1009E00086E08093CA00812F61E00E94A804812FD5
:1009F00061E00E94C6041F910895BB27A72F962F80
:100A0000852F8093C5004093C40086E08093C20088
:100A1000EACF1F920F920FB60F9211248F93AF93CC
:100A2000BF93EF93FF93A0914B02B0914C02AA3574
:100A3000B1057CF08091CE00A35BBD4F8C93FF91FC
:100A4000EF91BF91AF918F910F900FBE0F901F90BC
:100A500018958091CE00FD01E25BFD4F80831196D9
:100A6000B0934C02A0934B02EACFFC0180910001AD
:100A7000909101019183808380914402909145027D
:100A800093838283809102019091030195838483F3
:100A9000809146029091470297838683809104015A
:100AA000909105019187808780914D020895CF93A1
:100AB000DF9360914B0270914C021616170684F476
:100AC00041E050E0DA011197FA01E35BFD4F8081CC
:100AD0008C3251F0CA014F5F5F4F8617970794F32E
:100AE00080E0DF91CF9108959A0146175707C4F728
:100AF000FA01E65BFD4F06C02F5F3F4F3196261788
:100B0000370714F584818A30B9F724303105A4F30E
:100B100080818A3289F7E9012397A35BBD4FE8EA18
:100B2000F2E09E012E0F3F1F8D918193E217F30794
:100B3000D9F7C855DD4F188210924C0210924B0223
:100B400081E0DF91CF9108954F5F5F4FBBCF5F9200
:100B50006F927F928F929F92AF92BF92CF92DF92CD
:100B6000EF92FF920F931F93DF93CF9300D000D0AB
:100B700000D0CDB7DEB78091A8028134B9F080E013
:100B800026960FB6F894DEBF0FBECDBFCF91DF9192
:100B90001F910F91FF90EF90DF90CF90BF90AF909B
:100BA0009F908F907F906F905F9008951E82E0904D
:100BB000490200E010E0CC24DD24E8EAF2E05E0126
:100BC0000894A11CB11C5524539495E0892E912CB6
:100BD0008C0E9D1E86E0682E712C6C0E7D1E84E0AE
:100BE000C81609F445C08C1508F46BC082E0C8161D
:100BF00009F4E0C083E0C81609F4C4C0F080ECE258
:100C0000FE16C1F0FAE2FF16A9F00035110594F4C2
:100C1000C8010196FC01E855FD4F08C02A3251F089
:100C20003196803591050CF0ECC001968C01208145
:100C30002C32A1F70F3411050CF0E3C0F801E85590
:100C4000FD4F80818A3209F4DCC08C3241F6089471
:100C5000C11CD11C8AE0C816D1040CF0D2C00F5FB1
:100C60001F4FF801E855FD4F84E0C81609F0BBCFCF
:100C700080818C32E1F1DF01F5018D918193E615E0
:100C8000F705D9F71E82C5010E941C2E909303011F
:100C900080930201F801E255FD4F808189838181B3
:100CA0008A8382818B831C82075F1F4FC5010E944C
:100CB0001C2E9093470280934602F801E855FD4FA1
:100CC0009DCF87E0C816C9F189E0C81699F085E084
:100CD000C81609F093CF80818C3249F00F5F1F4F07
:100CE000873509F496C0F801E855FD4F87CF10927B
:100CF0004A02A0CFF080FCE2FF16C9F38EE2F8169C
:100D000009F496C0980127553D4F8F2DA0E0B0E023
:100D1000F501EA0FFB1F80831196F90181919F0174
:100D20008E32B1F7AA0DBB1D1C92C5010E941C2E6C
:100D3000909305018093040165CFF0808CE2F81652
:100D400009F462C0980127553D4F8F2DA0E0B0E017
:100D5000F501EA0FFB1F80831196F90181919F0134
:100D60008C32B1F7AA0DBB1D1C92C5010E941C2E2E
:100D70008093480210924A028E1508F443CF509295
:100D80004A0240CF80818C3209F4B1CF0F5F1F4FF0
:100D9000833509F0A8CF80910001909101019095D1
:100DA00081959F4F9093010180930001F801E855D0
:100DB000FD4F24CF80818C3209F499CFDF01F501FA
:100DC0008D918193E815F905D9F71D82C5010E941F
:100DD0001C2E9093010180930001F801E355FD4F13
:100DE0008081898381818A8382818B831C82085FD1
:100DF0001F4FC5010E941C2E909345028093440210
:100E000072CF80914A02BCCE10924A0210924802E0
:100E100011CF8091020190910301909581959F4F90
:100E20009093030180930201F801E855FD4FE6CE4F
:100E3000A0E0B0E077CFF8940E945705789488231B
:100E400019F510924C0210924B0280914D028823AA
:100E5000D1F480E29EE4909301018093000110920E
:100E60004502109244029093030180930201109274
:100E700047021092460280E69AEE90930501809315
:100E800004011092480208950E94A70580934D0224
:100E9000DCCFBC0180E00E943802089580E049E088
:100EA00050E060E070E00E94E40488EE93E00E946D
:100EB000840880E06CE770E00E94380284E690E0ED
:100EC0000E94840886E190E00E943C1480934902CD
:100ED00080E061E00E946C040E9457050895982FFD
:100EE00080917A008F7780937A009130A9F19130C8
:100EF00040F1923051F480917C00806480937C00BA
:100F000080917C00806880937C0080917C0080626E
:100F100080937C0080917A00816080937A00809138
:100F20007A00826080937A0080917A008460809356
:100F30007A006093F80280917A00806880937A004A
:100F4000089580917C00806480937C0080917C0077
:100F50008F7780937C00D9CF80917C008F7B8093AA
:100F60007C0080917C00806880937C00CECF909143
:100F70007C00907E90937C0090917C00982B9093C5
:100F80007C0080917A00806480937A0080917A005E
:100F900086FDFCCF4091780080917900282F30E0C9
:100FA0008091F802882391F0C901880F991F880F5A
:100FB000991F242F30E00024220F331F001C220F22
:100FC000331F001C232F302D280F391FC90108950E
:100FD000813031F080917A008F7780937A00089584
:100FE00080917A00806880937A0008951F920F9212
:100FF0000FB60F9211242F933F935F936F937F93BC
:101000008F939F93AF93BF938091FB029091FC02CB
:1010100001969093FC028093FB0281E090E0909314
:101020008500809384008091FB029091FC022091C6
:10103000F9023091FA0268EE73E00E94812D260FCA
:10104000371F3093FA022093F9028091FB029091AE
:10105000FC0268EE73E00E94812D9093FC02809365
:10106000FB02BF91AF919F918F917F916F915F91A3
:101070003F912F910F900FBE0F901F901895E4E6AF
:10108000F0E08081877F8083E0E8F0E080818E7FE0
:10109000808380818D7F8083E1E8F0E080818860BB
:1010A000808380818F7E808380818B7F808380811D
:1010B00082608083808181608083EFE6F0E08081C0
:1010C0008260808380E990E090938900809388001B
:1010D00008952091F9023091FA02C90108952091F2
:1010E000FB023091FC02C9010895F894109285002A
:1010F0001092840078941092FA021092F9021092E1
:10110000FC021092FB0208950F931F93CF93DF937D
:101110008C010097A9F0E8010D31110510F0CCE128
:10112000D0E0BE0180E090E020E039E040E050E017
:101130000E94562DCB010197F1F70C1B1D0B59F79F
:10114000DF91CF911F910F910895FF920F931F93FD
:10115000CF93DF93DC018B01EA01F22EE091FB02D9
:10116000F091FC0248815981E417F507F8F08D9160
:101170009C9111978E0F9F1F841B950B11969C932A
:101180008E93F983E8836D917C91119760177107B5
:1011900010F1FF2039F5601B710B6D937C9381E09A
:1011A000DF91CF911F910F91FF900895CF0188514A
:1011B0009C4F2D913C911197820F931F841B950B8F
:1011C00011969C938E93F983E8836D917C9111978E
:1011D00060177107F0F680E0DF91CF911F910F91BA
:1011E000FF90089560E070E0D8CF823051F08330F6
:1011F00069F0813011F080E0089580E01A9B04C00E
:10120000089580E01999FCCF81E0089583B180951D
:1012100081700895833019F1843028F0843099F07A
:10122000853059F008958130A1F08230D9F783E0FC
:1012300066E070E00E94BA16089583E067E070E00F
:101240000E94BA16089583E064E070E00E94BA1626
:10125000089582E063E070E00E94BA16089583E08A
:1012600065E070E00E94BA160895833079F1843009
:1012700028F0843011F1853071F008958130A1F0AB
:101280008230D9F7662391F583E063E046E050E0D1
:101290000E94911508956623F1F182E063E047E032
:1012A00050E00E94911508956623C9F483E062E03E
:1012B00043E050E00E94911508956623F1F483E025
:1012C00063E044E050E00E94911508956623E1F444
:1012D00083E063E045E050E00E949115089582E0CC
:1012E00062E043E050E00E949115089582E063E0DF
:1012F00046E050E00E949115089582E063E044E0EA
:1013000050E00E949115089582E063E045E050E0CE
:101310000E949115089583E063E047E050E00E9449
:10132000911508950F931F93CF93DF938C0181E064
:101330000E94F508882309F04BC0F80180818823BA
:1013400059F0248135818281938101978217930717
:1013500068F12530310550F181E060E00E943509E7
:10136000109204031092030383E00E94F50888237F
:1013700021F081E0F8018083118282E00E94F5086B
:10138000882319F0F80110821182F80180818823E6
:1013900091F482E061E00E94350983E060E00E9400
:1013A0003509DF91CF911F910F91089581E061E0A0
:1013B0000E943509D5CF83E061E00E94350982E0C3
:1013C00060E00E943509DF91CF911F910F91089540
:1013D00081E061E00E943509F801118283E093E029
:1013E00068EB7BE04DEF52E020E00E94A5088823E7
:1013F00009F4BACFF801108282E061E00E94350959
:1014000083E060E00E9435090E947914C0E0D0E0DA
:1014100082E390E00E94840881E00E940A092196FC
:10142000C233D105A9F7A0CF82E063E044E050E0E9
:101430000E94911582E063E047E050E00E94911520
:1014400082E062E043E050E00E94911582E063E0B8
:1014500046E050E00E94911582E063E045E050E0F4
:101460000E94911581E061E042E050E00E949115F8
:1014700081E061E041E050E00E94911581E061E08F
:1014800040E050E00E94911508951F920F920FB610
:101490000F9211242F933F938F93EF93FF932091FB
:1014A000090330910A032431310574F08091C6009C
:1014B00080931E03FF91EF918F913F912F910F9099
:1014C0000FBE0F901F9018958091C600F901E55F3F
:1014D000FC4F80832F5F3F4F30930A032093090313
:1014E000E9CFAC018431910534F5FC01E55FFC4F97
:1014F000ABE0B3E081918D9383E0EF31F807D1F752
:10150000CA01809590954596843191054CF4FC0173
:10151000E55FFC4F23EA2193019684319105DCF3CA
:101520008091090390910A03841B950B90930A0301
:1015300080930903089580E090E0E9CFBF92CF92B5
:10154000DF92EF92FF920F931F93CF93DF93EC0103
:10155000F8948091090390910A0384319105B4F5C0
:1015600010910B03163009F4F1C01730C0F0193098
:1015700009F451C01A3008F0AAC0173009F4D9C0D4
:10158000183009F475C081E090E00E94710ACC2403
:10159000DD24FF2400E0EE24BB2482E027C01330CA
:1015A00009F44FC0143008F07AC0113009F4DBC0E0
:1015B000123049F707970CF0E3C0CC24DD24FF2458
:1015C00000E0EE24BB2410E080E010C084E190E055
:1015D00090930A03809309030E94710ACC24DD24AE
:1015E000FF2400E0EE24BB2410E081E0789418860C
:1015F000CF82DE82FD820C83EB82BA8219838883DC
:10160000CE01DF91CF911F910F91FF90EF90DF906E
:10161000CF90BF900895089784F210910C03B0907A
:101620000D03E0900E0300910F03F0901003D09093
:101630001103C090120388E090E00E94710A8BE0D1
:10164000D5CF08970CF4B9CF10910C03B0900D03CF
:10165000E0900E0300910F03F0901003D09011035F
:10166000C090120388E090E00E94710A86E0BECF2D
:1016700008970CF4A2CF10910C03B0900D03E090EA
:101680000E0300910F03F0901003D0901103C0904F
:10169000120388E090E00E94710A8AE0A7CF14301C
:1016A000B1F1153009F06FCF04970CF486CF10918B
:1016B0000C03B0900D03E0900E0384E090E00E94D4
:1016C000710ACC24DD24FF2400E087E08FCF1A309C
:1016D00039F0133A09F057CF892B09F46ECF53CF65
:1016E00008970CF46ACF10910C03B0900D03E090B2
:1016F0000E0300910F03F0901003D0901103C090DF
:10170000120388E090E00E94710A8CE06FCF03978B
:101710000CF453CF10910C03B0900D0383E090E0D4
:101720000E94710ACC24DD24FF2400E0EE2485E031
:101730005DCF81E090E00E94710ACC24DD24FF247B
:1017400000E0EE24BB2410E089E050CF81E090E07F
:101750000E94710ACC24DD24FF2400E0EE24BB2487
:1017600010E088E043CF81E090E00E94710ACC2431
:10177000DD24FF2400E0EE24BB2410E083E036CF1C
:1017800010910C03B0900D03E0900E0300910F0335
:10179000F0901003D090110387E090E00E94710A4E
:1017A000CC2484E023CF0F931F93DF93CF93CDB747
:1017B000DEB768970FB6F894DEBF0FBECDBF8C01C1
:1017C000CE0140960E949E0A8889873009F41FC185
:1017D000883088F18A3009F491C08B3008F050C00D
:1017E000883009F483C08930D9F40E9433146D83A2
:1017F0007E838F8398878E010B5F1F4F81E0F801F6
:1018000062810E94150281E0F80161810E94150247
:1018100081E06D810E94150281E060E20E94150264
:1018200068960FB6F894DEBF0FBECDBFCF91DF91A3
:101830001F910F910895843009F4ADC0853008F4EC
:1018400042C0853009F47CC0863051F7F80110821F
:101850001182898989878A898A878B898B878C8974
:101860008C878D898D878E898E878F898F87CE0112
:1018700009960E94E21081E066E00E941502D0CF36
:101880008B3009F46CC08C3059F6FE017196A09132
:101890000E01B0910F0141E09E01275E3F4F908104
:1018A0008C91981340E031961196E217F307B9F73F
:1018B000442321F081E0F8018083118281E064E11A
:1018C0000E941502ADCF833009F0AACFF801108233
:1018D000118281E062E00E94150281E066E00E94D0
:1018E000150281E061E00E9415029ACFF801108292
:1018F00081E081836CE00E94150292CFFE01719617
:10190000A0910E01B0910F0141E09E01275E3F4F73
:1019100090818C91981340E031961196E217F3076D
:10192000B9F7442309F47CCF2BE088E190E00FB6AF
:10193000F894A895809360000FBE2093600070CF4C
:10194000F80110821182998980E02A89820F911D05
:101950000E943C14682F81E00E94150261CFFE01B5
:101960007196A0910E01B0910F0141E09E01275E9A
:101970003F4F90818C91981340E031961196E21779
:10198000F307B9F7442311F00E94791481E062E172
:101990000E94150245CF298930E040E050E0A901BE
:1019A000332722278A8990E0A0E0B0E0BA2FA92F40
:1019B000982F8827280F391F4A1F5B1F8B89280FF4
:1019C000311D411D511D29833A834B835C834C8912
:1019D00050E060E070E0BA01552744278D8990E01F
:1019E000A0E0B0E0BA2FA92F982F8827480F591FE1
:1019F0006A1F7B1F8E89480F511D611D711DF801E3
:101A000010821182CE0101960E94AD0109CFF8012A
:101A100010821182998980E02A89820F911D6B8939
:101A20000E94411481E06AE00E941502F9CE8CED1B
:101A300095E00E94840881E067ED70E00E94380222
:101A40008CED95E00E94840884E690E00E94840872
:101A500081E06EEC70E00E94380284E690E00E9423
:101A6000840881E06FEB70E00E94380284E690E029
:101A70000E94840881E061EB70E00E94380284E6F5
:101A800090E00E94840881E06CEA70E00E943802D5
:101A9000089581E044E050E060E070E00E94E404DA
:101AA000EBE0F3E083EA819393E0EF31F907D9F7B4
:101AB00081E061E00E946C0408951092B90080E218
:101AC0008093B800399841983898409881E00895FB
:101AD000982F84EA8093BC008091BC0087FFFCCFE4
:101AE0009093BB0084E88093BC008091BC0087FF8A
:101AF000FCCF14161506A4F420E030E094E8FB01B6
:101B0000E20FF31F80818093BB009093BC00809113
:101B1000BC0087FFFCCF2F5F3F4F241735077CF3B6
:101B200084E98093BC000895982F84EA8093BC00D8
:101B30008091BC0087FFFCCF91609093BB0084E84C
:101B40008093BC008091BC0087FFFCCFDA01119725
:101B50001A161B0624F520E030E094EC9093BC00AC
:101B60008091BC0087FFFCCF8091BB00FB01E20F9E
:101B7000F31F80832F5F3F4F2A173B077CF384E8D6
:101B80008093BC008091BC0087FFFCCF8091BB009C
:101B9000A60FB71F8C9384E98093BC000895A0E042
:101BA000B0E0EDCFDF93CF9300D0CDB7DEB784EFB9
:101BB000898384E38A838EEEBE016F5F7F4F42E0AC
:101BC00050E00E94680D0F900F90CF91DF91089523
:101BD000DF93CF9300D0CDB7DEB784EF89838EE259
:101BE0008A838EEEBE016F5F7F4F42E050E00E941D
:101BF000680D0F900F90CF91DF9108952F923F9233
:101C00004F925F926F927F928F929F92AF92BF920C
:101C1000CF92DF92EF92FF920F931F93DF93CF93B8
:101C2000CDB7DEB727970FB6F894DEBF0FBECDBF96
:101C300086EF89838EEEBE016F5F7F4F41E050E0FB
:101C40000E94680D8EEEBE016E5F7F4F42E050E055
:101C50000E94940D60903503709036038090370396
:101C60009090380380E690EFAFEFBFEF680E791EDB
:101C70008A1E9B1EC401B301A40193010E94562D2C
:101C800020E030E140E050E00E94CA2D522E432E69
:101C9000342E252E6091230370912403882777FD2D
:101CA0008095982FA40193010E94562D20E030E2E8
:101CB00040E050E00E94CA2D79018A0182E090E064
:101CC000A0E0B0E0E80EF91E0A1F1B1F20912B03B5
:101CD00030912C03442737FD4095542F652D742DEA
:101CE000832D922D0E94562D20E030E041E050E0FF
:101CF0000E94CA2DE20EF31E041F151FC801B70172
:101D000024E030E040E050E00E94CA2DCA01B90151
:101D1000605070488F4F9F4F2091250330912603CC
:101D200040E050E00E94562DDC01CB015FE0B6950B
:101D3000A795979587955A95D1F78C839D83AE8308
:101D4000BF83AA80BB24CC24DD24DC2CCB2CBA2C72
:101D5000AA248B81A80EB11CC11CD11CE0901F03CA
:101D6000F09020030027F7FC0095102FEE0CFF1CCD
:101D7000001F111FEE0CFF1C001F111F82E090E0DE
:101D8000A0E0B0E0E80EF91E0A1F1B1F60912103BE
:101D900070912203882777FD8095982FA4019301E5
:101DA0000E94562D20E038E040E050E00E94CA2D0D
:101DB000E20EF31E041F151F20912D0330912E03F8
:101DC000442737FD4095542F652D742D832D922D7A
:101DD0000E94562D20E038E040E050E00E94CA2DDD
:101DE000E20EF31E041F151FC801B70124E030E006
:101DF00040E050E00E94CA2DA21AB30AC40AD50AD4
:101E0000C601B50120E533EC40E050E00E94562DBC
:101E100097FD6FC0660F771F881F991F2C813D812A
:101E20004E815F810E94A82DC901DA011C012D019C
:101E3000C201B10120E031E040E050E00E94CA2D33
:101E4000B901CA010E94562D2EED3BE040E050E062
:101E50000E94562D5B016C01C201B10123E433EEF7
:101E60004FEF5FEF0E94562D20E030E041E050E060
:101E70000E94CA2D79018A018FEC9EE0A0E0B0E0BB
:101E8000E80EF91E0A1F1B1FC601B50120E030E055
:101E900041E050E00E94CA2DE20EF31E041F151F00
:101EA000C801B70120E130E040E050E00E94CA2DB7
:101EB00079018A01E20CF31C041D151DB701C8014C
:101EC00027960FB6F894DEBF0FBECDBFCF91DF913E
:101ED0001F910F91FF90EF90DF90CF90BF90AF9048
:101EE0009F908F907F906F905F904F903F902F903A
:101EF00008952C813D814E815F810E94A82D19019A
:101F00002A01220C331C441C551C92CFEF92FF92E5
:101F10000F931F93DF93CF9300D00F92CDB7DEB70F
:101F200086EF89838EEEBE016F5F7F4F41E050E008
:101F30000E94680D8EEEBE016E5F7F4F42E050E062
:101F40000E94940D6A8170E080E090E0982F872FC6
:101F5000762F66272B81620F711D811D911D2091A7
:101F6000290330912A0340E050E0621B730B840B7D
:101F7000950B209127033091280340E050E00E9408
:101F8000562D20E030E840E050E00E94CA2D790153
:101F90008A016091310370913203882777FD809523
:101FA000982FEBE0660F771F881F991FEA95D1F7EE
:101FB0002091330330913403442737FD4095542F4B
:101FC0002E0D3F1D401F511F0E94CA2D2E0D3F1D7B
:101FD000401F511F2093350330933603409337033E
:101FE00050933803285F3F4F4F4F5F4FCA01B901ED
:101FF00020E130E040E050E00E94CA2DC9010F907E
:102000000F900F90CF91DF911F910F91FF90EF9064
:102010000895DF93CF930F92CDB7DEB78AEA898315
:102020008EEEBE016F5F7F4F41E050E00E94680D71
:102030008EEE6FE173E042E050E00E94940D8091DB
:10204000200390911F0398278927809320038927D5
:1020500080931F038EEE61E273E042E050E00E9445
:10206000940D8091220390912103982789278093D2
:1020700022038927809321038EEE63E273E042E01E
:1020800050E00E94940D809124039091230398279F
:102090008927809324038927809323038EEE65E2AA
:1020A00073E042E050E00E94940D809126039091ED
:1020B0002503982789278093260389278093250362
:1020C0008EEE67E273E042E050E00E94940D809152
:1020D000280390912703982789278093280389272D
:1020E000809327038EEE69E273E042E050E00E94A5
:1020F000940D80912A039091290398278927809332
:102100002A038927809329038EEE6BE273E042E075
:1021100050E00E94940D80912C0390912B039827FE
:10212000892780932C03892780932B038EEE6DE201
:1021300073E042E050E00E94940D80912E03909154
:102140002D039827892780932E03892780932D03B9
:102150008EEE6FE273E042E050E00E94940D8091B9
:10216000300390912F039827892780933003892784
:1021700080932F038EEE61E373E042E050E00E9413
:10218000940D809132039091310398278927809391
:1021900032038927809331038EEE63E373E042E0DC
:1021A00050E00E94940D809134039091330398275E
:1021B0008927809334038927809333030F90CF912D
:1021C000DF910895DF93CF93CDB7DEB728970FB691
:1021D000F894DEBF0FBECDBFFC0119823081832F82
:1021E0006AE00E94752D282F2295207F832F0E9460
:1021F000752D290F2A833181832F0E94752D282F59
:102200002295207F832F0E94752D290F2B833281E9
:10221000832F0E94752D282F2295207F832F0E94C7
:10222000752D290F2C8383818D833481832F0E9408
:10223000752D282F2295207F832F0E94752D290F21
:102240002E833581832F0E94752D282F2295207F84
:10225000832F0E94752D290F2F833681832F0E9493
:10226000752D282F2295207F832F0E94752D290FF1
:10227000288780EDBE016F5F7F4F48E050E00E94ED
:10228000680D28960FB6F894DEBF0FBECDBFCF9174
:10229000DF910895DF93CF9300D000D0CDB7DEB7A4
:1022A00087E0898380E88A831B821C8280EDBE01DF
:1022B0006F5F7F4F44E050E00E94680D0F900F90D9
:1022C0000F900F90CF91DF9108950F931F93DF939D
:1022D000CF93CDB7DEB728970FB6F894DEBF0FBE09
:1022E000CDBF8C01198280EDBE016F5F7F4F41E051
:1022F00050E00E94680D80EDBE016E5F7F4F47E0A9
:1023000050E00E94940D5A81852F90E08077907064
:1023100095958795959587959595879595958795A5
:102320009C01220F331F220F331F220F331F880FF0
:10233000991F280F391F5F70520F952F9295907F2C
:10234000F801838D8F70892B838F52955F704B813D
:10235000842F90E0807790709595879595958795D7
:1023600095958795959587959C01220F331F220F90
:10237000331F220F331F880F991F280F391F4F70EB
:10238000420F440F440F5370542B548F4C81842FB1
:1023900090E0807390709595879595958795959524
:1023A0008795959587959C01220F331F220F331F28
:1023B000220F331F880F991F280F391F4F70420FAC
:1023C0008D818295880F807E4F71482B458F4E817D
:1023D000842F90E08073907095958795959587955B
:1023E00095958795959587959C01220F331F220F10
:1023F000331F220F331F880F991F280F391F4F706B
:10240000420F5F81852F90E0807190709595879540
:102410009595879595958795959587959C01220F1C
:10242000331F220F331F220F331F880F991F280FCE
:10243000391F5F70520F852F8295880F807E4F71F4
:10244000482B468F5695569556954885842F8295EC
:102450008F7090E09C01220F331F220F331F220F39
:10246000331F880F991F280F391F4F70420F440FD9
:102470005170542B578F28960FB6F894DEBF0FBEBD
:10248000CDBFCF91DF911F910F910895CF92DF9231
:10249000EF92FF920F931F93DF93CF93CDB7DEB7E9
:1024A00027970FB6F894DEBF0FBECDBF8C017B011E
:1024B0006A0182E3898386EABE016F5F7F4F41E054
:1024C00050E00E94680D86EABE016E5F7F4F46E0D5
:1024D00050E00E94940D8A812091390330913A0393
:1024E000280F311D9B8180E0280F391FF8013183AF
:1024F00020838C8120913B0330913C03280F311DB8
:102500009D8180E0280F391FF701318320838E8160
:1025100020913D0330913E03280F311D9F8180E0C3
:10252000280F391FF6013183208327960FB6F894C0
:10253000DEBF0FBECDBFCF91DF911F910F91FF90F6
:10254000EF90DF90CF9008952F923F924F925F923D
:102550006F927F928F929F92AF92BF92CF92DF92B3
:10256000EF92FF920F931F93DF93CF93CDB7DEB718
:1025700027970FB6F894DEBF0FBECDBF82E38983E5
:1025800022E0822E912C8C0E9D1E92E0692E712CE1
:10259000680C791C86E0282E312C2C0E3D1E00E0A4
:1025A00010E0EE24FF24CC24DD24AA24BB242E0139
:1025B0000894411C511C86EAB20141E050E00E949F
:1025C000680D86EAB40146E050E00E94940DF401E3
:1025D00080819181E80EF91EF30180819181C80EFE
:1025E000D91EF10180819181A80EB91E0F5F1F4F86
:1025F0000A30110501F7C70166EF7FEF0E94952DA4
:10260000262F6093390370933A03C60166EF7FEF7C
:102610000E94952D70933C0360933B03C50166EFC8
:102620007FEF0E94952D605C7F4F70933E03609317
:102630003D0388E190E0622F0E94411487E190E021
:1026400060913A030E9441148AE190E060913B035B
:102650000E94411489E190E060913C030E94411482
:102660008CE190E060913D030E9441148BE190E089
:1026700060913E030E94411427960FB6F894DEBF86
:102680000FBECDBFCF91DF911F910F91FF90EF90C3
:10269000DF90CF90BF90AF909F908F907F906F9082
:1026A0005F904F903F902F9008950F931F93DF936B
:1026B000CF9300D000D000D0CDB7DEB78AE28B83B5
:1026C0001C828E010D5F1F4F86EAB80142E050E088
:1026D0000E94680D8CE28B838EE08C8386EAB801C1
:1026E00042E050E00E94680D8DE28B8388E08C838D
:1026F00086EAB80142E050E00E94680D8EE28B83CA
:102700001C8286EAB80142E050E00E94680D81E335
:102710008B8382E08C8386EAB80142E050E00E941D
:10272000680D88E38B838FE08C8386EAB80142E0F2
:1027300050E00E94680D8FE18B831C821D821E82F7
:1027400086EAB80144E050E00E94680D88E190E01C
:102750000E943C14898387E190E00E943C148A83A4
:1027600089819A8190933A03809339038AE190E0BA
:102770000E943C14898389E190E00E943C148A8382
:1027800089819A8190933C0380933B038CE190E094
:102790000E943C1489838BE190E00E943C148A8360
:1027A00089819A8190933E0380933D0326960FB6CC
:1027B000F894DEBF0FBECDBFCF91DF911F910F9177
:1027C0000895CF93DF93FC01EB01228133818A814D
:1027D0009B812817390721F080E0DF91CF91089580
:1027E000208131818881998128173907A9F72681AD
:1027F00037818E819F812817390771F724813581B0
:102800008C819D812817390739F720853185888586
:1028100099852817390701F7228533854485558521
:102820008A859B85AC85BD85281739074A075B07D4
:1028300099F6268537858E859F852817390761F695
:10284000DF01FB0120E030E050969C915097808999
:10285000981711F62F5F3F4F1196319620313105B1
:1028600099F781E0BACF60913F0370914003809166
:102870004103909142030895F999FECF0E94422EA0
:1028800008951F93CF93DF93EC01162FF999FECF94
:10289000CE010E943C14811721F0CE01612F0E94CD
:1028A0004A2EDF91CF911F91089580E090E063E080
:1028B0000E94411481E090E068EE0E9441148CE097
:1028C00090E061E00E9441148FE090E061E00E949E
:1028D000411482E190E061E00E94411485E190E0C2
:1028E00061E00E94411486E190E064E00E9441149E
:1028F00008950E94910110923F031092400310929C
:102900004103109242030895BC0180913F039091CE
:102910004003A0914103B09142038096A11DB11DD7
:1029200080509040A042B04018F020E0822F0895DF
:102930008FE393E040E250E00E94B300282F8091A3
:102940003F0390914003A0914103B09142038096D0
:10295000A11DB11D80933F0390934003A0934103B9
:10296000B0934203822F08952F923F924F925F922D
:102970006F927F928F929F92AF92BF92CF92DF928F
:10298000EF92FF920F931F93DF93CF93CDB7DEB7F4
:10299000A4970FB6F894DEBF0FBECDBFE0E2F1E022
:1029A0008FEF819391E0E033F907D9F710923F035D
:1029B0001092400310924103109242031E010894AA
:1029C000211C311CA5E04A2E512C4C0E5D1EFEEF41
:1029D0006F2EFFEF7F2E812C912CAA24BB24650142
:1029E00086017501E60CF71C081D191D1695079543
:1029F000F794E794D801C701880F991FAA1FBB1F3E
:102A0000880F991FAA1FBB1F880F991FAA1FBB1FE2
:102A1000880F991FAA1FBB1F880F991FAA1FBB1FD2
:102A200089839A83AB83BC83C101B20140E250E049
:102A30000E943501C20160E171E00E94E113882328
:102A400009F44FC0370148010894610871088108F2
:102A500091086A147B048C049D0408F051C0D601CF
:102A6000C501880F991FAA1FBB1F880F991FAA1F96
:102A7000BB1F880F991FAA1FBB1F880F991FAA1F72
:102A8000BB1F880F991FAA1FBB1F80933F03909302
:102A90004003A0934103B093420380E09EEFA91648
:102AA0009FEFB90690E0C90690E0D90609F081E0F1
:102AB000A4960FB6F894DEBF0FBECDBFCF91DF91C5
:102AC0001F910F91FF90EF90DF90CF90BF90AF904C
:102AD0009F908F907F906F905F904F903F902F903E
:102AE0000895570168010894A11CB11CC11CD11C98
:102AF0006A147B048C049D0418F464015301AFCF65
:102B0000A614B704C804D90409F06ACFA8CF0E945C
:102B100087018BEF93E060E00E9441140E94B4149F
:102B20000895813089F1813030F0823009F441C05C
:102B30008330B1F00895613009F4B3C0613008F01A
:102B400077C081B121E030E002C0220F331F4A95E7
:102B5000E2F72095822381B982B1282322B9089512
:102B6000613009F4ADC0613008F04EC081B121E0A0
:102B700030E002C0220F331F4A95E2F7822B81B961
:102B800082B1282B22B90895613009F4A7C06130C1
:102B900028F531B181E090E002C0880F991F4A9575
:102BA000E2F7282F2095232321B922B1822B82B965
:102BB0000895613009F466C0613008F04EC081B1FB
:102BC00021E030E002C0220F331F4A95E2F7822B4A
:102BD00081B982B12095282322B90895623009F481
:102BE000B9C0633009F0A6CF3AB181E090E002C0ED
:102BF000880F991F4A95E2F7282F209523232AB999
:102C00002BB1822B8BB90895623009F486C06330F2
:102C100009F090CF8AB121E030E002C0220F331FCB
:102C20004A95E2F7822B8AB98BB1282B2BB90895EC
:102C3000623009F463C0633009F07CCF8AB121E0CF
:102C400030E002C0220F331F4A95E2F7209582231D
:102C50008AB98BB128232BB90895623009F46BC06F
:102C6000633009F067CF8AB121E030E002C0220F63
:102C7000331F4A95E2F7822B8AB98BB1209528231E
:102C80002BB9089584B121E030E002C0220F331F38
:102C90004A95E2F7822B84B985B12095282325B97E
:102CA000089584B121E030E002C0220F331F4A951D
:102CB000E2F72095822384B985B1282325B90895A8
:102CC00084B121E030E002C0220F331F4A95E2F7C1
:102CD000822B84B985B1282B25B9089534B181E0C0
:102CE00090E002C0880F991F4A95E2F7282F20959F
:102CF000232324B925B1822B85B9089587B121E01A
:102D000030E002C0220F331F4A95E2F7209582235C
:102D100087B988B1282328B9089587B121E030E028
:102D200002C0220F331F4A95E2F7822B87B988B180
:102D3000282B28B9089587B121E030E002C0220F86
:102D4000331F4A95E2F7822B87B988B12095282353
:102D500028B9089537B181E090E002C0880F991F2B
:102D60004A95E2F7282F2095232327B928B1822BF3
:102D700088B908958130E9F0813028F0823021F15E
:102D8000833061F0089522B181E090E002C0880FA5
:102D9000991F6A95E2F7282722B908952BB181E09F
:102DA00090E002C0880F991F6A95E2F728272BB997
:102DB000089525B181E090E002C0880F991F6A95BF
:102DC000E2F7282725B9089528B181E090E002C0F4
:102DD000880F991F6A95E2F7282728B90895EF927E
:102DE000FF920F931F93DF93CF9300D00F92CDB735
:102DF000DEB78C017B0183E0898384EBBE016F5FCA
:102E00007F4F41E050E00E94680D84EBBE016E5F91
:102E10007F4F42E050E00E94940D9A81892F829565
:102E20008F70F80180839295907F8B818F70980FBF
:102E3000F70190830F900F900F90CF91DF911F912A
:102E40000F91FF90EF9008950F931F93DF93CF930F
:102E500000D0CDB7DEB781E089831A8284EB8E0182
:102E60000F5F1F4FB80142E050E00E94680D84E6FA
:102E700090E00E94840882E0898383EC8A8384EB5B
:102E8000B80142E050E00E94680D84EBB80141E0D7
:102E900050E00E94680D84EBBE016E5F7F4F41E001
:102EA00050E00E94940D0F900F90CF91DF911F91F1
:102EB0000F9108951F920F920FB60F9211248F93C6
:102EC0009F9380916C0390916D03019690936D0395
:102ED00080936C039F918F910F900FBE0F901F9066
:102EE0001895CF93DF93EC010E946F0810926F0347
:102EF00010926E0310924403109243039093480380
:102F00008093470310924A031092490390934E0313
:102F100080934D0322E020933001109250031092D1
:102F20004F039093540380935303109256031092CF
:102F3000550390935A038093590310925C031092A7
:102F40005B039093600380935F031092620310927F
:102F500061039093660380936503809171038823D6
:102F600061F41F861E861A861B861C861D8682E0DB
:102F700090E090936F0380936E0380917003882399
:102F800071F480E29EE4998388831B821A829D8378
:102F90008C831F821E8280E69AEE99878887DF9154
:102FA000CF9108950F931F93DF93CF93CDB7DEB7E3
:102FB00028970FB6F894DEBF0FBECDBF8C0160918D
:102FC00045037091460383E493E047E453E020E037
:102FD0000E94A508882309F08CC180917103882381
:102FE00009F05DC160915103709152038FE493E049
:102FF00043E553E020E00E94A5088823C1F08091BA
:103000006B03813009F430C183E00E94B707F801F7
:10301000818F9370828D8C7F892B828F80916E033C
:1030200090916F03846090936F0380936E0360911F
:1030300057037091580385E593E049E553E020E09C
:103040000E94A5088823C1F080916B03823009F4A7
:1030500004C183E00E94B707F801818F9370828DCD
:103060008C7F892B828F80916E0390916F03886093
:1030700090936F0380936E0360915D0370915E0384
:103080008BE593E04FE553E020E00E94A5088823FC
:1030900041F180916B03833009F0C0C020916C0333
:1030A00030916D0336952795922F9295907FF80178
:1030B00086898F70892B868B422F42954F70878926
:1030C000807C932F93709295907F842B892B878B94
:1030D00080916E0390916F03806190936F03809352
:1030E0006E03609163037091640381E693E045E6AB
:1030F00053E020E00E94A508882339F180916B03FA
:10310000843009F057C080916C0390916D039695BF
:103110008795382F3295330F330F307CF80127898C
:103120002F73232B278B292F2295220F220F207CF0
:1031300086958695822B808F80916E0390916F0388
:10314000806290936F0380936E0380917003882355
:1031500009F053C06091390170913A0187E391E021
:103160004BE351E020E00E94A508882309F03BC111
:1031700060913F01709140018DE391E041E451E0A5
:1031800020E00E94A508882309F075C020E0809106
:103190006E0390916F03CF9709F47FC0822F28961A
:1031A0000FB6F894DEBF0FBECDBFCF91DF911F9158
:1031B0000F91089586E00E94B707382F3295330F9C
:1031C000330F307CF80127892F73232B278B92959F
:1031D000990F990F907C86958695892B808F809189
:1031E0006E0390916F03806290936F0380936E03E0
:1031F00080917003882309F4ADCF60913301709101
:10320000340181E391E045E351E020E00E94A5080C
:10321000882309F49FCF0E941B079CCF85E00E9462
:10322000B707382F3295307FF80126892F70232B6E
:10323000268B82958F702789207C93709295907F42
:10324000282B292B278B80916E0390916F0380612F
:1032500090936F0380936E0344CF80916C039091A1
:103260006D0396958795F8CE80916C0390916D03D0
:1032700096958795CCCE80E00E94B707805192400A
:1032800008F084CF84E00E940A0920E080916E0358
:1032900090916F03CF9709F081CF21E07FCF6091AC
:1032A0004B0370914C0389E493E04DE453E020E03C
:1032B0000E94A508882309F495CE8091300190E002
:1032C000019663E070E00E94952D8093300181307B
:1032D00009F4C8C0813008F0ACC00E94E80D8091AC
:1032E0004B0390914C03069790934A0380934903B4
:1032F00079CECE010396BE016B5F7F4FAE01495F71
:103300005F4F0E9446128B81F801808B8C812D814A
:10331000922F990F990F8370892B818B2295269577
:10332000269523708E818370880F880F3F81932F9D
:103330009295907F822B892B828B32953F70838967
:10334000807C988593709295907F832B892B838BBB
:10335000CE010196BE016E5F7F4F0E94EF169981EC
:10336000292F2295220F220F207CF80183898F7349
:10337000822B838B969596952A81822F880F880FB2
:103380009370982B948B229526952695237085898A
:103390008C7F822B858BC8010E94651187E00E947B
:1033A000B707382F330F330FF80125892370232BEC
:1033B000258B82958695869583702689207F9370CC
:1033C000990F990F282B292B268B80917003882326
:1033D00031F580916E0390916F03816090936F033C
:1033E00080936E03FACD80E00E94B7078F5292401F
:1033F00060F080E00E94B7078F52924008F4B8CE88
:1034000084E061E00E943509B3CE80E00E94B707F6
:103410008051924070F384E00E940A09A9CEC8014D
:103420000E9435058823C9F085E061E00E943509D6
:10343000D0CF823009F0D6CD0E94FE0DF801628710
:1034400073878487958780916E0390916F03826064
:1034500090936F0380936E03C5CD85E060E00E947A
:103460003509B7CF0E94860FF801978786870E949B
:10347000D20D80914B0390914C03069790934A0391
:1034800080934903AFCDEF92FF920F931F93CF9399
:10349000DF93182F80E061E00E946F070E943F08D1
:1034A0000E94140A0E945D0D0E9409100E9455138B
:1034B0000E942417112309F015C180E090E00E94BA
:1034C0003C14182F00E081E090E00E943C14080FAB
:1034D000111D8CE090E00E943C14809367038FE004
:1034E00090E00E943C148093680382E190E00E9487
:1034F0003C148093690385E190E00E943C14809322
:103500006A0386E190E00E943C14109270038823C5
:1035100019F081E080937003109271030931110555
:1035200018F081E0809371030A30110508F07CC027
:103530000AE010E0C5E0D0E0EE24EA94FE2C12B8D8
:1035400082B181B982E062E045E050E00E949115CD
:1035500082E062E044E050E00E949115F89480918E
:1035600069008E7F80936900809169008D7F8093D0
:10357000690080916B008F7B80936B0010926800D4
:1035800010926B0380916703882309F48DC08091AA
:103590006803882309F452C080916903882309F0E5
:1035A000A4C0809169008160809369008091690066
:1035B00082608093690080916B00806480936B00CF
:1035C0008091680080628093680083E080936B0341
:1035D0007894D0934603C0934503F0924C03E09255
:1035E0004B0380916B03813009F450C0D093520398
:1035F000C0935103823009F43FC0D0935803C09365
:103600005703833009F08EC010935E0300935D036F
:103610008E011093640300936303DF91CF911F9198
:103620000F91FF90EF900895E801D695C7957AEF36
:10363000E72E7FEFF72EEC0EFD1E81CF8091690003
:103640008160809369008091690082608093690045
:1036500080916B00806480936B0080916800806132
:103660008093680083E062E044E050E00E9491159E
:1036700082E080936B03ACCF109358030093570301
:10368000D0935E03C0935D038E01C3CF10935203AA
:1036900000935103D0935803C0935703D0935E0314
:1036A000C0935D038E01B5CF8091690081608093E6
:1036B00069008091690082608093690080916B004D
:1036C000806480936B0080916800886080936800BC
:1036D00083E062E045E050E00E94911581E0809334
:1036E0006B0376CF0E944E07E8CE80916A03882351
:1036F00009F06ECF809169008160809369008091AC
:10370000690082608093690080916B00806480937F
:103710006B008091680080648093680084E08093EF
:103720006B0356CFD0935E03C0935D03843009F4DE
:1037300070CF8E016ECF0F931F93F8940E94490DA6
:103740000091CC0081E010E020E030E040E050E06B
:1037500060E070E00E944F0281E00E94431A0E94E4
:10376000871581E00E94F508882351F100E010E000
:1037700082E390E00E94840881E00E940A0982E0CE
:103780000E940A0983E00E940A0984E00E940A0953
:103790000F5F1F4F0233110559F70E94A4120E94B8
:1037A0004A110E9455140E94170D2BE088E190E009
:1037B0000FB6F894A895809360000FBE2093600028
:1037C000789488EE93E00E94840881E01F910F9125
:1037D00008958F929F92AF92BF92CF92DF92EF9215
:1037E000FF920F931F93DF93CF93CDB7DEB7A897C8
:1037F0000FB6F894DEBF0FBECDBF0E949B1B6E01BB
:103800000894C11CD11C88E0F60111928A95E9F751
:1038100029E0E22EF12CEC0EFD1EC7010E9471176B
:1038200080E090E00E943C14182F00E01C830B8382
:1038300081E090E00E943C14080F111D1C830B8353
:103840000A30110520F48AE090E09C838B8310E01D
:1038500095E0892E912C8C0E9D1E87E0A82EB12C10
:10386000AC0EBD1EC6010E949209C6010E94D30B78
:10387000C7010E94D217082F6B817C81C401A5016A
:1038800020E00E94A50890E0212F30E0822B932BAE
:1038900010E0892B09F011E0002321F3112311F32B
:1038A00089818823D9F48A81882389F000E010E097
:1038B000E0E0F0E0EE0DFF1D81E060810E94150266
:1038C0000F5F1F4FF80100321105A1F71A821E8207
:1038D0001D82C7010E94711710E0C4CFC7010E946A
:1038E0008414F5CFEF92FF920F93DF93CF93CDB770
:1038F000DEB760970FB6F894DEBF0FBECDBFA82F1E
:10390000002309F461C07E010894E11CF11C88E0E9
:10391000F70111928A95E9F729833A834B835C83F7
:103920006D837E83AF83988780E2801BE82FFF271B
:10393000E7FDF09549815A816B817C81181684F0EE
:1039400019861A861B861C86882799278E1B9F0B33
:1039500004C0440F551F661F771F8A95D2F728C0F1
:10396000202F332727FD3095DB01CA01022E04C02A
:10397000880F991FAA1FBB1F0A94D2F789879A87BD
:10398000AB87BC8704C07695679557954795EA95B0
:10399000D2F78D819E81AF81B88504C0880F991FB1
:1039A000AA1FBB1F2A95D2F7482B592B6A2B7B2BBA
:1039B0004D875E876F87788B29853A854B855C8537
:1039C0006D857E85AF8598898A2F60960FB6F894AD
:1039D000DEBF0FBECDBFCF91DF910F91FF90EF9073
:1039E0000895A2E7B0E0E7EFFCE10C94E52D982EF6
:1039F000892E712E88E0FE013196DF01682E1D921E
:103A00006A94E9F729833A834B835C836D837E83D1
:103A10009F829887FE013996DF011D928A95E9F70A
:103A2000A986BA86CB86DC86ED86FE860F87188B44
:103A30008D819E81AF81B885B7FD07C0E1961CAE30
:103A40001DAE1EAE1FAEE19764C0219581E0121637
:103A500008F080E0319591E0131608F090E0B32F64
:103A6000B81B81E03B1708F080E0982B419531E0CE
:103A7000141608F030E0A42FA91B81E04A1708F0C3
:103A800080E0382B519591E0151608F090E0F52F65
:103A9000F31B81E05F1708F080E0982B619531E01F
:103AA000161608F030E0E62FE91B81E06E1708F0EB
:103AB00080E0382B719541E0171608F040E0572F51
:103AC000531B81E0751708F080E0482B892D819504
:103AD00091E0181608F090E0682E641A462D31E047
:103AE000861508F030E0932B882D8195891B29835A
:103AF000BA83AB83FC83ED835E834F8388872FEF8C
:103B00003FEF4FEF5FEFE1962CAF3DAF4EAF5FAFB2
:103B1000E1978D859E85AF85B889B7FF6AC0E1962C
:103B20004CAD5DAD6EAD7FADE19740955095609524
:103B30007095E1964CAF5DAF6EAF7FAFE197A1940A
:103B400081E01A1408F080E0B19491E01B1408F0B1
:103B500090E06B2D681B81E0B61608F080E0982B92
:103B6000C19421E01C1408F020E05C2D591B81E079
:103B7000C51608F080E0282BD19491E01D1408F0C0
:103B800090E04D2D421B81E0D41608F080E0982B88
:103B9000E19421E01E1408F020E03E2D391B81E065
:103BA000E31608F080E0282BF19491E01F1408F050
:103BB00090E07F2D721B272F81E0F71608F080E040
:103BC000982B019511E0101608F010E0802F891B4A
:103BD000982F81E0091708F080E0182B872D819538
:103BE000811BA9866A875B874C873D872E879F87C5
:103BF000888B99812A813B814C815D816E817F8197
:103C0000A885B9851A850B85FC84ED84DE84CF8474
:103C1000B88888E0E1E18E2E912C8C0E9D1EF40177
:103C2000682E11926A94E9F7998B2A8B3B8B4C8B07
:103C30005D8B6E8B7F8BA88F9E01275E3F4FF901B6
:103C400011928A95E9F7B98F1A8F0B8FFC8EED8E42
:103C5000DE8ECF8EB8A2298C3A8C4B8C5C8CED8C8E
:103C6000FE8C0F8D18A169887A888B889C88219694
:103C70006CAE7DAE8EAE9FAE21976D887E888F88AC
:103C8000988CE114F1040105110509F0D9C36214FF
:103C900073048404950408F057C100E0201600E086
:103CA000300601E0400600E0500688F41FEF2116C0
:103CB00031044104510439F030F048E0E42EF12C95
:103CC000012D112D18C0EE24FF24870114C020E01F
:103CD000221620E0320620E0420621E0520630F0B3
:103CE00038E1E32EF12C012D112D05C020E1E22E4B
:103CF000F12C012D112DD201C1010E2C04C0B6955D
:103D0000A795979587950A94D2F78D5B9E4FDC0116
:103D10002C9180E290E0A0E0B0E08E199F09A00B0A
:103D2000B10B7C018D01E21AF10801091109E114BE
:103D3000F10401051105D1F10E2C04C0220C331C35
:103D4000441C551C0A94D2F7A40193010E2C04C004
:103D5000220F331F441F551F0A94D2F780E290E0D0
:103D60008E199F0921966CAC7DAC8EAC9FAC2197CF
:103D700004C096948794779467948A95D2F7622AC0
:103D8000732A842A952A2196ACACBDACCEACDFACAC
:103D9000219704C0AA0CBB1CCC1CDD1CEA94D2F7F2
:103DA0002196ACAEBDAECEAEDFAE21976201EE2461
:103DB000FF242996CCAEDDAEEEAEFFAE2997920180
:103DC0008101207030702D960CAF1DAF2EAF3FAF2C
:103DD0002D97C401B301A70196010E94A82D7B0174
:103DE0008C01C401B30129962CAD3DAD4EAD5FAD44
:103DF00029970E94A82DC901DA013C014D01C40197
:103E0000B3012D962CAD3DAD4EAD5FAD2D970E940B
:103E1000562D9B01AC018701FF24EE242196ACAC0A
:103E2000BDACCEACDFAC2197C601AA27BB2757019A
:103E30006801A82AB92ACA2ADB2AA216B306C40630
:103E4000D506E0F408946108710881089108A20C75
:103E5000B31CC41CD51CA214B304C404D50470F054
:103E6000A216B306C406D50648F408946108710882
:103E700081089108A20CB31CC41CD51CA21AB30A59
:103E8000C40AD50AC601B50129962CAD3DAD4EAD8B
:103E90005FAD29970E94A82D7B018C01C601B50159
:103EA00029962CAD3DAD4EAD5FAD29970E94A82D52
:103EB000C901DA015C016D01C601B5012D962CAD79
:103EC0003DAD4EAD5FAD2D970E94562D9B01AC01CF
:103ED0008701FF24EE2421968CAD9DADAEADBFAD24
:103EE0002197A070B070E82AF92A0A2B1B2BE21642
:103EF000F30604071507C0F40894A108B108C10827
:103F0000D108E20CF31C041D151DE214F304040592
:103F1000150550F0E216F3060407150728F4089477
:103F2000A108B108C108D108D301992788278601C3
:103F30007501E82AF92A0A2B1B2B2596ECAEFDAE5B
:103F40000EAF1FAF2597EBC4211431044104510477
:103F500071F461E070E080E090E020E030E040E06B
:103F600050E00E94A82DC901DA011C012D0100E0DA
:103F7000201600E0300601E0400600E0500688F41C
:103F80001FEF211631044104510431F028F048E0BC
:103F900050E060E070E017C040E050E060E070E0AA
:103FA00012C020E0221620E0320620E0420621E086
:103FB000520628F048E150E060E070E004C040E1C3
:103FC00050E060E070E0D201C101042E04C0B6955B
:103FD000A795979587950A94D2F78D5B9E4FDC0144
:103FE0002C91E0E2EE2EF12C012D112DD801C7010C
:103FF000841B950BA60BB70B821B9109A109B10974
:104000000097A105B10561F464015301A218B3083A
:10401000C408D50831E0632E712C812C912C24C169
:10402000E3968FAFE397082E04C0220C331C441C88
:10403000551C0A94D2F7EE2DE81B640153010E2E95
:1040400004C0D694C794B794A7940A94D2F7A40155
:104050009301E3960FACE39704C0220F331F441F74
:10406000551F0A94D2F721966CAC7DAC8EAC9FACF8
:1040700021970E2E04C096948794779467940A949F
:10408000D2F784017301E22AF32A042B152BE9AE3F
:10409000FAAE0BAF1CAF3201882499249201810142
:1040A0002070307061960CAF1DAF2EAF3FAF61979F
:1040B000C601B501A40193010E94A82D7B018C01CA
:1040C000C601B501A40193010E94A82DC901DA011E
:1040D00065968CAF9DAFAEAFBFAF6597BC01CD010C
:1040E00061962CAD3DAD4EAD5FAD61970E94562DF2
:1040F0009B01AC018701FF24EE24A9ACBAACCBAC88
:10410000DCACC601AA27BB275C016D01AE28BF2825
:10411000C02AD12AA216B306C406D50660F5659654
:104120006CAD7DAD8EAD9FAD6597615070408040A8
:10413000904065966CAF7DAF8EAF9FAF6597A20C38
:10414000B31CC41CD51CA214B304C404D50498F039
:10415000A216B306C406D50670F4615070408040C4
:10416000904065966CAF7DAF8EAF9FAF6597A20C08
:10417000B31CC41CD51CA21AB30AC40AD50AC601B2
:10418000B501A40193010E94A82D7B018C01C601F9
:10419000B501A40193010E94A82DC901DA013C01D7
:1041A0004D01C401B30161962CAD3DAD4EAD5FAD87
:1041B00061970E94562D9B01AC018701FF24EE24DC
:1041C00089AD9AADABADBCADA070B07057016801C0
:1041D000A82AB92ACA2ADB2AA216B306C406D5061B
:1041E000E0F408946108710881089108A20CB31CDE
:1041F000C41CD51CA214B304C404D50470F0A216C8
:10420000B306C406D50648F408946108710881080D
:104210009108A20CB31CC41CD51C21968CAD9DAD7D
:10422000AEADBFAD2197E3960FACE39704C0880F06
:10423000991FAA1FBB1F0A94D2F721968CAF9DAF7E
:10424000AEAFBFAF2197A21AB30AC40AD50A6596CA
:10425000ECACFDAC0EAD1FAD6597D7019927882753
:10426000682A792A8A2A9B2A82012227332769967B
:104270000CAF1DAF2EAF3FAF6997A2019101407007
:1042800050706D962CAF3DAF4EAF5FAF6D97C601CE
:10429000B50169962CAD3DAD4EAD5FAD69970E94FD
:1042A000A82D7B018C01C601B50169962CAD3DADF1
:1042B0004EAD5FAD69970E94A82DC901DA01A196A4
:1042C0008CAF9DAFAEAFBFAFA197BC01CD016D96D6
:1042D0002CAD3DAD4EAD5FAD6D970E94562D9B014F
:1042E000AC018701FF24EE242196ACACBDACCEAC72
:1042F000DFAC2197C601AA27BB2757016801A82A6E
:10430000B92ACA2ADB2AA216B306C406D50660F566
:10431000A1966CAD7DAD8EAD9FADA1976150704003
:1043200080409040A1966CAF7DAF8EAF9FAFA197BC
:10433000A20CB31CC41CD51CA214B304C404D50421
:1043400098F0A216B306C406D50670F4615070400A
:1043500080409040A1966CAF7DAF8EAF9FAFA1978C
:10436000A20CB31CC41CD51CA21AB30AC40AD50AD9
:10437000C601B50169962CAD3DAD4EAD5FAD6997F7
:104380000E94A82D7B018C01C601B50169962CAD58
:104390003DAD4EAD5FAD69970E94A82DC901DA0110
:1043A0005C016D01C601B5016D962CAD3DAD4EAD04
:1043B0005FAD6D970E94562D9B01AC018701FF24D4
:1043C000EE2421968CAD9DADAEADBFAD2197A07012
:1043D000B070E82AF92A0A2B1B2BE216F306040711
:1043E0001507C0F40894A108B108C108D108E20C6F
:1043F000F31C041D151DE214F3040405150550F00B
:10440000E216F3060407150728F40894A108B1087A
:10441000C108D108A196ECACFDAC0EAD1FADA197C3
:10442000D7019927882796018501082B192B2A2B5C
:104430003B2B25960CAF1DAF2EAF3FAF259772C219
:104440006E147F048006910608F45FC220E0E21635
:1044500020E0F20621E0020720E0120788F43FEF97
:10446000E316F1040105110531F028F048E050E0B1
:1044700060E070E017C040E050E060E070E012C023
:1044800040E0E41640E0F40640E0040741E0140791
:1044900028F048E150E060E070E004C040E150E006
:1044A00060E070E0D801C701042E04C0B695A7955E
:1044B000979587950A94D2F78D5B9E4FDC012C91DE
:1044C00030E2A32EB12CC12CD12CD601C501841B06
:1044D000950BA60BB70B821B9109A109B109009797
:1044E000A105B10599F4E614F7040805190508F4C7
:1044F000FEC121966CAC7DAC8EAC9FAC2197621452
:1045000073048404950408F0F2C1FFC1E2968FAFF2
:10451000E297082E04C0EE0CFF1C001F111F0A9426
:10452000D2F76A2D681BD201C101062E04C0B695D0
:10453000A795979587950A94D2F75C016D01AE28EF
:10454000BF28C02AD12AADAABEAACFAAD8AE72016E
:104550006101E2960FACE29704C0CC0CDD1CEE1CAE
:10456000FF1C0A94D2F7C9AADAAAEBAAFCAA640132
:104570005301062E04C0D694C794B794A7940A9406
:10458000D2F7D401C301E2960FACE29704C0880FC2
:10459000991FAA1FBB1F0A94D2F72196ECACFDAC61
:1045A0000EAD1FAD219704C016950795F794E794BB
:1045B0006A95D2F737014801682A792A8A2A9B2A04
:1045C0006DA67EA68FA698AAEDA8FEA80FA918AD85
:1045D0003801882499249801870120703070A596AD
:1045E0000CAF1DAF2EAF3FAFA597C601B501A4011B
:1045F00093010E94A82D7B018C01C601B501A40185
:1046000093010E94A82DC901DA011C012D01C201EC
:10461000B101A5962CAD3DAD4EAD5FADA5970E9405
:10462000562D9B01AC018701FF24EE24ADA4BEA44E
:10463000CFA4D8A8C601AA27BB2757016801A82A7A
:10464000B92ACA2ADB2AA216B306C406D50600F583
:1046500008942108310841085108EDA8FEA80FA9C7
:1046600018ADAE0CBF1CC01ED11EAE14BF04C006D8
:10467000D10670F0A216B306C406D50648F4089415
:104680002108310841085108AE0CBF1CC01ED11EC4
:10469000A21AB30AC40AD50AC601B501A40193013E
:1046A0000E94A82D7B018C01C601B501A4019301D4
:1046B0000E94A82DC901DA013C014D01C401B301DA
:1046C000A5962CAD3DAD4EAD5FADA5970E94562D84
:1046D0009B01AC018701FF24EE248DA59EA5AFA50B
:1046E000B8A9A070B07057016801A82AB92ACA2ACF
:1046F000DB2AA216B306C406D50600F508946108A5
:104700007108810891086DA97EA98FA998ADA60EA0
:10471000B71EC81ED91EA616B706C806D90670F061
:10472000A216B306C406D50648F4089461087108B9
:1047300081089108A60EB71EC81ED91ED601C50154
:10474000821B930BA40BB50B89A79AA7ABA7BCA799
:10475000D1019927882764015301A82AB92ACA2AB6
:10476000DB2A2596ACAEBDAECEAEDFAE2597860178
:1047700075012FEF3FEF40E050E0E222F3220423E7
:104780001523A60166277727AD964CAF5DAF6EAFB8
:104790007FAFAD97A9A8BAA8CBA8DCA86FEF7FEF31
:1047A00080E090E0A622B722C822D92289A99AA93E
:1047B000ABA9BCA91D0144245524C801B701A60119
:1047C00095010E94562DA9966CAF7DAF8EAF9FAF1D
:1047D000A997C801B701A20191010E94562D3B0182
:1047E0004C01AD966CAD7DAD8EAD9FADAD97A60184
:1047F00095010E94562D7B018C01AD966CAD7DAD6F
:104800008EAD9FADAD97A20191010E94562D5B0127
:104810006C01A8019701260D371D481D591DA99649
:104820006CAC7DAC8EAC9FACA997C401AA27BB270A
:10483000280F391F4A1F5B1F2E153F0540075107E0
:1048400048F4E12CF12C61E0062F112DAE0CBF1CB9
:10485000C01ED11ECA01AA27BB27BC01CD016A0D0B
:104860007B1D8C1D9D1D69A47AA48BA49CA4661637
:1048700077068806990650F166157705880599052B
:1048800009F04DC0D90199278827A9962CAD3DADD7
:104890004EAD5FADA99740705070820F931FA41F5B
:1048A000B51F21962CAD3DAD4EAD5FAD2197E29683
:1048B0000FACE29704C0220F331F441F551F0A9408
:1048C000D2F7281739074A075B0748F525960CAD3C
:1048D0001DAD2EAD3FAD259701501040204030401A
:1048E00025960CAF1DAF2EAF3FAF259718C066249D
:1048F0007724430121E030E040E050E025962CAFE2
:104900003DAF4EAF5FAF25970DC0662477244301BE
:1049100025961CAE1DAE1EAE1FAE259703C06624A5
:1049200077244301FE01B19688E0DF011D928A954C
:10493000E9F72596ACACBDACCEACDFAC2597A9A20F
:10494000BAA2CBA2DCA26DA27EA28FA298A62296CA
:104950002FAD22973AA14BA15CA1662D7EA1DFA0CD
:1049600098A5E196ECACFDAC0EAD1FADE197E1145E
:10497000F1040105110509F456C0219581E01216D4
:1049800008F080E03195E1E0131608F0E0E0932EA6
:10499000981A81E0391508F080E0E82B4195F1E0A4
:1049A000141608F0F0E0A42EAE1A81E04A1508F0C3
:1049B00080E0F82B5195E1E0151608F0E0E0B52E07
:1049C000BF1A81E05B1508F080E0E82B6195F1E00B
:1049D000161608F0F0E0A62FAE1B81E06A1708F06B
:1049E00080E0F82B7195E1E0171608F0E0E0C72EA3
:1049F000CF1A81E07C1508F080E0E82B8D2D8195A1
:104A0000F1E0181608F0F0E0D82EDE1AE1E08D157E
:104A100008F0E0E0FE2B892F8195392DA5016A2F42
:104A20007C2D982F9F1B8D2DCE58DF4FE2E10C94EB
:104A3000012EA7E7B0E0EFE1F5E20C94E52D982E0A
:104A4000892E712E88E0FE013196DF01682E1D92BD
:104A50006A94E9F729833A834B835C836D837E8371
:104A60009F829887FE013996DF011D928A95E9F7AA
:104A7000A986BA86CB86DC86ED86FE860F87188BE4
:104A80008D819E81AF81B885B7FD07C0E1961CAED0
:104A90001DAE1EAE1FAEE19764C0219581E01216D7
:104AA00008F080E0319591E0131608F090E0B32F04
:104AB000B81B81E03B1708F080E0982B419531E06E
:104AC000141608F030E0A42FA91B81E04A1708F063
:104AD00080E0382B519591E0151608F090E0F52F05
:104AE000F31B81E05F1708F080E0982B619531E0BF
:104AF000161608F030E0E62FE91B81E06E1708F08B
:104B000080E0382B719541E0171608F040E0572FF0
:104B1000531B81E0751708F080E0482B892D8195A3
:104B200091E0181608F090E0682E641A462D31E0E6
:104B3000861508F030E0932B882D8195891B2983F9
:104B4000BA83AB83FC83ED835E834F8388872FEF2B
:104B50003FEF4FEF5FEFE1962CAF3DAF4EAF5FAF52
:104B6000E1978D859E85AF85B889B7FF5AC0A1941E
:104B700081E01A1408F080E0B19491E01B1408F071
:104B800090E06B2D681B81E0B61608F080E0982B52
:104B9000C19421E01C1408F020E05C2D591B81E039
:104BA000C51608F080E0282BD19491E01D1408F080
:104BB00090E04D2D421B81E0D41608F080E0982B48
:104BC000E19421E01E1408F020E03E2D391B81E025
:104BD000E31608F080E0282BF19491E01F1408F010
:104BE00090E07F2D721B272F81E0F71608F080E000
:104BF000982B019511E0101608F010E0802F891B0A
:104C0000982F81E0091708F080E0182B872D8195F7
:104C1000811BA9866A875B874C873D872E879F8784
:104C2000888B99812A813B814C815D816E817F8156
:104C3000A885B9851A850B85FC84ED84DE84CF8434
:104C4000B88888E0E9E18E2E912C8C0E9D1EF4012F
:104C5000682E11926A94E9F7998F2A8F3B8F4C8FB7
:104C60005D8F6E8F7F8FA8A39E012F5D3F4FF9014F
:104C700011928A95E9F7B9A31AA30BA3FCA2EDA29E
:104C8000DEA2CFA2B8A629A03AA04BA05CA0ADA0FE
:104C9000BEA0CFA0D8A4498D5A8D6B8D7C8DE59692
:104CA0004FAFE597E6965FAFE697E7966FAFE7976A
:104CB000E8967FAFE897E8966CAC7DAC8EAC9FAC85
:104CC000E8972D966CAE7DAE8EAE9FAE2D978D8DF6
:104CD0009E8D2F8D38A13C01490161966CAE7DAE51
:104CE0008EAE9FAE6197A114B104C104D10409F046
:104CF00028C3621473048404950408F00EC100E014
:104D0000201600E0300601E0400600E0500688F47E
:104D10001FEF211631044104510439F030F088E0CE
:104D2000E82EF12C012D112D18C0EE24FF2487014F
:104D300014C020E0221620E0320620E0420621E0E6
:104D4000520630F0B8E1EB2EF12C012D112D05C0EB
:104D5000A0E1EA2EF12C012D112DD201C1010E2C62
:104D600004C0B695A795979587950A94D2F78D5B61
:104D70009E4FDC012C9180E290E0A0E0B0E08E1923
:104D80009F09A00BB10B5C016D01A21AB108C1080B
:104D9000D1086596ACAEBDAECEAEDFAE6597A114C0
:104DA000B104C104D10409F445C062966FAD6297A5
:104DB000062E04C0220C331C441C551C0A94D2F746
:104DC000A4019301062E04C0220F331F441F551F58
:104DD0000A94D2F780E290E08A199B09E896CCAC5D
:104DE000DDACEEACFFACE89704C0F694E794D79442
:104DF000C7948A95D2F787017601E22AF32A042B19
:104E0000152B6196ECAEFDAE0EAF1FAF6197E89625
:104E10000CAD1DAD2EAD3FADE89704C0000F111FC6
:104E2000221F331F6A95D2F72D960CAF1DAF2EAF00
:104E30003FAF2D97320188249924A201910140703F
:104E4000507069962CAF3DAF4EAF5FAF69976196DA
:104E50006CAD7DAD8EAD9FAD6197A40193010E94B5
:104E6000A82D7B018C0161966CAD7DAD8EAD9FADA3
:104E70006197A40193010E94A82DCA01B901699606
:104E80002CAD3DAD4EAD5FAD69970E94562D9B0197
:104E9000AC018701FF24EE242D96ACACBDACCEACAA
:104EA000DFAC2D97C601AA27BB2757016801A82AA6
:104EB000B92ACA2ADB2AA216B306C406D50690F47C
:104EC000A20CB31CC41CD51CA214B304C404D50486
:104ED00048F0A216B306C406D50620F4A20CB31CF3
:104EE000C41CD51CA21AB30AC40AD50AC601B5014E
:104EF000A40193010E94A82D7B018C01C601B5017C
:104F0000A40193010E94A82DCA01B90169962CAD94
:104F10003DAD4EAD5FAD6997C8C121143104410468
:104F2000510471F461E070E080E090E020E030E056
:104F300040E050E00E94A82DC901DA011C012D01BA
:104F400000E0201600E0300601E0400600E05006D8
:104F500088F41FEF211631044104510439F030F078
:104F600068E0E62EF12C012D112D18C0EE24FF244F
:104F7000870114C020E0221620E0320620E042061D
:104F800021E0520630F058E1E52EF12C012D112DD3
:104F900005C040E1E42EF12C012D112DD201C101FB
:104FA0000E2C04C0B695A795979587950A94D2F7CD
:104FB0008D5B9E4FDC012C9130E2A32EB12CC12CD5
:104FC000D12CD601C5018E199F09A00BB10B7C0114
:104FD0008D01E21AF108010911096596ECAEFDAEEA
:104FE0000EAF1FAF6597E114F1040105110539F407
:104FF00064015301A218B308C408D508ECC0629636
:10500000FFAC6297E496FFAEE4970F2C04C0220C2D
:10501000331C441C551C0A94D2F78A2D8F19640145
:105020005301082E04C0D694C794B794A7940A9449
:10503000D2F7A401930104C0220F331F441F551F50
:10504000FA94D2F7E8966CAC7DAC8EAC9FACE89746
:1050500004C096948794779467948A95D2F78401D4
:105060007301E22AF32A042B152B2996ECAEFDAE30
:105070000EAF1FAF29973201882499249201810134
:10508000207030706D960CAF1DAF2EAF3FAF6D9797
:10509000C601B501A40193010E94A82D7B018C01DA
:1050A000C601B501A40193010E94A82DCA01B9014E
:1050B0006D962CAD3DAD4EAD5FAD6D970E94562DFA
:1050C0009B01AC018701FF24EE242996ACACBDAC5A
:1050D000CEACDFAC2997C601AA27BB275C016D01C6
:1050E000AE28BF28C02AD12AA216B306C406D50608
:1050F00090F4A20CB31CC41CD51CA214B304C404A9
:10510000D50448F0A216B306C406D50620F4A20CB6
:10511000B31CC41CD51CA21AB30AC40AD50AC60102
:10512000B501A40193010E94A82D7B018C01C60149
:10513000B501A40193010E94A82DCA01B9016D9681
:105140002CAD3DAD4EAD5FAD6D970E94562D9B01D0
:10515000AC018701FF24EE2429968CAD9DADAEAD48
:10516000BFAD2997A070B07057016801A82AB92A6D
:10517000CA2ADB2AA216B306C406D50690F4A20CEE
:10518000B31CC41CD51CA214B304C404D50448F039
:10519000A216B306C406D50620F4A20CB31CC41C88
:1051A000D51CE896ECACFDAC0EAD1FADE897E496CF
:1051B0000FACE49704C0EE0CFF1C001F111F0A94F3
:1051C000D2F72D96ECAEFDAE0EAF1FAF2D97A21A03
:1051D000B30AC40AD50A32018824992492018101B4
:1051E00020703070A1960CAF1DAF2EAF3FAFA197CE
:1051F000C601B501A40193010E94A82D7B018C0179
:10520000C601B501A40193010E94A82DCA01B901EC
:10521000A1962CAD3DAD4EAD5FADA1970E94562D30
:105220009B01AC018701FF24EE242D96ACACBDACF4
:10523000CEACDFAC2D97C601AA27BB27570168016A
:10524000A82AB92ACA2ADB2AA216B306C406D5069A
:1052500090F4A20CB31CC41CD51CA214B304C40447
:10526000D50448F0A216B306C406D50620F4A20C55
:10527000B31CC41CD51CA21AB30AC40AD50AC601A1
:10528000B501A40193010E94A82D7B018C01C601E8
:10529000B501A40193010E94A82DCA01B901A196EC
:1052A0002CAD3DAD4EAD5FADA1970E94562D9B013B
:1052B000AC018701FF24EE242D968CAD9DADAEADE3
:1052C000BFAD2D97A070B070E82AF92A0A2B1B2BCE
:1052D000E216F3060407150790F4E20CF31C041D14
:1052E000151DE214F3040405150548F0E216F30653
:1052F0000407150720F4E20CF31C041D151DE21A27
:10530000F30A040B150BD801C70162960FAC629724
:1053100004C0B695A795979587950A94D2F789A763
:105320009AA7ABA7BCA71DA61EA61FA618AA898B65
:105330008AA58A8B8BA58B8B8CA58C8B8DA58D8B51
:105340002FC36A147B048C049D0448F4498B5A8B48
:105350006B8B7C8B8D8B9E8B2F8B388F27C300E0C4
:10536000A01600E0B00601E0C00600E0D00688F418
:105370001FEFA116B104C104D10439F030F028E0C8
:10538000E22EF12C012D112D18C0EE24FF248701EF
:1053900014C020E0A21620E0B20620E0C20621E000
:1053A000D20630F098E1E92EF12C012D112D05C027
:1053B00080E1E82EF12C012D112DD601C5010E2C16
:1053C00004C0B695A795979587950A94D2F78D5BFB
:1053D0009E4FDC012C9180E290E0A0E0B0E08E19BD
:1053E0009F09A00BB10B821B9109A109B10900977C
:1053F000A105B10509F059C0A614B704C804D90421
:1054000070F0E896ECACFDAC0EAD1FADE897E21481
:10541000F3040405150518F4D801C7012FC0E89658
:105420008CAD9DADAEADBFADE89782199309A409CF
:10543000B509A40193012A193B094C095D09AA2465
:10544000BB246501E8966CAC7DAC8EAC9FACE89754
:10545000681679068A069B0628F411E0A12EB12C65
:10546000C12CD12C79018A01EA18FB080C091D090D
:105470006196ECAEFDAE0EAF1FAF619789A79AA7FC
:10548000ABA7BCA761960CAD1DAD2EAD3FAD61972E
:105490000DA71EA72FA738AB898B8AA58A8B8BA552
:1054A0008B8B8CA58C8B0D8B7BC2E3968FAFE39798
:1054B000A6019501082E04C0220F331F441F551F5B
:1054C0000A94D2F710E2181BE2961FAFE297D201BE
:1054D000C101012E04C0B695A795979587950A94AA
:1054E000D2F75C016D01A22AB32AC42AD52A2596D7
:1054F000ACAEBDAECEAEDFAE259772016101E396D4
:105500000FACE39704C0CC0CDD1CEE1CFF1C0A940E
:10551000D2F72196CCAEDDAEEEAEFFAE21976401A0
:105520005301012E04C0D694C794B794A7940A944B
:10553000D2F7A4019301E3960FACE39704C0220FC6
:10554000331F441F551F0A94D2F7E8968CAD9DADCA
:10555000AEADBFADE89704C0B695A7959795879572
:105560001A95D2F77C018D01E22AF32A042B152B20
:10557000E9AEFAAE0BAF1CAFE8960CAD1DAD2EAD8B
:105580003FADE897E3960FACE39704C0000F111FFF
:10559000221F331F0A94D2F70DAB1EAB2FAB38AFCF
:1055A00025962CAD3DAD4EAD5FAD25973A018824D3
:1055B000992440705070A5962CAF3DAF4EAF5FAFB1
:1055C000A597C601B501A40193010E94A82D7B01F6
:1055D0008C01C601B501A40193010E94A82DC90147
:1055E000DA011C012D01C201B101A5962CAD3DAD22
:1055F0004EAD5FADA5970E94562D9B01AC01870172
:10560000FF24EE24A9ACBAACCBACDCACC601AA2713
:10561000BB2757016801A82AB92ACA2ADB2AA21681
:10562000B306C406D50610F50894210831084108D0
:1056300051082596ECACFDAC0EAD1FAD2597AE0C18
:10564000BF1CC01ED11EAE14BF04C006D10670F030
:10565000A216B306C406D50648F4089421083108FA
:1056600041085108AE0CBF1CC01ED11EA21AB30ABD
:10567000C40AD50AC601B501A40193010E94A82D50
:105680007B018C01C601B501A40193010E94A82DE4
:10569000C901DA013C014D01C401B301A5962CAD4D
:1056A0003DAD4EAD5FADA5970E94562D9B01AC015F
:1056B0008701FF24EE2489AD9AADABADBCADA070DF
:1056C000B07057016801A82AB92ACA2ADB2AA21693
:1056D000B306C406D50610F5089461087108810860
:1056E000910825966CAD7DAD8EAD9FAD2597A60E2C
:1056F000B71EC81ED91EA616B706C806D90670F072
:10570000A216B306C406D50648F4089461087108C9
:1057100081089108A60EB71EC81ED91ED601C50164
:10572000821B930BA40BB50B89AB9AABABABBCAB99
:10573000D1019927882784017301E82AF92A0A2BC5
:105740001B2B8FEFA82E8FEFB82EC12CD12CAE20A3
:10575000BF20C022D12278010027112721966CACEE
:105760007DAC8EAC9FAC21972FEF3FEF40E050E037
:10577000622273228422952221966CAD7DAD8EAD7E
:105780009FAD2197AC0166277727AD964CAF5DAFF3
:105790006EAF7FAFAD97C601B501A40193010E9422
:1057A000562DA9966CAF7DAF8EAF9FAFA997C6015E
:1057B000B501AD962CAD3DAD4EAD5FADAD970E9440
:1057C000562D1B012C01C801B701A40193010E94B1
:1057D000562D5B016C01C801B701AD962CAD3DADF6
:1057E0004EAD5FADAD970E94562D7B018C01A60199
:1057F0009501220D331D441D551DA9966CAC7DAC41
:105800008EAC9FACA997C401AA27BB27280F391FCC
:105810004A1F5B1F2A153B054C055D0548F4812C8A
:10582000912CE1E0AE2EB12CE80CF91C0A1D1B1DD9
:10583000CA01AA27BB2757016801A80EB91ECA1EB4
:10584000DB1EA90133272227A9968CAD9DADAEADF5
:10585000BFADA997A070B070280F391F4A1F5B1FFA
:10586000E9A8FAA80BA91CA9EA14FB040C051D055C
:1058700070F0AE14BF04C006D10689F56DA97EA9EB
:105880008FA998AD621773078407950740F5DA0171
:10589000C90121966CAC7DAC8EAC9FAC219786196A
:1058A0009709A809B9092596ECACFDAC0EAD1FAD62
:1058B0002597AE18BF08C00AD10AEE24FF2487013D
:1058C000281739074A075B0728F421E0E22EF12C5C
:1058D000012D112DAE18BF08C00AD10A02C0DA018D
:1058E000C9016DA87EA88FA898AC681A790A8A0A9F
:1058F0009B0A09A91AA92BA93CA90A191B092C0959
:105900003D09580169012224332421012DA93EA912
:105910004FA958AD261537054805590528F481E0EB
:10592000282E312C412C512C86017501E218F308E8
:1059300004091509A8019701E2960FACE29704C08B
:10594000220F331F441F551F0A94D2F7D401C301FD
:10595000E3960FACE39704C0B695A7959795879506
:105960000A94D2F7282B392B4A2B5B2B29A73AA76D
:105970004BA75CA7E3960FACE39704C01695079579
:10598000F794E7940A94D2F7EDA6FEA60FA718ABFA
:10599000298B8AA58A8B8BA58B8B8CA58C8BED8A0A
:1059A0008EA58E8B8FA58F8B88A9888FE1964CADA5
:1059B0005DAD6EAD7FADE197411551056105710596
:1059C00009F467C089892A893B894C895D89AE8938
:1059D000BF89188DF82FF19591E01F1608F090E01F
:1059E000822F819521E0181608F020E0E82FE91BAE
:1059F00091E08E1708F090E0292B832F819531E0FC
:105A0000181608F030E0782F721B91E0871708F025
:105A100090E0392B842F819521E0181608F020E0C2
:105A2000682F631B91E0861708F090E0292B852FE3
:105A3000819531E0181608F030E0582F521B91E0A4
:105A4000851708F090E0392B8A2F819521E01816F0
:105A500008F020E0482F431B91E0841708F090E005
:105A6000292B8B2F819591E0181608F090E0382FA4
:105A7000321B21E0831708F020E0922B812F8195C3
:105A8000891BF98BEA8B7B8B6C8B5D8B4E8B3F8BF1
:105A9000888F29893A894B895C896D897E898F89AC
:105AA000988DC958DF4FE2E10C94012E629FD0011E
:105AB000739FF001829FE00DF11D649FE00DF11DC9
:105AC000929FF00D839FF00D749FF00D659FF00D78
:105AD0009927729FB00DE11DF91F639FB00DE11D65
