:100000000C947F000C94A8000C94A8000C94A800F9
:100010000C949C0E0C94A8000C94A8000C94A800BE
:100020000C94A8000C94A8000C94A8000C94A800B0
:100030000C94A8000C94CF130C94A8000C94A80066
:100040000C94A8000C94A8000C94A8000C94A80090
:100050000C94F40A0C94A8000C94A8000C94A8002A
:100060000C94A8000C94A8000C94A8000C94A80070
:100070000C94BB080C94A8000C94A80024504D5478
:100080004B3331342C302C302C302C352C302C3060
:100090002C302C302C302C302C302C302C302C3080
:1000A0002C302C302C302A32440D0A0048656C6C00
:1000B0006F20576F726C642C2066726F6D207468AD
:1000C000652050494E506F696E74210041542B4396
:1000D0004D47533D223937383837303032393322A3
:1000E0000D0A0041542B434D47463D310D0A004156
:1000F000542B4353510D0A0041540D0A00001124A2
:100100001FBECFEFD8E0DEBFCDBF84B780937103B1
:1001100014BE88E10FB6F8948093600010926000DE
:100120000FBE12E0A0E0B1E0ECEDF4E502C00590F6
:100130000D92AE33B107D9F713E0AEE3B2E001C0E0
:100140001D92A137B107E1F70E94810C0C946C2A33
:100150000C94000090917C00907E90937C00909194
:100160007C00982B90937C0080917A00806480932F
:100170007A0080917A0086FDFCCF40917800209132
:10018000790030E080913E02882371F0C901880F28
:10019000991F880F991F242F30E046E03695279548
:1001A0004A95E1F7280F391FC9010895813021F4DC
:1001B00080917A00806803C080917A008F77809365
:1001C0007A0008951F93DF93CF930F92CDB7DEB7D8
:1001D000182F80E069830E94D6006981113071F088
:1001E000113018F01230C1F40DC080917C00806491
:1001F00080937C0080917C008F770CC080917C0084
:100200008F7B03C080917C00806480937C00809110
:100210007C00806880937C0080917C008062809369
:100220007C0080917A00816080937A0080917A00CE
:10023000826080937A0080917A00846080937A0053
:1002400060933E0281E00E94D6000F90CF91DF9133
:100250001F9108950F931F93DF93CF9300D000D089
:1002600000D0CDB7DEB78AE28B831C828E010D5F92
:100270001F4F86EAB80142E050E00E9462158CE20E
:100280008B838EE08C8386EAB80142E050E00E94C6
:1002900062158DE28B8388E08C8386EAB80142E0A8
:1002A00050E00E9462158EE28B831C8286EAB801C0
:1002B00042E050E00E94621581E38B8382E08C83F0
:1002C00086EAB80142E050E00E94621588E38B8321
:1002D0008FE08C8386EAB80142E050E00E9462150C
:1002E0008FE18B831C821D821E8286EAB80144E066
:1002F00050E00E94621588E190E00E94F905898330
:1003000087E190E00E94F9058A8389819A81909320
:10031000400280933F028AE190E00E94F9058983C0
:1003200089E190E00E94F9058A8389819A819093FE
:100330004202809341028CE190E00E94F90589839A
:100340008BE190E00E94F9058A8389819A819093DC
:1003500044028093430226960FB6F894DEBF0FBE88
:10036000CDBFCF91DF911F910F9108956F927F9232
:100370008F929F92AF92BF92CF92DF92EF92FF92B5
:100380000F931F93DF93CF93CDB7DEB727970FB6A9
:10039000F894DEBF0FBECDBF82E389838AE0E82EEA
:1003A000F12C88249924AA24BB24CC24DD243E01EA
:1003B0000894611C711C8E010E5F1F4F86EAB30109
:1003C00041E050E00E94621586EAB80146E050E044
:1003D0000E948A15F80180819181C80ED91E828100
:1003E0009381A80EB91E84819581880E991E089468
:1003F000E108F108E114F10409F726EF3FEFC60127
:10040000B9010E94A929E62F60933F027093400230
:10041000C501B9010E94A92970934202609341026B
:10042000C401B9010E94A9299B01205C3F4F309370
:1004300044022093430288E190E06E2F0E94FE0563
:1004400087E190E0609140020E94FE058AE190E021
:10045000609141020E94FE0589E190E060914202B4
:100460000E94FE058CE190E0609143020E94FE052F
:100470008BE190E0609144020E94FE0527960FB642
:10048000F894DEBF0FBECDBFCF91DF911F910F91CA
:10049000FF90EF90DF90CF90BF90AF909F908F90A4
:1004A0007F906F900895CF92DF92EF92FF920F931B
:1004B0001F93DF93CF93CDB7DEB727970FB6F8948E
:1004C000DEBF0FBECDBF8C017B016A0182E3898351
:1004D00086EABE016F5F7F4F41E050E00E946215E7
:1004E00086EABE016E5F7F4F46E050E00E948A15AB
:1004F0002A8180913F0290914002820F911D3B81A1
:1005000020E0820F931FF801918380832C818091DA
:10051000410290914202820F911D3D8120E0820FA5
:10052000931FF701918380832E81809143029091E4
:100530004402820F911D3F8120E0820F931FF6013C
:100540009183808327960FB6F894DEBF0FBECDBF90
:10055000CF91DF911F910F91FF90EF90DF90CF909F
:100560000895DF93CF930F92CDB7DEB78AEA8983E0
:100570008EEEBE016F5F7F4F41E050E00E9462153A
:100580008EEE6DE472E042E050E00E948A15909198
:100590004E0280914D028927982790934E02892719
:1005A00080934D028EEE6BE472E042E050E00E94D8
:1005B0008A1590914C0280914B028927982790933D
:1005C0004C02892780934B028EEE6FE472E042E08A
:1005D00050E00E948A159091500280914F02892725
:1005E000982790935002892780934F028EEE63E5FF
:1005F00072E042E050E00E948A159091540280918E
:100600005302892798279093540289278093530295
:100610008EEE67E572E042E050E00E948A1590910C
:10062000580280915702892798279093580289276A
:10063000809357028EEE65E572E042E050E00E9442
:100640008A15909156028091550289279827909398
:1006500056028927809355028EEE61E572E042E0F2
:1006600050E00E948A159091520280915102892790
:100670009827909352028927809351028EEE69E465
:1006800072E042E050E00E948A1590914A02809107
:1006900049028927982790934A0289278093490223
:1006A0008EEE6DE572E042E050E00E948A15909176
:1006B0005E0280915D028927982790935E028927C8
:1006C00080935D028EEE69E572E042E050E00E94A8
:1006D0008A1590915A028091590289279827909300
:1006E0005A028927809359028EEE6BE572E042E050
:1006F00050E00E948A1590915C0280915B028927EC
:10070000982790935C02892780935B020F90CF918A
:10071000DF910895DF93CF9300D0CDB7DEB784EF9C
:1007200089838EE28A838EEEBE016F5F7F4F42E047
:1007300050E00E9462150F900F90CF91DF910895C5
:10074000DF93CF9300D0CDB7DEB784EF898384E306
:100750008A838EEEBE016F5F7F4F42E050E00E94C1
:1007600062150F900F90CF91DF910895EF92FF9255
:100770000F931F93DF93CF9300D00F92CDB7DEB7C7
:1007800086EF89838EEEBE016F5F7F4F41E050E0C0
:100790000E9462158EEEBE016E5F7F4F42E050E018
:1007A0000E948A156A8170E080E090E0982F872F80
:1007B000762F66272B81620F711D811D911D20915F
:1007C00055023091560240E050E0621B730B840BDF
:1007D000950B209157023091580240E050E00E9462
:1007E0006A2920E030E840E050E00E94DE297901EB
:1007F0008A016091590270915A02882777FD80958D
:10080000982F2BE0660F771F881F991F2A95D1F725
:1008100020915B0230915C02442737FD4095542FB4
:100820002E0D3F1D401F511F0E94DE292E0D3F1D22
:10083000401F511F209345023093460240934702C8
:1008400050934802CA01B901685F7F4F8F4F9F4F95
:1008500020E130E040E050E00E94DE29C9010F9025
:100860000F900F90CF91DF911F910F91FF90EF901C
:1008700008952F923F924F925F926F927F928F9244
:100880009F92AF92BF92CF92DF92EF92FF920F931F
:100890001F93DF93CF93CDB7DEB727970FB6F894AA
:1008A000DEBF0FBECDBF86EF89838EEEBE016F5FC8
:1008B0007F4F41E050E00E9462158EEEBE016E5FF8
:1008C0007F4F42E050E00E948A15A0904502B09010
:1008D0004602C0904702D090480280E690EFAFEF0A
:1008E000BFEFA80EB91ECA1EDB1EC601B501A601C8
:1008F00095010E946A2920E030E140E050E00E942A
:10090000DE292C833D834E835F8360914F0270917B
:100910005002882777FD8095982FA60195010E94A7
:100920006A2920E030E240E050E00E94DE297901AF
:100930008A0182E090E0A0E0B0E0E80EF91E0A1F14
:100940001B1F2091510230915202442737FD4095E0
:10095000542F6C817D818E819F810E946A2920E0C5
:1009600030E041E050E00E94DE29E20EF31E041F59
:10097000151FC801B70124E030E040E050E00E94BC
:10098000DE2979018A0180E090E8A0E0B0E0E80E7D
:10099000F91E0A1F1B1F209153023091540240E0A0
:1009A00050E0C801B7010E946A291B012C011FE019
:1009B00056944794379427941A95D1F76A807724F0
:1009C00088249924982C872C762C66248B81680E99
:1009D000711C811C911CE0904D02F0904E0200278A
:1009E000F7FC0095102FA2E0EE0CFF1C001F111F5A
:1009F000AA95D1F782E090E0A0E0B0E0E80EF91E01
:100A00000A1F1B1F60914B0270914C02882777FDD3
:100A10008095982FA60195010E946A29A12CF8E0E3
:100A2000BF2EC12CD12CA60195010E94DE29E20E19
:100A3000F31E041F151F2091490230914A024427DA
:100A400037FD4095542F6C817D818E819F810E945E
:100A50006A29A60195010E94DE29E20EF31E041FF9
:100A6000151FC801B70124E030E040E050E00E94CB
:100A7000DE29621A730A840A950AC401B30120E5CB
:100A800033EC40E050E00E946A2997FD0BC0660FEE
:100A9000771F881F991FA20191010E94BC2959014B
:100AA0006A010AC0A20191010E94BC2959016A0190
:100AB000AA0CBB1CCC1CDD1CC601B50120E031E03A
:100AC00040E050E00E94DE29B901CA010E946A2973
:100AD0002EED3BE040E050E00E946A291B012C0112
:100AE000C601B50123E433EE4FEF5FEF0E946A29A0
:100AF000612C712C41E0842E912CA40193010E9461
:100B0000DE2979018A018FEC9EE0A0E0B0E0E80EDA
:100B1000F91E0A1F1B1FC201B101A40193010E940B
:100B2000DE29E20EF31E041F151FC801B70120E1E4
:100B300030E040E050E00E94DE292A0D3B1D4C1DB4
:100B40005D1DB901CA0127960FB6F894DEBF0FBE2E
:100B5000CDBFCF91DF911F910F91FF90EF90DF906C
:100B6000CF90BF90AF909F908F907F906F905F904D
:100B70004F903F902F900895BC0120915F023091DB
:100B800060024091610250916202205E3F4F4F4FE0
:100B90005F4F203080E0380780E2480780E0580748
:100BA000D8F48FE592E040E250E00E94BD1220911F
:100BB0005F02309160024091610250916202205EBA
:100BC0003F4F4F4F5F4F20935F023093600240933F
:100BD000610250936202089580E008950E94BC1360
:100BE00010925F02109260021092610210926202F3
:100BF0000895F999FECF0E94562A08950F931F93E6
:100C0000DF93CF930F92CDB7DEB78C01F999FECF6A
:100C1000C80169830E94F9056981681719F0C80144
:100C20000E945E2A0F90CF91DF911F910F9108953E
:100C300080E090E063E00E94FE0581E090E068EED5
:100C40000E94FE058CE090E061E00E94FE058FE0CE
:100C500090E061E00E94FE0582E190E061E00E9488
:100C6000FE0585E190E061E00E94FE0586E190E0EE
:100C700065E00E94FE058DE190E064E00E94FE05C3
:100C80008EE190E060E00E94FE050895EF92FF92F1
:100C90000F931F93FC01DB012281338112968D910A
:100CA0009C9113972817390709F04AC02081318198
:100CB0008D919C9111972817390709F041C0268121
:100CC000378116968D919C91179728173907C1F592
:100CD0002481358114968D919C9115972817390799
:100CE00079F52085318518968D919C911997281753
:100CF000390731F5E284F384048515851A962D9120
:100D00003D914D915C911D97E216F306040715077E
:100D1000B9F4268537851E968D919C911F972817CB
:100D2000390771F47096509680E090E031912D91E2
:100D3000321731F4019680319105C1F781E001C08D
:100D400080E01F910F91FF90EF9008952F923F92B6
:100D50004F925F926F927F928F929F92AF92BF92CB
:100D6000CF92DF92EF92FF920F931F93DF93CF9377
:100D7000CDB7DEB7A4970FB6F894DEBF0FBECDBFD8
:100D8000E0E1F1E08FEF819391E0E032F907D9F7EC
:100D900010925F0210926002109261021092620241
:100DA000EE24FF2487016EEFA62E6FEFB62EC12C26
:100DB000D12C55E0452E512C4C0E5D1E1E01089481
:100DC000211C311C370148016A0C7B1C8C1C9D1CAA
:100DD0009694879477946794D401C30135E0880F83
:100DE000991FAA1FBB1F3A95D1F789839A83AB83BA
:100DF000BC83C101B20140E250E00E941013C20165
:100E000060E071E00E944606882369F064015301A6
:100E10000894A108B108C108D108AE14BF04C006E7
:100E2000D10698F00CC0840173010894E11CF11CF8
:100E3000011D111DAE14BF04C006D106D8F1AE14B9
:100E4000BF04C006D10609F0BDCFD801C70125E017
:100E5000880F991FAA1FBB1F2A95D1F780935F02A5
:100E600090936002A0936102B093620281E09EEFD2
:100E7000E9169FEFF90690E0090790E0190709F4D9
:100E800080E0A4960FB6F894DEBF0FBECDBFCF9121
:100E9000DF911F910F91FF90EF90DF90CF90BF9067
:100EA000AF909F908F907F906F905F904F903F900A
:100EB0002F90089586017501C8CF0E94B2138BEF61
:100EC00093E060E00E94FE050E94A60608956091EE
:100ED0005F027091600280916102909162020895B8
:100EE000813009F44BC0813038F0823009F487C07A
:100EF000833009F00AC1C9C06130B1F0613030F00F
:100F0000623001F1633009F000C12AC021B181E0F3
:100F100090E002C0880F991F4A95E2F78095282338
:100F200021B992B19823C6C024B181E090E002C0FB
:100F3000880F991F4A95E2F78095282324B995B127
:100F40009823C6C027B181E090E002C0880F991FA6
:100F50004A95E2F78095282327B998B19823C6C00F
:100F60002AB181E090E002C0880F991F4A95E2F70C
:100F7000809528232AB99BB198233FC06130A9F0FE
:100F8000613030F06230F1F0633009F0BEC027C04C
:100F900021B181E090E002C0880F991F4A95E2F7E5
:100FA000982F9095922391B983C024B181E090E06D
:100FB00002C0880F991F4A95E2F7982F90959223C7
:100FC00094B984C027B181E090E002C0880F991FD6
:100FD0004A95E2F7982F9095922397B985C02AB148
:100FE00081E090E002C0880F991F4A95E2F7982FA0
:100FF000909592239AB99BB1982B9BB90895613033
:10100000B9F0613030F0623011F1633009F07DC029
:101010002DC021B181E090E002C0880F991F4A9550
:10102000E2F7282B21B992B18095892382B90895DE
:1010300024B181E090E002C0880F991F4A95E2F741
:10104000282B24B995B18095892385B9089527B1B6
:1010500081E090E002C0880F991F4A95E2F7282BA3
:1010600027B998B18095892388B908952AB181E07C
:1010700090E002C0880F991F4A95E2F7282B2AB901
:101080009BB1809589238BB908956130A9F06130B7
:1010900028F06230F9F06330C1F52AC021B181E057
:1010A00090E002C0880F991F4A95E2F7282B21B9DA
:1010B00092B1982B92B9089524B181E090E002C0DA
:1010C000880F991F4A95E2F7282B24B995B1982BE0
:1010D00095B9089527B181E090E002C0880F991F6B
:1010E0004A95E2F7282B27B998B1982B98B908951B
:1010F0002AB181E090E002C0880F991F4A95E2F77B
:10110000282B2AB99BB1982B9BB90895813091F077
:10111000813028F08230C9F0833061F521C022B1DE
:1011200081E090E002C0880F991F6A95E2F72827B6
:1011300022B9089525B181E090E002C0880F991F7F
:101140006A95E2F7282725B9089528B181E090E053
:1011500002C0880F991F6A95E2F7282728B90895D9
:101160002BB181E090E002C0880F991F6A95E2F7E9
:1011700028272BB908951F920F920FB60F921124B2
:101180002F933F934F935F936F937F938F939F938F
:10119000AF93BF93EF93FF93809114039091150346
:1011A000FC01E654FD4F8A3591054CF42091CE00A8
:1011B00020830196909315038093140304C08091BB
:1011C000CE00319780830E945614FF91EF91BF911A
:1011D000AF919F918F917F916F915F914F913F91CF
:1011E0002F910F900FBE0F901F901895BC0180E0BB
:1011F0000E94F8150895FC01809120019091210131
:10120000918380838091B3029091B402938382830F
:101210008091220190912301958384838091B5026E
:101220009091B60297838683809124019091250145
:10123000918780878091160308951F93CF93DF9342
:101240006091140370911503AAEBB2E041E050E005
:1012500020E030E035C08D918C3271F5CA01FA0181
:10126000E654FD4F26C011911A3011F584309105D6
:10127000FCF0EF01259718811A32D1F4D901A75457
:10128000BD4FE3E6F2E020E030E0039704C04D916B
:1012900041932F5F3F4F28173907CCF32D593D4F0E
:1012A000F9011082109215031092140381E00CC012
:1012B000019686179707BCF22F5F3F4F4F5F5F4F36
:1012C0002617370744F280E0DF91CF911F910895F0
:1012D00080E049E050E060E070E00E94001888EE95
:1012E00093E00E9474148CE790E00E94F60884E674
:1012F00090E00E94741486E190E00E94F9058093CA
:10130000B80280E061E00E9498170E941D090895CC
:101310008F929F92AF92BF92CF92DF92EF92FF9205
:101320000F931F93DF93CF9300D000D000D0CDB7A1
:10133000DEB71E8280916302813409F4F9C080E037
:1013400012C18C3251F40894C11CD11C8AE0C81619
:10135000D1040CF006C10F5F1F4FEC2DE43009F4EF
:1013600055C0E53028F4E23069F0E33099F438C034
:10137000FC2DF73009F48BC0F93009F4AEC0F5301C
:1013800049F46DC0D801AD59BD4F8C918C3231F408
:101390001092B902F801ED59FD4FBDC0F7018D91D2
:1013A0008193E815F905D9F71D82C7010E94302AFB
:1013B0009093210180932001F801E859FD4F80812D
:1013C000898381818A8382818B831C82085F1F4F7E
:1013D000C7010E94302A9093B4028093B302DACFFF
:1013E000F801ED59FD4F80818C3291F20F5F1F4F54
:1013F000833581F68091200190912101909581950E
:101400009F4F9093210180932001C4CFD801AD5903
:10141000BD4F8C918C3209F4BBCFF7018D91819334
:10142000EA15FB05D9F71E82C7010E94302A909366
:10143000230180932201F801E759FD4F80818983C0
:1014400081818A8382818B831C82075F1F4FC70142
:101450000E94302A9093B6028093B5029BCFF80188
:10146000ED59FD4F80818C3209F492CF0F5F1F4FF1
:10147000873509F08FCF80912201909123019095BB
:1014800081959F4F909323018093220183CFD801B0
:10149000AD59BD4F8C918C3221F0F70180E090E086
:1014A00007C01092B9021092B70274CF219301962F
:1014B0002D912C32D9F78E0D9F1DFC011082C70192
:1014C0000E94302A8093B70291E02091B8028217DF
:1014D00008F490E09093B9025DCFD801AD59BD4FAB
:1014E0008C918C3209F454CFF70180E090E002C077
:1014F000219301962D912E32D9F78E0D9F1DFC015F
:101500001082C7010E94302A909325018093240104
:1015100041CF0F5F1F4F81918C3231F08A3221F021
:1015200000351105B4F31DC00F3411059CF019C02E
:10153000CC24DD2400E010E07E010894E11CF11CC5
:1015400096E0A92EB12CAC0EBD1E85E0882E912C04
:101550008C0E9D1EF801ED59FD4F80818A3209F0F5
:10156000F0CE8091B90226960FB6F894DEBF0FBE7A
:10157000CDBFCF91DF911F910F91FF90EF90DF9042
:10158000CF90BF90AF909F908F900895F8940E9455
:101590001D097894882329F00E94880980931603F6
:1015A00004C010921503109214038091160388232F
:1015B000D1F480E29EE49093210180932001109267
:1015C000B4021092B30290932301809322011092EF
:1015D000B6021092B50280E69AEE909325018093B0
:1015E00024011092B70208951F920F920FB60F9226
:1015F00011242F933F934F935F936F937F938F9318
:101600009F93AF93BF93EF93FF93809117039091B4
:1016100018032091190330911A03AC01421B530B9C
:101620009A0157FF03C0309521953F4F2230310575
:101630007CF02091C600FC01E55EFC4F2083019602
:1016400064E170E00E94A929909318038093170326
:101650000E945614FF91EF91BF91AF919F918F918E
:101660007F916F915F914F913F912F910F900FBE9E
:101670000F901F9018951092180310921703109254
:101680001A031092190381E044E050E060E070E03A
:101690000E94001881E061E00E94981783E062E0F8
:1016A00046E050E00E94700783E062E047E050E0CF
:1016B0000E94700783E060E042E050E00E94700703
:1016C00082E060E041E050E00E947007089583E00E
:1016D00060E041E050E00E94700788EE93E00E94D5
:1016E000741482E060E042E050E00E94700784ECF5
:1016F00099E00E94741483E060E042E050E00E94B0
:10170000700788EC90E00E94741482E062E046E08A
:1017100050E00E94700782E062E047E050E00E94E3
:10172000700784E690E00E947414089582E060E0FF
:1017300042E050E00E94700784EC99E00E9474142B
:1017400083E060E042E050E00E94700788EC90E0A7
:101750000E94741482E060E041E050E00E94700753
:10176000089584EC99E00E94741481E068EF70E0C1
:101770000E94F81580EB96E30E94741481E06FEEEE
:1017800070E00E94F81581E063EE70E00E94F815A9
:1017900080E991E00E94741481E06CEC70E00E949A
:1017A000F81580E991E00E94741481E06CEA70E021
:1017B0000E94F81581E06AE10E94D01580E991E06D
:1017C0000E94741408952091190330911A03809196
:1017D000170390911803281B390B37FF03C030956E
:1017E00021953F4FC9010895EF92FF920F931F93E8
:1017F000CF93DF93EC01E0901703F09018038091F2
:10180000190390911A03E62FF72F20E030E004E14E
:1018100010E00EC08E159F0571F0DC01A55EBC4F77
:101820004C9141930196B8010E94A9292F5F3F4F27
:101830002C173D077CF390931A0380931903C90179
:10184000DF91CF911F910F91FF90EF900895089530
:10185000109218031092170310921A031092190392
:10186000089508950F931F93CF93DF93F8940E94E8
:10187000251888EE93E00E9474140E943B0B00919F
:10188000CC0081E010E020E030E040E050E060E09B
:1018900070E00E940A1681E00E94B30E0E945D076C
:1018A00081E00E945618882329F1C2E3D0E082E348
:1018B00090E00E94741481E00E94AC1882E00E94C3
:1018C000AC1883E00E94AC1884E00E94AC18219709
:1018D00071F70E94B6010E94750D0E9418062BE058
:1018E00088E190E00FB6F894A895809360000FBE51
:1018F00020936000789481E0DF91CF911F910F9148
:1019000008956F927F928F929F92AF92BF92CF92E3
:10191000DF92EF92FF920F931F93DF93CF93CDB798
:10192000DEB7A8970FB6F894DEBF0FBECDBF0E94FA
:10193000320CFE01319688E0DF011D928A95E9F7AD
:10194000CE0109960E94481280E090E00E94F905BD
:10195000182F00E01C830B8381E090E00E94F905C2
:10196000080F111D1C830B830A30110520F48AE037
:1019700090E09C838B83EE246E010894C11CD11CE3
:101980008E01075F1F4F25E0A22EB12CAC0EBD1EAD
:1019900097E0892E912C8C0E9D1E89E2682E712C69
:1019A0006C0E7D1EC6010E94D218C6010E94310C29
:1019B000C8010E94DF0FF82E6B817C81C501A40154
:1019C00020E00E94E314E82AFF2009F1EE20F9F05C
:1019D0008981882339F0C8010E94BC05882389F4D5
:1019E00019820FC08A81882361F0780106C0F7014F
:1019F00061917F0181E00E94D015E614F704B9F7E8
:101A00001A821E821D82C8010E944812EE240E9482
:101A1000A314C8CF0F931F93DF93CF9300D0CDB7FC
:101A2000DEB781E089831A8284EB8E010F5F1F4F3E
:101A3000B80142E050E00E94621584E690E00E9406
:101A4000741482E0898383EC8A8384EBB80142E0DA
:101A500050E00E94621584EBB80141E050E00E9422
:101A6000621584EBBE016E5F7F4F41E050E00E9443
:101A70008A150F900F90CF91DF911F910F910895CC
:101A8000EF92FF920F931F93DF93CF9300D00F92AB
:101A9000CDB7DEB78C017B0183E0898384EBBE0187
:101AA0006F5F7F4F41E050E00E94621584EBBE0102
:101AB0006E5F7F4F42E050E00E948A158A81982F26
:101AC00092959F70F80190838295807F9B819F7093
:101AD000890FF70180830F900F900F90CF91DF91C6
:101AE0001F910F91FF90EF900895DF93CF9300D057
:101AF00000D0CDB7DEB787E0898380E88A831B8278
:101B00001C8280EDBE016F5F7F4F44E050E00E9479
:101B100062150F900F900F900F90CF91DF91089565
:101B20000F931F93DF93CF93CDB7DEB728970FB6F0
:101B3000F894DEBF0FBECDBF8C01198280EDBE01CF
:101B40006F5F7F4F41E050E00E94621580EDBE0163
:101B50006E5F7F4F47E050E00E948A152A81822FF6
:101B600090E080779070E4E095958795EA95E1F7AD
:101B7000880F982F990F990F980F2F70920F292F78
:101B80002295207FF801838D8F70822B838F929511
:101B90009370248D2C7F292B248F3B81832F90E001
:101BA0008077907074E0959587957A95E1F7880F26
:101BB000982F990F990F980F3F70930F990F990FC6
:101BC0002370292B248F2C81822F90E080739070BA
:101BD00064E0959587956A95E1F7880F982F990F9E
:101BE000990F980F2F70920F9F71858D807E892B92
:101BF000858F9D819295990F907E8F71892B858F0E
:101C00002E81822F90E08073907054E09595879597
:101C10005A95E1F7880F982F990F990F980F2F7009
:101C2000920F9F71268D207E292B268F3F81832F37
:101C300090E08071907044E0959587954A95E1F722
:101C4000880F982F990F990F980F3F70930F892F36
:101C50008295880F807E2F71282B268F892F86955D
:101C6000869586958170978D9E7F982B978F388566
:101C7000232F22952F70220F822F880F880F820F1B
:101C80003F70830F880F9170982B978F28960FB60F
:101C9000F894DEBF0FBECDBFCF91DF911F910F91A2
:101CA0000895DF93CF93CDB7DEB728970FB6F8949A
:101CB000DEBF0FBECDBFFC01198280812AE0622FFA
:101CC0000E9489298295807F890F8A8381810E9461
:101CD00089298295807F890F8B8382810E9489293F
:101CE0008295807F890F8C8383818D8384810E947C
:101CF00089298295807F890F8E8385810E94892919
:101D00008295807F890F8F8386810E9489298295A1
:101D1000807F890F888780EDBE016F5F7F4F48E02D
:101D200050E00E94621528960FB6F894DEBF0FBEF1
:101D3000CDBFCF91DF9108951F920F920FB60F92F2
:101D400011248F939F93809158039091590301968A
:101D500090935903809358039F918F910F900FBEDA
:101D60000F901F901895EF92FF921F93CF93DF93E0
:101D7000182F80E061E00E94E2000E942C140E9473
:101D800057150E94B1020E942A010E940A0D1123D8
:101D900011F00E94680980E090E00E94F90580E05F
:101DA000EC0181E090E00E94F905C80FD11D8CE0A4
:101DB00090E00E94F90580935A038FE090E00E9422
:101DC000F90580935B0382E190E00E94F90580931E
:101DD0005C0385E190E00E94F90580935D0386E154
:101DE00090E00E94F90591E0882309F490E0909337
:101DF000560381E0C931D10508F480E08093550392
:101E0000CA30D10510F4CAE0D0E012B882B181B96D
:101E100082E062E045E050E00E94700782E062E00C
:101E200044E050E00E947007F894809169008E7F32
:101E300080936900809169008D7F80936900809113
:101E40006B008F7B80936B00109268001092570399
:101E500080915A038823E1F4809169008160809326
:101E600069008091690082608093690080916B00B5
:101E7000806480936B008091680088608093680024
:101E800083E062E045E050E00E94700781E053C0CB
:101E900080915B038823E1F48091690081608093E5
:101EA00069008091690082608093690080916B0075
:101EB000806480936B0080916800806180936800EB
:101EC00083E062E044E050E00E94700782E033C0AB
:101ED00080915C038823B1F48091690081608093D4
:101EE00069008091690082608093690080916B0035
:101EF000806480936B0080916800806280936800AA
:101F000083E019C080915D038823B9F48091690052
:101F1000816080936900809169008260809369008C
:101F200080916B00806480936B0080916800806476
:101F30008093680084E0809357037894CE0196954F
:101F4000879590933403809333039C01265030404F
:101F500030933A032093390320915703213019F02D
:101F6000482F392F03C07E014C2F3F2D40933F0354
:101F700030934003223019F0482F392F03C0BE019F
:101F80004C2F372F4093450330934603233019F0ED
:101F9000482F392F03C0BE014C2F372F40934B03DE
:101FA00030934C03243009F4CE0190935203809374
:101FB0005103DF91CF911F91FF90EF9008950F9300
:101FC0001F93DF93CF93CDB7DEB728970FB6F89462
:101FD000DEBF0FBECDBF8C0160913303709134031F
:101FE00081E393E045E353E020E00E94E31488237B
:101FF00009F498C0CE010396BE016B5F7F4FAE011E
:10200000495F5F4F0E9453028B81F801808B9C8156
:10201000937081898C7F892B818B9D81292F220F41
:10202000220F8370822B818B929596959695937053
:1020300082898C7F892B828B9E819370990F990F57
:10204000837F892B828B9F81292F2295207F8F7000
:10205000822B828B92959F708389807F892B838BC3
:10206000988593709295907F8F7C892B838BCE017E
:102070000196BE016E5F7F4F0E94400D9981292F0E
:102080002295220F220F207CF80183898F73822BE7
:10209000838B96959695937084898C7F892B848BFE
:1020A0009A81292F220F220F8370822B848B929585
:1020B00096959695937085898C7F892B858BC80121
:1020C0000E94900D87E00E94AA00382F330F330F33
:1020D000F80125892370232B258B8295869586957B
:1020E00083702689207F9370990F990F282B292BB5
:1020F000268B80915603882361F0C8010E94FB085B
:10210000882319F085E061E002C085E060E00E946C
:102110006A1880912F03909130038160909330036F
:1021200080932F0380915503882309F43FC0609169
:10213000390370913A0387E393E04BE353E020E0E7
:102140000E94E314882391F18091260190E001968A
:1021500063E070E00E94A92980932601813029F074
:102160008230A1F00E948A0307C00E94B603F801E2
:10217000978786870E94A0038091390390913A0344
:102180000697909338038093370310C00E94390458
:10219000F801628773878487958780912F039091D8
:1021A000300382609093300380932F0360913F034C
:1021B000709140038DE393E041E453E020E00E94FE
:1021C000E3148823F1F080915703813039F4809132
:1021D0005803909159039695879503C083E00E9418
:1021E000AA00F801818F9370828D8C7F892B828F5A
:1021F00080912F03909130038460909330038093FB
:102200002F03609145037091460383E493E047E414
:1022100053E020E00E94E314882309F440C0809139
:1022200057038230E1F480915803909159039695B9
:102230008795382F330F330FF801228D2370232B0E
:10224000228F382F3295369536953370238D207F27
:10225000892F8370880F880F232B282B16C084E0CA
:102260000E94AA00382F330F330FF801228D2370FC
:10227000232B228F8295869586958370238D207FD0
:102280009370990F990F282B292B238F80912F035F
:102290009091300388609093300380932F03609176
:1022A0004B0370914C0389E493E04DE453E020E04C
:1022B0000E94E3148823E1F1809157038330D1F425
:1022C000809158039091590396958795382F3295B0
:1022D000307FF80126892F70232B268B382F3295DB
:1022E0003F702789207C892F83708295807F232BE4
:1022F000282B14C085E00E94AA00382F3295307F29
:10230000F80126892F70232B268B82958F702789C1
:10231000207C93709295907F282B292B278B80917E
:102320002F039091300380619093300380932F03AB
:1023300060915103709152038FE493E043E553E0C1
:1023400020E00E94E3148823D9F180915703843060
:10235000C9F4809158039091590396958795382F29
:102360003295330F330F307CF80127892F73232BDD
:10237000278B292F2295220F220F207C8695869568
:10238000822B14C086E00E94AA00382F3295330FAA
:10239000330F307CF80127892F73232B278B9295DD
:1023A000990F990F907C86958695892B808F8091C7
:1023B0002F039091300380629093300380932F031A
:1023C00080915603882379F06091290170912A0148
:1023D00087E291E04BE251E020E00E94E314882381
:1023E00011F00E94C60A60912F01709130018DE2B8
:1023F00091E041E351E020E00E94E3148823E9F0FA
:1024000080E00E94AA00F2E08F329F0758F480E03B
:102410000E94AA0022E08031920720F084E00E940E
:10242000AC180BC080E00E94AA00E2E08F329E0749
:1024300020F084E061E00E946A186091350170919B
:10244000360183E391E047E351E020E00E94E3148A
:10245000882351F080E00E94AA00F2E080319F07BB
:1024600018F484E00E94AC1881E020912F03309191
:1024700030032F33310509F080E028960FB6F89429
:10248000DEBF0FBECDBFCF91DF911F910F91089599
:10249000CF93DF93EC010E945F14109230031092EF
:1024A0002F031092320310923103909336038093DE
:1024B0003503109238031092370390933C038093B6
:1024C0003B0322E02093260110923E0310923D032D
:1024D000909342038093410310924403109243036C
:1024E000909348038093470310924A031092490344
:1024F00090934E0380934D031092500310924F031C
:10250000909354038093530380915503882361F47F
:102510001F861E861A861B861C861D8682E090E01A
:102520009093300380932F0380915603882371F496
:1025300080E29EE4998388831B821A829D838C8328
:102540001F821E8280E69AEE99878887DF91CF915D
:1025500008958EBD0DB407FEFDCF8EB508952C985D
:1025600085E00E94A91282E10E94A9122C9A089586
:102570000E94AF1280FDFCCF0895EF92FF920F935F
:102580001F93CF93DF93EC018B017A0140FD40C094
:1025900014161506ECF52C9886E00E94A9122C9AC8
:1025A0002C988DEA0E94A9128A810E94A912898121
:1025B0000E94A91288810E94A912F80180810E94BC
:1025C000A912F80181810E94A912E80102E010E03D
:1025D0000FC02C9A0E94B8122C988DEA0E94A91262
:1025E00088810E94A9120E5F1F4F89810E94A91243
:1025F00022960E151F056CF32C9A0E94B8122C9887
:1026000084E00E94A9122C9A0E94B81281E001C0B5
:1026100080E0DF91CF911F910F91FF90EF9008958F
:10262000CF92DF92EF92FF920F931F93DF93CF939E
:1026300000D0CDB7DEB77C018A01141615063CF533
:102640002C9883E069837A830E94A912F701828122
:102650000E94A912F70181810E94A912F7018081CD
:102660000E94A91269817A81E62EF72ECC24DD24FE
:1026700082E10E94A912F70181937F010894C11C95
:10268000D11CC016D106A4F32C9A81E001C080E0D1
:102690000F900F90CF91DF911F910F91FF90EF90CE
:1026A000DF90CF9008959F92AF92BF92CF92DF922A
:1026B000EF92FF920F931F93CF93DF93EC015A0198
:1026C0006B01411551056105710559F12C9883E0A5
:1026D0000E94A9128A810E94A91289810E94A912CE
:1026E00088810E94A9129924EE24FF2487010DC03D
:1026F00082E10E94A912682F980E81E00E94D015F5
:102700000894E11CF11C011D111DEA14FB040C05C9
:102710001D0570F32C9A81E0692D0E94D01581E08F
:1027200001C080E0DF91CF911F910F91FF90EF905A
:10273000DF90CF90BF90AF909F9008952C9880E548
:102740000E94A9122C9A2C9881E00E94A91280E084
:102750000E94A9122C9A2C9884E00E94A9122C9A0B
:1027600081E008952C9A80EB84B98DE58CBD8DB500
:102770008EB50E949E1308952C9886E00E94A9129F
:102780002C9A2C9880E60E94A9122C9A2C9884E00E
:102790000E94A9122C9A0E94B81281E008951F92FB
:1027A0000F920FB60F9211242F933F935F936F9365
:1027B0007F938F939F93AF93BF93EF93FF938091FA
:1027C000600390916103019690936103809360038D
:1027D00081E090E09093850080938400E0915E0317
:1027E000F0915F03809160039091610328EE33E0E4
:1027F000B9010E9495296E0F7F1F70935F0360934C
:102800005E038091600390916103B9010E94952954
:1028100090936103809360038091620390916303BE
:10282000181619064CF40197909363038093620382
:10283000009711F410926403FF91EF91BF91AF9153
:102840009F918F917F916F915F913F912F910F9009
:102850000FBE0F901F901895E4E6F0E08081877F0F
:102860008083E0E8F0E080818E7F808380818D7FAF
:102870008083E1E8F0E080818860808380818F7EC2
:10288000808380818460808380818D7F808380814C
:1028900081608083EFE6F0E080818260808389E060
:1028A00090E09093890080938800089510926403CB
:1028B000089520915E0330915F03C901089520912E
:1028C000600330916103C9010895F8941092850066
:1028D00010928400789410925F0310925E0310921D
:1028E000610310926003089540E059E017C08C31F5
:1028F000910540F4849FF001859FF00D949FF00DA9
:10290000112402C0E0E0FCEF3197F1F79C018D311A
:10291000910510F02CE130E0821B930B009739F702
:1029200008950EC08B3420F4982F990F980F01C092
:1029300091EE9A95F1F7982F8C3408F09BE4891B5F
:10294000882381F708952091390130913A01C90116
:1029500043E0880F991F4A95E1F7820F931F8D97E7
:102960008B35910514F08AE590E097FF02C080E076
:1029700090E09093630380936203F89480916203E4
:102980009091630318161906B4F481E080936403F0
:1029900083B7817F83BF83B7816083BF789404C08E
:1029A00081E00E9491148895809164038823C1F787
:1029B00083B78E7F83BF87E390E090933A01809343
:1029C0003901789408950F931F93CF93DF93FC01FF
:1029D000DA018091600390916103CD91DC911197B0
:1029E000008111818C179D0710F0AC0103C0AC0170
:1029F00048515C4F400F511F4C1B5D0B518340836E
:102A000011969C938E93C0913B01D0913C014091D3
:102A1000390150913A018C179D0720F0DC01A41B6D
:102A2000B50B05C0DC01A851BC4FAC1BBD0B4A1750
:102A30005B0708F4DA014A1B5B0B50933A014093A1
:102A4000390190933C0180933B01808191818617ED
:102A50009707C8F0222319F4861B970B02C080E069
:102A600090E0918380832091390130913A01681B75
:102A7000790B2617370708F4B90170933A01609370
:102A8000390181E00FC02091390130913A01681B72
:102A9000790B2617370708F4B90170933A01609350
:102AA000390180E0DF91CF911F910F91089510922D
:102AB000B90080E28093B8003998419838984098DE
:102AC00081E0089594EA9093BC009091BC0097FF38
:102AD000FCCF8093BB0084E88093BC008091BC0055
:102AE00087FFFCCF862F972FFC0180E090E024E841
:102AF0000AC031913093BB002093BC003091BC00E0
:102B000037FFFCCF0196841795079CF384E98093E7
:102B1000BC00089594EA9093BC009091BC0097FF8C
:102B2000FCCF81608093BB0084E88093BC008091DF
:102B3000BC0087FFFCCFFB0180E090E0415050409B
:102B400024EC0AC02093BC003091BC0037FFFCCFBE
:102B50003091BB0031930196841795079CF324E8CC
:102B60002093BC002091BC0027FFFCCF2091BB002C
:102B7000680F791FFB01208384E98093BC000895CE
:102B8000813039F48091C00087FFFCCF8091C6006E
:102B900008958091C80087FFFCCF8091CE000895F2
:102BA000813039F48091C00085FFFCCF6093C6006E
:102BB00008958091C80085FFFCCF6093CE000895F2
:102BC000EF92FF921F93CF93DF93182FE62EE7012A
:102BD0007E01F72EE70103C0812F0E94D015699175
:102BE0006623D1F7DF91CF911F91FF90EF90089569
:102BF0001F93CF93DF93182FEB0104C0812F0E9406
:102C0000D0152196FE0164916623C1F7DF91CF9123
:102C10001F9108952F923F924F925F926F927F92F1
:102C20008F929F92AF92BF92CF92DF92EF92FF92DC
:102C30000F931F93DF93CF93CDB7DEB72A970FB6CD
:102C4000F894DEBF0FBECDBF89870A831B832C8318
:102C50003D834E835F836887272E77FD02C06BE23A
:102C600060C0EA81E19521E01E1608F020E08B812A
:102C7000819591E0181608F090E0782F721B21E002
:102C8000871708F020E0922B2C81219581E0121605
:102C900008F080E0622F691B91E0261708F090E0B1
:102CA000892B2D81219591E0121608F090E0522F8A
:102CB000581B81E0251708F080E0982B2E81219584
:102CC00081E0121608F080E0422F491B91E02417A2
:102CD00008F090E0892B2F81219591E0121608F0E1
:102CE00090E0322F381B81E0231708F080E0982B0A
:102CF0002885219581E0121608F080E0A22FA91BFB
:102D00009A2FF1E02A1708F0F0E08F2B2194EA8344
:102D10007B836C835D834E833F839887281A8985E4
:102D20006DE20E94D015BAE0B98377246624552459
:102D300044243324882499242A86FAE02F2E66C05E
:102D4000222D372D462D552D642D732DC40101E004
:102D50000E944D19F22E132FE42ED52E962E772E8B
:102D6000282EC92E02E00E944D192F0DE1E02F15EB
:102D700008F0E0E0310FA1E0311708F0A0E0E30F28
:102D8000F1E0E31708F0F0E0AF2B4E0DF1E04E1547
:102D900008F0F0E06A2E640E31E0641608F030E0CE
:102DA000F32B5D0D31E05D1508F030E05F2E550E20
:102DB00041E0551608F040E0342B690D41E06915FB
:102DC00008F040E0432E460E31E0461608F030E0B1
:102DD000432B770D31E0771508F030E0342E370EB5
:102DE00041E0371608F040E0342B820D41E08215B7
:102DF00008F040E0832E880E31E0881608F030E0BD
:102E0000942E932AC90E222E7E2E9C0C2A813B8161
:102E10004C815D816E817F8188859A85A22CB72C3B
:102E2000C62CD52CE42CF32C84010E94BE19232B34
:102E3000242B252B262B272B282B292B09F080CF61
:102E400029822A842981372D462D552D642D732DF5
:102E5000C401EAE0AE2EBB24CC24DD24EE24FF2402
:102E600000E010E00E94BE192983732E642E552EB7
:102E7000462E372E4C012A813B814C815D816E812B
:102E80007F818885922DA980B72CC62CD52CE42C67
:102E9000F32C84010E94BE19205D8985622F0E9457
:102EA000D0152A813B814C815D816E817F8188852F
:102EB000922DA9800E948D212A833B834C835D83C0
:102EC0006E837F838887292E19140CF4BBCF992039
:102ED000B1F4882009F0B6CF332009F0B3CF4420F5
:102EE00009F0B0CF552009F0ADCF662009F0AACF88
:102EF000772009F0A7CFEA2DE23008F0A3CF2A9679
:102F00000FB6F894DEBF0FBECDBFCF91DF911F91FA
:102F10000F91FF90EF90DF90CF90BF90AF909F9078
:102F20008F907F906F905F904F903F902F9008957B
:102F3000813061F4613021F48091C100806803C068
:102F40008091C1008F778093C1000895613021F492
:102F50008091C900806803C08091C9008F778093F9
:102F6000C9000895813061F4613021F48091C1007D
:102F7000806403C08091C1008F7B8093C10008955D
:102F8000613021F48091C900806403C08091C90040
:102F90008F7B8093C9000895813061F4613021F402
:102FA0008091C100806103C08091C1008F7E8093B9
:102FB000C1000895613021F48091C900806103C08F
:102FC0008091C9008F7E8093C9000895813061F49B
:102FD000613021F48091C100886003C08091C100FC
:102FE000877F8093C1000895613021F48091C900EA
:102FF000886003C08091C900877F8093C9000895CD
:10300000FF920F931F93F82E052F162F272F33278C
:10301000813041F40093C5004093C40086E0809362
:10302000C20007C00093CD004093CC0086E080939F
:10303000CA008F2D61E00E94CC178F2D61E00E94A5
:10304000E6171F910F91FF90089582E063E044E03E
:1030500050E00E94700782E063E047E050E00E9489
:10306000700782E062E043E050E00E94700782E077
:1030700063E046E050E00E94700782E063E045E0D4
:1030800050E00E94700781E061E042E050E00E9461
:10309000700781E061E041E050E00E94700781E04C
:1030A00061E040E050E00E9470070895823039F0FE
:1030B000833049F0813061F41A9B0BC007C081E076
:1030C000199B07C003C081E0189B03C080E00895EE
:1030D00080E008958330F1F0843028F4813041F0AD
:1030E0008230C9F50EC08430F1F08530A1F524C0DE
:1030F000662311F483E001C082E062E043E050E027
:1031000021C0662311F483E001C082E063E046E061
:1031100050E018C0662311F483E001C082E063E050
:1031200045E050E00FC0662311F483E001C082E067
:1031300063E044E050E006C0662339F483E063E0D6
:1031400047E050E00E947007089582E063E047E0A6
:1031500050E00E94700708958330A1F0843028F475
:10316000813041F08230E9F409C0843079F0853053
:10317000C1F412C082E063E070E00BC083E066E05F
:1031800070E007C083E065E070E003C083E064E0C6
:1031900070E00E948608089583E067E070E00E9476
:1031A000860808950F931F93CF93DF93EC0181E07E
:1031B0000E945618882341F181E061E00E946A185C
:1031C00019828BE693E068EB7BE045E653E020E074
:1031D0000E94E314882389F1188282E061E00E9452
:1031E0006A1883E060E00E946A180E94EE0502E31C
:1031F00010E082E390E00E94741481E00E94AC1819
:1032000001501040B1F719C08881882319F48981D1
:10321000882359F08A819B8105972C813D818217F3
:10322000930718F481E061E002C081E060E00E9451
:103230006A1810926C0310926B0383E00E94561878
:10324000882349F081E0888319820E943B0B0E9409
:10325000670B0E94B10B82E00E945618882321F070
:10326000188219820E94960B8881882319F489811B
:10327000882331F083E061E00E946A1882E005C093
:1032800082E061E00E946A1883E060E00E946A18B0
:10329000DF91CF911F910F9108950F93DF93CF93FB
:1032A000CDB7DEB760970FB6F894DEBF0FBECDBFC7
:1032B000002309F459C029833A834B835C836D83CF
:1032C0007E838F839887E0E2E01B29813A814B81DE
:1032D0005C811E16BCF019861A861B861C868E2FF2
:1032E000992787FD9095909581959F4F04C0220F57
:1032F000331F441F551F8A95D2F72D873E874F876E
:10330000588B2AC0CA01B901002E04C0660F771F6E
:10331000881F991F0A94D2F769877A878B879C87C1
:10332000DA01C90104C0B695A79597958795EA95E6
:10333000D2F72D813E814F81588504C0220F331F63
:10334000441F551F0A95D2F7822B932BA42BB52B24
:103350008D879E87AF87B88B29853A854B855C859D
:103360006D857E858F85988960960FB6F894DEBF4F
:103370000FBECDBFCF91DF910F910895ACE4B0E0C7
:10338000E4ECF9E10C94F929F50129833A834B83A4
:103390005C836D837E838F839887A986FA87CB862B
:1033A000DC86ED86FE860F87188B8D809E80AF8031
:1033B000B884B7FE67C02195B1E0121608F0B0E0FE
:1033C0003195A1E0131608F0A0E0232E2B1AB22DA0
:1033D000BB24B394321508F0BB24AB29419531E0EE
:1033E000141608F030E0342E3A1AA32DBB24B394FF
:1033F000431508F0BB243B29519541E0151608F010
:1034000040E0A52EA31A31E05A1508F030E0432B16
:10341000619531E0161608F030E0B62EB41A41E09E
:103420006B1508F040E0342B719541E0171608F059
:1034300040E0572F531B31E0751708F030E0432B65
:10344000819531E0181608F030E0482E441A442DDA
:1034500061E0841508F060E0362B9195931B298379
:10346000BA83AB83AC82BD825E834F8398872FEF94
:103470003FEF4FEF5FEF21962CAF3DAF4EAF5FAF09
:10348000219706C021961CAE1DAE1EAE1FAE219721
:103490008D859E85AF85B889B7FF68C021964CADF4
:1034A0005DAD6EAD7FAD219740955095609570955F
:1034B00021964CAF5DAF6EAF7FAF2197E19581E074
:1034C0001E1608F080E0F19591E01F1608F090E0DC
:1034D0004F2F481B81E0F41708F080E0982BC1942F
:1034E00081E01C1408F080E06C2D691B91E0C61689
:1034F00008F090E0892BD19491E01D1408F090E041
:103500005D2D581B81E0D51608F080E0982BE194E2
:1035100081E01E1408F080E03E2D391B91E0E31697
:1035200008F090E0892BF19491E01F1408F090E0EE
:103530002F2D281B81E0F21608F080E0982B0195D2
:1035400081E0101608F080E0702F791B972F71E052
:10355000091708F070E0872B1195181BE9874A8737
:103560006B875C873D872E879F87188B79856A8557
:103570005B854C853D852E859F858889E981E98B12
:10358000EA81EA8BEB81EB8BEC81EC8BED81ED8BAF
:10359000EE81EE8BEF81EF8BE885E88F798F6A8F74
:1035A0005B8F4C8F3D8F2E8F9F8F88A3E98CFA8C79
:1035B0000B8D1C8D2D8D3E8D4F8D58A189899A893B
:1035C000AB89BC898DAB9EABAFABB8AFAD88BE88C5
:1035D000CF88D88C211531054105510509F0BEC3AE
:1035E000AE14BF04C006D10608F04FC190E0E91642
:1035F00090E0F90691E0090790E0190758F4AFEF61
:10360000EA16F1040105110509F090F420E030E01C
:10361000A90117C0B0E0EB16B0E0FB06B0E00B0765
:10362000B1E01B0750F420E130E040E050E009C079
:1036300028E030E040E050E004C028E130E040E025
:1036400050E0D801C701022E04C0B695A795979502
:1036500087950A94D2F7835C9E4FFC01608180E2DB
:1036600090E0A0E0B0E0821B930BA40BB50B861B8F
:103670009109A109B1090097A105B105A1F1082E91
:1036800004C0EE0CFF1C001F111F0A94D2F7A60104
:103690009501082E04C0220F331F441F551F0A94A2
:1036A000D2F760E270E0681B790BADA8BEA8CFA886
:1036B000D8AC04C0D694C794B794A7946A95D2F7AF
:1036C000A22AB32AC42AD52A2DA83EA84FA858ACAE
:1036D00004C0220C331C441C551C8A95D2F72DAA19
:1036E0003EAA4FAA58AE380188249924A801970110
:1036F000407050702DA73EA74FA758ABC601B5012B
:10370000A40193010E94BC29222E532E442E352E53
:1037100069AB7AAB8BAB9CABC601B501A40193013D
:103720000E94BC29822D952DA42DB32D89A79AA77F
:10373000ABA7BCA7BC01CD012DA53EA54FA558A99F
:103740000E946A295B016C0149A95AA96BA97CA94D
:10375000DA01992788272DA83EA84FA858AC9201D6
:1037600044275527822B932BA42BB52B8A159B0519
:10377000AC05BD0530F529A53AA54BA55CA52150A2
:1037800030404040504029A73AA74BA75CA78E0D78
:103790009F1DA01FB11F8E159F05A007B10788F0C0
:1037A0008A159B05AC05BD0560F4215030404040B2
:1037B000504029A73AA74BA75CA78E0D9F1DA01FBD
:1037C000B11FAC01BD014A195B096C097D095A01A1
:1037D0006B01CB01BA01A40193010E94BC29222EE6
:1037E000532E442E352E69AB7AAB8BAB9CABC60106
:1037F000B501A40193010E94BC29A22CB52CC42CB4
:10380000D32CC601B5012DA53EA54FA558A90E94F0
:103810006A293B014C0169A97AA98BA99CA9AB0132
:10382000332722278DA99EA9AFA9B8ADA070B0708B
:10383000282B392B4A2B5B2B2615370548055905B4
:10384000C0F40894A108B108C108D1082E0D3F1D8D
:10385000401F511F2E153F054007510750F02615F8
:1038600037054805590528F40894A108B108C1088E
:10387000D10889A59AA5ABA5BCA58C01FF24EE248F
:10388000EA28FB280C291D29C7C4E114F10401050D
:10389000110559F461E070E080E090E0A801970123
:1038A0000E94BC2979018A0110C090E0E91690E0DD
:1038B000F90691E0090790E0190758F4AFEFEA160E
:1038C000F1040105110509F090F420E030E0A901B0
:1038D00017C0B0E0EB16B0E0FB06B0E00B07B1E0BC
:1038E0001B0750F420E130E040E050E009C028E040
:1038F00030E040E050E004C028E130E040E050E03B
:10390000D801C701022E04C0B695A7959795879553
:103910000A94D2F7835C9E4FFC018081280F311DF1
:10392000411D511D80E290E0A0E0B0E0821B930BAE
:10393000A40BB50B61F4150126012E183F08400AAF
:10394000510A81E0A82EB12CC12CD12C29C1082EFE
:1039500004C0EE0CFF1C001F111F0A94D2F71501C2
:103960002601022E04C056944794379427940A9453
:10397000D2F729A63AA64BA65CA6B601A501082E49
:1039800004C0440F551F661F771F0A94D2F74DA736
:103990005EA76FA778AB2DA83EA84FA858AC04C06F
:1039A00056944794379427942A95D2F7ADA4BEA491
:1039B000CFA4D8A8A228B328C428D528ADA6BEA6CF
:1039C000CFA6D8AA2DA93EA94FA958AD04C0220F51
:1039D000331F441F551F8A95D2F72DAB3EAB4FAB1B
:1039E00058AF380188249924B801A701607070701D
:1039F00049AB5AAB6BAB7CAB69A57AA58BA59CA5F3
:103A0000A40193010E94BC29222E532E442E352E50
:103A100069AF7AAF8BAF9CAF69A57AA58BA59CA542
:103A2000A40193010E94BC29A22CB52CC42CD32C38
:103A3000A9A6BAA6CBA6DCA6C601B50129A93AA9B2
:103A40004BA95CA90E946A295B016C0129AC3AACC4
:103A50004BAC5CACD101992788272DA43EA44FA480
:103A600058A8920144275527822B932BA42BB52BC2
:103A70008A159B05AC05BD0530F529A53AA54BA5D2
:103A80005CA5215030404040504029A73AA74BA7A1
:103A90005CA78E0D9F1DA01FB11F8E159F05A0074F
:103AA000B10788F08A159B05AC05BD0560F421506F
:103AB00030404040504029A73AA74BA75CA78E0D45
:103AC0009F1DA01FB11FAC01BD014A195B096C0904
:103AD0007D095A016B01CB01BA01A40193010E9437
:103AE000BC29222E532E442E352E69AF7AAF8BAFD0
:103AF0009CAFC601B501A40193010E94BC29622CB0
:103B0000752C842C932CC401B30129A93AA94BA983
:103B10005CA90E946A299B01AC0169AD7AAD8BADAD
:103B20009CAD6B01BB24AA248DA59EA5AFA5B8A909
:103B3000A070B070A82AB92ACA2ADB2AA216B30636
:103B4000C406D506E0F4089461087108810891085C
:103B5000AE0CBF1CC01ED11EAE14BF04C006D106E1
:103B600070F0A216B306C406D50648F4089461089E
:103B7000710881089108AE0CBF1CC01ED11E150132
:103B80002601221A330A440A550A89A59AA5ABA52B
:103B9000BCA56C01BB24AA24A628B728C828D9280C
:103BA0009801442755272DA73EA74FA758ABB8012A
:103BB000A7016070707049AB5AAB6BAB7CABC201B4
:103BC000B1012DA53EA54FA558A90E94BC29622E82
:103BD000932E842E752E69AF7AAF8BAF9CAFC20146
:103BE000B1012DA53EA54FA558A90E94BC29862D3F
:103BF000992DA82DB72D89A79AA7ABA7BCA7BC0163
:103C0000CD0129A93AA94BA95CA90E946A293B01C7
:103C10004C0129AC3AAC4BAC5CACD101992788275C
:103C20002DA83EA84FA858AC920144275527822BB7
:103C3000932BA42BB52B86159705A805B90530F550
:103C400029A53AA54BA55CA52150304040405040E5
:103C500029A73AA74BA75CA78E0D9F1DA01FB11FD8
:103C60008E159F05A007B10788F086159705A80552
:103C7000B90560F4215030404040504029A73AA790
:103C80004BA75CA78E0D9F1DA01FB11FAC01BD01EE
:103C900046195709680979093A014B01CB01BA0164
:103CA0002DA53EA54FA558A90E94BC29522E432EF2
:103CB000342E252E69AF7AAF8BAF9CAFC401B30110
:103CC0002DA53EA54FA558A90E94BC29652C742C92
:103CD000832C922CC401B30129A93AA94BA95CA950
:103CE0000E946A291B012C0169AD7AAD8BAD9CAD98
:103CF000AB01332722278DA99EA9AFA9B8ADA0702B
:103D0000B070282B392B4A2B5B2B22153305440529
:103D10005505C0F4089461087108810891082E0DBA
:103D20003F1D401F511F2E153F054007510750F002
:103D3000221533054405550528F4089461087108D7
:103D40008108910889A59AA5ABA5BCA58C01FF2483
:103D5000EE24E628F7280829192961C2A216B3061D
:103D6000C406D50608F448C2203090E0390791E037
:103D7000490790E0590750F42F3F3105410551059F
:103D800009F090F466247724430119C02030A0E0A4
:103D90003A07A0E04A07A1E05A0760F490E1692ED3
:103DA000712C812C912C0BC088E0682E712C812CF9
:103DB000912C05C0B8E16B2E712C812C912CDA016D
:103DC000C901062C04C0B695A795979587950A94C6
:103DD000D2F7835C9E4FFC018081680E711C811CB0
:103DE000911C80E290E0A0E0B0E086199709A80954
:103DF000B90989F42A153B054C055D0508F403C291
:103E00002DA83EA84FA858AC2E143F0440065106DA
:103E100008F0F9C1F1C189AF19012A0104C0220CCF
:103E2000331C441C551C8A95D2F7D801C701062CB7
:103E300004C0B695A795979587950A94D2F7282A36
:103E4000392A4A2A5B2AA801970109AC04C0220F2B
:103E5000331F441F551F0A94D2F729962CAF3DAF4C
:103E60004EAF5FAF299786017501062C04C01695E9
:103E70000795F794E7940A94D2F7B601A50109AC27
:103E800004C0440F551F661F771F0A94D2F74DA731
:103E90005EA76FA778AB6DA97EA98FA998AD04C066
:103EA00096958795779567956A94D2F73B014C0173
:103EB0008DA59EA5AFA5B8A986299729A829B929B6
:103EC0008DA79EA7AFA7B8AB5201CC24DD24A9AA29
:103ED000BAAACBAADCAAA2019101407050702D961B
:103EE0002CAF3DAF4EAF5FAF2D97C801B701A60114
:103EF00095010E94BC29622EA32ED42EC52E259694
:103F00006CAF7DAF8EAF9FAF2597C801B70129A9D0
:103F10003AA94BA95CA90E94BC29E62CFA2C0D2DCC
:103F20001C2DE9A6FAA60BA71CA7C801B7012D9660
:103F30002CAD3DAD4EAD5FAD2D970E946A29259603
:103F4000ACACBDACCEACDFAC25978501FF24EE2434
:103F5000ADA4BEA4CFA4D8A8960144275527E22A31
:103F6000F32A042B152BE616F7060807190730F578
:103F700029A53AA54BA55CA52150304040405040B2
:103F800029A73AA74BA75CA7E20CF31C041D151D3B
:103F9000E214F3040405150588F0E616F706080791
:103FA000190760F4215030404040504029A73AA7FB
:103FB0004BA75CA7E20CF31C041D151DE61AF70ABB
:103FC000080B190BC801B70129A93AA94BA95CA98B
:103FD0000E94BC29A22ED32EC42EB52E25966CAFDE
:103FE0007DAF8EAF9FAF2597C801B70129A93AA928
:103FF0004BA95CA90E94BC296A2C7D2C8C2C9B2C83
:10400000C401B3012D962CAD3DAD4EAD5FAD2D97E6
:104010000E946A299B01AC012596ACACBDACCEAC2C
:10402000DFAC2597D50199278827ADA4BEA4CFA4DE
:10403000D8A86FEFE62E6FEFF62E012D112DAE20D2
:10404000BF20C022D1228A299B29AC29BD298217F1
:104050009307A407B507E0F4089461087108810884
:104060009108820D931DA41DB51D82159305A4050D
:10407000B50570F082179307A407B50748F40894B4
:104080006108710881089108820D931DA41DB51D5A
:104090001C012D01221A330A440A550A2DA63EA6F8
:1040A0004FA658AAA9A4BAA4CBA4DCA48501FF24D6
:1040B000EE24E628F72808291929AFEFAA2EAFEF3A
:1040C000BA2EC12CD12CAE20BF20C022D122180183
:1040D0004424552429966CAC7DAC8EAC9FAC2997BA
:1040E0002FEF3FEF40E050E06222732284229522BE
:1040F00029966CAD7DAD8EAD9FAD2997AC0166273D
:10410000772749A75AA76BA77CA7C601B501A401C9
:1041100093010E946A2969AB7AAB8BAB9CABC60159
:10412000B50129A53AA54BA55CA50E946A295B01AA
:104130006C01C201B101A40193010E946A293B01F3
:104140004C01C201B10129A53AA54BA55CA50E946D
:104150006A299B01AC01A60CB71CC81CD91C29A854
:104160003AA84BA85CA8C201AA27BB27A80EB91E73
:10417000CA1EDB1EA614B704C804D90420F42050BC
:1041800030404F4F5F4FC601AA27BB27820F931FB6
:10419000A41FB51F2DA53EA54FA558A9281739075F
:1041A0004A075B0718F182179307A407B507A1F523
:1041B0006501BB24AA2489A99AA9ABA9BCA9A070AE
:1041C000B070A80EB91ECA1EDB1E8DA99EA9AFA98C
:1041D000B8AD09AC04C0880F991FAA1FBB1F0A9471
:1041E000D2F78A159B05AC05BD05B0F40894E1082B
:1041F000F1080109110910C0AA24BB246501EE24AD
:10420000FF2487010CC0AA24BB24650181E0E82EAD
:10421000F12C012D112D03C0AA24BB246501FE0140
:10422000B19688E0DF011D928A95E9F7E9A2FAA22A
:104230000BA31CA3ADA2BEA2CFA2D8A62E2D3AA13D
:104240004BA15CA16A2D7EA18FA198A521962CACD3
:104250003DAC4EAC5FAC21972114310441045104B4
:1042600009F456C02195E1E0121608F0E0E031951E
:10427000F1E0131608F0F0E0032F0E1BE1E0301719
:1042800008F0E0E0FE2B4195E1E0141608F0E0E0D4
:10429000142F1F1B31E0411708F030E0E32B51953C
:1042A000F1E0151608F0F0E0B52FBE1B31E05B170A
:1042B00008F030E0F32B6195E1E0161608F0E0E03D
:1042C000A62EAF1A31E06A1508F030E0E32B7195A5
:1042D000F1E0171608F0F0E0A72FAE1B31E07A17D7
:1042E00008F030E0F32B8195E1E0181608F0E0E0EB
:1042F000382E3F1AF32D31E0831508F030E0E32B20
:104300009195302F412F5B2F6A2D7A2F8F2F9E1B77
:10431000C45BDF4FE2E10C94152AA4E5B0E0E3E9C9
:10432000F1E20C94F929F50129833A834B835C83EC
:104330006D837E838F839887A986FA87CB86DC86F8
:10434000ED86FE860F87188B8D809E80AF80B884A7
:10435000B7FE67C02195B1E0121608F0B0E03195C4
:10436000A1E0131608F0A0E0232E2B1AB22DBB24D7
:10437000B394321508F0BB24AB29419531E01416F3
:1043800008F030E0342E3A1AA32DBB24B394431521
:1043900008F0BB243B29519541E0151608F040E098
:1043A000A52EA31A31E05A1508F030E0432B619591
:1043B00031E0161608F030E0B62EB41A41E06B1565
:1043C00008F040E0342B719541E0171608F040E00A
:1043D000572F531B31E0751708F030E0432B8195C0
:1043E00031E0181608F030E0482E441A442D61E000
:1043F000841508F060E0362B9195931B2983BA83CE
:10440000AB83AC82BD825E834F83988766246A94B7
:10441000762C430165966CAE7DAE8EAE9FAE6597F1
:1044200006C065961CAE1DAE1EAE1FAE65978D858F
:104430009E85AF85B889B7FF58C0E19581E01E160B
:1044400008F080E0F19591E01F1608F090E04F2F02
:10445000481B81E0F41708F080E0982BC19481E0BC
:104460001C1408F080E06C2D691B91E0C61608F062
:1044700090E0892BD19491E01D1408F090E05D2D1F
:10448000581B81E0D51608F080E0982BE19481E07C
:104490001E1408F080E03E2D391B91E0E31608F071
:1044A00090E0892BF19491E01F1408F090E02F2DFB
:1044B000281B81E0F21608F080E0982B019581E03E
:1044C000101608F080E0702E791A972D71E007150C
:1044D00008F070E0872B1195181BE9874A876B87D6
:1044E0005C873D872E879F87188BE984FA840B852C
:1044F0001C85BD85AE859F858889F981EA817B8190
:104500006C815D814E813F812885E9A2FAA20BA3CF
:104510001CA3BDA3AEA39FA388A7E9A0FAA00BA1EB
:104520001CA18DA19EA1AFA1B8A5F9ABEAAB7BAB55
:104530006CAB89A89AA8ABA8BCA821968CAE9DAEFE
:10454000AEAEBFAE2197652E742E832E922E130130
:1045500024010097A105B10509F038C36E147F044A
:104560008006910608F014C120E0E21620E0F20671
:1045700021E0020720E0120758F43FEFE316F104B0
:104580000105110509F090F480E090E0DC0117C00E
:1045900040E0E41640E0F40640E0040741E0140780
:1045A00050F480E190E0A0E0B0E009C088E090E045
:1045B000A0E0B0E004C088E190E0A0E0B0E0A80195
:1045C0009701082E04C056954795379527950A946C
:1045D000D2F7235C3E4FF901208130E2A32EB12CAB
:1045E000C12CD12CA81AB90ACA0ADB0AA21AB1082E
:1045F000C108D108ADAABEAACFAAD8AEA114B104F1
:10460000C104D104A9F12DA9022E04C0EE0CFF1C97
:10461000001F111F0A94D2F7022E04C0660C771CEB
:10462000881C991C0A94D2F780E290E08A199B09B1
:1046300029A83AA84BA85CA804C05694479437947C
:1046400027948A95D2F7262837284828592849A937
:104650005AA96BA97CA904C0440F551F661F771F78
:104660002A95D2F721964CAF5DAF6EAF7FAF219701
:10467000B8018827992769AB7AAB8BAB9CABD80183
:10468000C701A070B07089AF9AAFABAFBCAFC20129
:10469000B10129A93AA94BA95CA90E94BC29A22E63
:1046A000632ED42EC52E25966CAF7DAF8EAF9FAFF7
:1046B0002597C201B10129A93AA94BA95CA90E9479
:1046C000BC296A2D762D8D2D9C2D29AD3AAD4BAD93
:1046D0005CAD0E946A295B016C0125962CAC3DAC57
:1046E0004EAC5FAC2597D1019927882721964CAC19
:1046F0005DAC6EAC7FAC2197930144275527822B8C
:10470000932BA42BB52B8A159B05AC05BD0590F406
:104710008E0D9F1DA01FB11F8E159F05A007B1070D
:1047200048F08A159B05AC05BD0520F48E0D9F1D34
:10473000A01FB11F3C014D016A187B088C089D0821
:1047400064015301C401B30129A93AA94BA95CA989
:104750000E94BC29622E832E942E752E1B012C01E3
:10476000C601B50129A93AA94BA95CA90E94BC2997
:10477000662D782D892D972D29AD3AAD4BAD5CADC9
:104780000E946A295B016C01D10199278827DEC14B
:10479000E114F1040105110559F461E070E080E0D5
:1047A00090E0A80197010E94BC2979018A0110C0FC
:1047B00020E0E21620E0F20621E0020720E01207E6
:1047C00058F43FEFE316F1040105110509F090F4E8
:1047D00080E090E0DC0117C040E0E41640E0F40621
:1047E00040E0040741E0140750F480E190E0A0E0CD
:1047F000B0E009C088E090E0A0E0B0E004C088E14B
:1048000090E0A0E0B0E0A8019701082E04C0569502
:104810004795379527950A94D2F7235C3E4FF901C7
:104820002081820F911DA11DB11D50E2252E312C3A
:10483000412C512C281A390A4A0A5B0A2DAA3EAA91
:104840004FAA58AE211431044104510439F46401D3
:104850005301AE18BF08C00AD10AF3C02DA9022E19
:1048600004C0EE0CFF1C001F111F0A94D2F71301A5
:104870002401082E04C056944794379427940A9430
:10488000D2F764015301022E04C0AA0CBB1CCC1C3D
:10489000DD1C0A94D2F749A95AA96BA97CA904C0C6
:1048A00076956795579547958A95D2F7A42AB52AA4
:1048B000C62AD72AA9AEBAAECBAEDCAE69A97AA910
:1048C0008BA99CA904C0660F771F881F991F2A9582
:1048D000D2F721966CAF7DAF8EAF9FAF2197380195
:1048E00088249924D801C701A070B07089AB9AAB15
:1048F000ABABBCABC201B101A40193010E94BC29C6
:10490000D22EC32E5A0125966CAF7DAF8EAF9FAFCE
:104910002597C201B101A40193010E94BC296D2D0C
:104920007C2DC50129A93AA94BA95CA90E946A2935
:104930005B016C0125962CAC3DAC4EAC5FAC259771
:10494000D1019927882729AC3AAC4BAC5CAC9201D9
:1049500044275527822B932BA42BB52B8A159B0517
:10496000AC05BD0590F48E0D9F1DA01FB11F8E15C7
:104970009F05A007B10748F08A159B05AC05BD054A
:1049800020F48E0D9F1DA01FB11F9C01AD012A199F
:104990003B094C095D0959016A01CA01B901A40129
:1049A00093010E94BC29222E532E442E352E25968B
:1049B0006CAF7DAF8EAF9FAF2597C601B501A40147
:1049C00093010E94BC29622D752D842D932D29A958
:1049D0003AA94BA95CA90E946A295B016C01259642
:1049E0004CAD5DAD6EAD7FAD2597DA019927882777
:1049F00029AD3AAD4BAD5CAD40705070822B932B1E
:104A0000A42BB52B8A159B05AC05BD0590F48E0D26
:104A10009F1DA01FB11F8E159F05A007B10748F06D
:104A20008A159B05AC05BD0520F48E0D9F1DA01FAA
:104A3000B11F1C012D012A183B084C085D086201BA
:104A40005101180144245524A80197014070507069
:104A500029AB3AAB4BAB5CABC601B501A2019101EE
:104A60000E94BC29622E832E942E752E69AF7AAFD8
:104A70008BAF9CAFC601B501A20191010E94BC2978
:104A8000662D782D892D972D29A93AA94BA95CA9C6
:104A90000E946A295B016C0149AD5AAD6BAD7CADDA
:104AA000DA019927882721966CAC7DAC8EAC9FAC3F
:104AB0002197940144275527822B932BA42BB52BA8
:104AC0008A159B05AC05BD0590F48E0D9F1DA01F9A
:104AD000B11F8E159F05A007B10748F08A159B05E9
:104AE000AC05BD0520F48E0D9F1DA01FB11F9C01BC
:104AF000AD012A193B094C095D0959016A01CA0136
:104B0000B901A20191010E94BC29622E832E942E2C
:104B1000752E69AF7AAF8BAF9CAFC601B501A2010C
:104B200091010E94BC29662D782D892D972D29A9E8
:104B30003AA94BA95CA90E946A295B016C0149ADA5
:104B40005AAD6BAD7CADDA019927882721962CAD43
:104B50003DAD4EAD5FAD219740705070822B932BD1
:104B6000A42BB52B8A159B05AC05BD0590F48E0DC5
:104B70009F1DA01FB11F8E159F05A007B10748F00C
:104B80008A159B05AC05BD0520F48E0D9F1DA01F49
:104B9000B11F8A199B09AC09BD090DA804C0B695BF
:104BA000A795979587950A94D2F789A79AA7ABA757
:104BB000BCA71DA61EA61FA618AA898B8AA58A8B2C
:104BC0008BA58B8B8CA58C8B1D8A05C368167906EB
:104BD0008A069B0648F4F98BEA8B7B8B6C8B5D8B8A
:104BE0004E8B3F8B288FFDC2803050E0950751E0FF
:104BF000A50750E0B50750F48F3F9105A105B10519
:104C000009F090F4AA24BB24650119C0803060E04B
:104C1000960760E0A60761E0B60760F440E1A42EC5
:104C2000B12CC12CD12C0BC038E0A32EB12CC12C3F
:104C3000D12C05C028E1A22EB12CC12CD12C9C0175
:104C4000AD010A2C04C056954795379527950A94CF
:104C5000D2F7235C3E4FF9012081A20EB11CC11C8A
:104C6000D11C20E230E040E050E02A193B094C0919
:104C70005D0909F04DC086159705A805B90548F0EE
:104C8000A9A8BAA8CBA8DCA8AE14BF04C006D10658
:104C900040F129A93AA94BA95CA92E193F09400B5B
:104CA000510B681A790A8A0A9B0A61E070E080E079
:104CB00090E0C9A8DAA8EBA8FCA8C216D306E406BF
:104CC000F50618F060E070E0CB0113012401261A0C
:104CD000370A480A590A21962CAF3DAF4EAF5FAF55
:104CE00021972196ECACFDAC0EAD1FAD2197E9A646
:104CF000FAA60BA71CA72DA63EA64FA658AAE98A7E
:104D00008AA58A8B8BA58B8B8CA58C8B2D8A63C2F5
:104D10002DAF9C01AD010DAC04C0220F331F441F09
:104D2000551F0A94D2F72296AFAE2297D801C70139
:104D30000A2C04C0B695A795979587950A94D2F743
:104D4000282B392B4A2B5B2B2DAB3EAB4FAB58AFEF
:104D5000B801A7010DAC04C0440F551F661F771F93
:104D60000A94D2F72D964CAF5DAF6EAF7FAF2D9703
:104D7000130124010A2C04C05694479437942794B5
:104D80000A94D2F7C401B3010DAC04C0660F771FBB
:104D9000881F991F0A94D2F769AF7AAF8BAF9CAF87
:104DA00089A99AA9ABA9BCA904C0B695A79597955E
:104DB0008795AA94D2F769AC7AAC8BAC9CAC682A84
:104DC000792A8A2A9B2A69AE7AAE8BAE9CAE89A8D4
:104DD0009AA8ABA8BCA80DAC04C0880C991CAA1C4E
:104DE000BB1C0A94D2F789AA9AAAABAABCAACDA8DE
:104DF000DEA8EFA8F8AC4701AA24BB2497018601DE
:104E00002070307029960CAF1DAF2EAF3FAF2997A1
:104E1000C201B101A50194010E94BC296901E42EDF
:104E2000052F61966CAF7DAF8EAF9FAF6197C201CA
:104E3000B101A50194010E94BC2916014E2C502EEF
:104E4000C201B10129962CAD3DAD4EAD5FAD2997A4
:104E50000E946A2961962CAD3DAD4EAD5FAD619764
:104E60008901FF24EE2429AD3AAD4BAD5CAD9A012A
:104E700044275527E22AF32A042B152BE616F706BA
:104E80000807190700F5089421083108410851085E
:104E90002DA93EA94FA958ADE20EF31E041F151F00
:104EA000E216F3060407150770F0E616F706080782
:104EB000190748F408942108310841085108E20E06
:104EC000F31E041F151FE61AF70A080B190BC80179
:104ED000B701A50194010E94BC29622ED32EC42ED5
:104EE000752E61966CAF7DAF8EAF9FAF6197C80195
:104EF000B701A50194010E94BC29862D9D2DAC2DE2
:104F0000B72D5C016D01C601B50129962CAD3DADF3
:104F10004EAD5FAD29970E946A298B019C01619675
:104F20008CAD9DADAEADBFAD6197BC01552744279B
:104F300089AD9AADABADBCADA070B070482B592B0C
:104F40006A2B7B2B401751076207730700F5089403
:104F5000A108B108C108D1086DA87EA88FA898AC97
:104F6000460D571D681D791D4615570568057905BD
:104F700070F0401751076207730748F40894A108BE
:104F8000B108C108D108460D571D681D791DDB0108
:104F9000CA01801B910BA20BB30B89AF9AAFABAFC9
:104FA000BCAFD101992788278A299B29AC29BD2923
:104FB0003FEFE32E3FEFF32E012D112DE822F922D2
:104FC0000A231B233D01882499242D96ACACBDAC4B
:104FD000CEACDFAC2D97FFEF2F2EFFEF3F2E412CF5
:104FE000512CA220B320C420D5202D962CAD3DAD50
:104FF0004EAD5FAD2D971A0144245524C801B70169
:10500000A60195010E946A2929966CAF7DAF8EAFEB
:105010009FAF2997C801B701A20191010E946A2997
:105020007B018C01C401B301A60195010E946A298C
:105030005B016C01C401B301A20191010E946A29C4
:105040009B01AC01EA0CFB1C0C1D1D1D29962CAC10
:105050003DAC4EAC5FAC2997C201AA27BB27E80E36
:10506000F91E0A1F1B1FEA14FB040C051D0520F482
:10507000205030404F4F5F4FC801AA27BB27820FF7
:10508000931FA41FB51F8701FF24EE2429962CAD82
:105090003DAD4EAD5FAD299740705070E20EF31EEE
:1050A000041F151F49AC5AAC6BAC7CAC48165906B2
:1050B0006A067B0670F084159505A605B705A9F567
:1050C00069A87AA88BA89CA86E147F048006910614
:1050D00060F5A80197012D968CAC9DACAEACBFAC31
:1050E0002D97281939094A095B095C016D012DA822
:1050F0003EA84FA858ACA218B308C408D50881E050
:1051000090E0A0E0B0E0E216F3060407150718F0FF
:1051100080E090E0DC0125013601481A590A6A0A4C
:105120007B0AD301C20179018A0169A87AA88BA8F8
:105130009CA86E187F08800A910A9401830149ADEA
:105140005AAD6BAD7CAD481B590B6A0B7B0B81E0F4
:1051500090E0A0E0B0E089A89AA8ABA8BCA880160F
:105160009106A206B30618F080E090E0DC01481B2F
:10517000590B6A0B7B0B5A016B0122960FAC2297DD
:1051800004C0AA0CBB1CCC1CDD1C0A94D2F70DACCD
:1051900004C036952795179507950A94D2F7A02A4B
:1051A000B12AC22AD32AA9A6BAA6CBA6DCA60DACE0
:1051B00004C076956795579547950A94D2F74DA701
:1051C0005EA76FA778ABA98A8AA58A8B8BA58B8BE4
:1051D0008CA58C8B4D8B8EA58E8B8FA58F8B88A9E4
:1051E000888F6596ACACBDACCEACDFAC6597A11436
:1051F000B104C104D10409F460C089899A897B890A
:105200006C895D894E893F89B88D8195E1E01816DA
:1052100008F0E0E0919521E0191608F020E0F92F60
:10522000FE1BE1E09F1708F0E0E02E2B719591E066
:10523000171608F090E0E72FE21BA1E07E1708F0B8
:10524000A0E09A2B619521E0161608F020E0762F59
:10525000791B91E0671708F090E0292B519591E0B8
:10526000151608F090E0652F621BA1E0561708F0B4
:10527000A0E09A2B419521E0141608F020E0542F6D
:10528000591B91E0451708F090E0292B319591E0EA
:10529000131608F090E0432F421BA1E0341708F0EA
:1052A000A0E09A2B2B2F2195291B898BFA8BEB8B56
:1052B0007C8B6D8B5E8B4F8B288F29893A894B892C
:1052C0005C896D897E898F89988DCC5ADF4FE2E1A8
:1052D0000C94152A629FD001739FF001829FE00D0C
:1052E000F11D649FE00DF11D929FF00D839FF00D65
:1052F000749FF00D659FF00D9927729FB00DE11D11
:10530000F91F639FB00DE11DF91FBD01CF011124ED
:105310000895991B79E004C0991F961708F0961B11
:10532000881F7A95C9F780950895AA1BBB1B51E188
:1053300007C0AA1FBB1FA617B70710F0A61BB70B05
:10534000881F991F5A95A9F780959095BC01CD01AA
:10535000089597FB092E07260AD077FD04D0E5DFD4
:1053600006D000201AF4709561957F4F0895F6F7E6
:10537000909581959F4F0895A1E21A2EAA1BBB1B01
:10538000FD010DC0AA1FBB1FEE1FFF1FA217B30711
:10539000E407F50720F0A21BB30BE40BF50B661F27
:1053A000771F881F991F1A9469F7609570958095EB
:1053B00090959B01AC01BD01CF01089597FB092E8B
:1053C00005260ED057FD04D0D7DF0AD0001C38F4D4
:1053D00050954095309521953F4F4F4F5F4F089521
:1053E000F6F790958095709561957F4F8F4F9F4F01
:1053F00008952F923F924F925F926F927F928F9279
:105400009F92AF92BF92CF92DF92EF92FF920F9353
:105410001F93CF93DF93CDB7DEB7CA1BDB0B0FB65D
:10542000F894DEBF0FBECDBF09942A88398848881A
:105430005F846E847D848C849B84AA84B984C884B0
:10544000DF80EE80FD800C811B81AA81B981CE0FA7
:10545000D11D0FB6F894DEBF0FBECDBFED0108958C
:10546000FC0188279927E89421912032E9F329301B
:1054700010F02E30C8F32B3241F02D3239F46894FD
:1054800004C00E944E2A820F911D219120532A3080
:10549000C0F31EF4909581959F4F08957AE0979FF1
:1054A000902D879F802D910D11240895F999FECF9D
:1054B00092BD81BDF89A992780B50895262FF99954
:1054C000FECF1FBA92BD81BD20BD0FB6F894FA9AE7
:0C54D000F99A0FBE01960895F894FFCFE2
:1054DC00FFFFFFFFFFFFFFFFFFFFFFFFFFFFFFFFD0
:1054EC0000000000000000000000000000000000B0
:1054FC00204E204E60EA020000E80300000000F499
:10550C000100000000C80000003700370000010255
:10551C000203030303040404040404040405050542
:10552C00050505050505050505050505050606061C
:10553C0006060606060606060606060606060606FF
:10554C0006060606060606060606060606070707EC
:10555C0007070707070707070707070707070707CF
:10556C0007070707070707070707070707070707BF
:10557C0007070707070707070707070707070707AF
:10558C00070707070707070707070707070808089C
:10559C00080808080808080808080808080808087F
:1055AC00080808080808080808080808080808086F
:1055BC00080808080808080808080808080808085F
:1055CC00080808080808080808080808080808084F
:1055DC00080808080808080808080808080808083F
:1055EC00080808080808080808080808080808082F
:1055FC00080808080808080808080808080808081F
:0E560C00080808080808080808080808080028
:00000001FF
